:020000040800F2
:100000006808002095420008E1410008E34100082B
:10001000E5410008E7410008E94100080000000050
:10002000000000000000000000000000EB4100089C
:10003000ED41000800000000EF410008F141000818
:10004000BD420008C1420008C5420008C94200087C
:10005000CD420008D1420008D5420008D94200082C
:10006000DD420008E1420008E5420008E9420008DC
:10007000ED420008F1420008F5420008F94200088C
:10008000FD42000801430008054300080943000839
:100090000D430008114300081543000819430008E8
:1000A0001D43000821430008254300082943000898
:1000B0002D43000831430008F5410008354300088E
:1000C000394300083D430008414300084543000808
:1000D000494300084D4300085143000855430008B8
:1000E000594300085D430008614300086543000868
:1000F000694300086D430008714300087543000818
:10010000794300087D4300088143000885430008C7
:10011000894300088D430008914300089543000877
:10012000994300089D430008A1430008A543000827
:10013000A9430008AD430008B1430008B5430008D7
:10014000B9430008BD430008C1430008C543000887
:10015000C9430008CD430008D1430008D543000837
:10016000D9430008DD430008E1430008E5430008E7
:10017000E9430008ED430008000000000000000013
:10018000F1430008F543000838B5040001D101200F
:1001900032BD00F0B9F818B900F04AFA00F03DFDA0
:1001A000FFE702206870211D206800F045FA012059
:1001B00028730121A970E87029716871A971E8712B
:1001C00029726872A972E8726970002032BD38B570
:1001D000040001D1012032BD00F096F818B900F0FA
:1001E00027FA00F0BFFDDCE770B5044604F13E00DD
:1001F00009B902780FE0042908BF42780BD008291A
:1002000008BF827807D00C2908BFC27803D0102914
:100210000CBF02794279012A01D0012070BD11B9C9
:100220000222027014E0042902D1022242700FE07F
:10023000082902D1022282700AE00C2902D102228E
:10024000C27005E0102907BF022202710223437128
:100250002068012200F0C9FB00F033F818BF90427B
:1002600008D088421FBFDFF89850A842DFF894609A
:10027000B04203D1456C45F400454564206898427E
:1002800018BFB0F1804F0BD000F018F81CBF144D10
:10029000A84205D000F00FF81CBF9042884206D15A
:1002A00000F015F818BFB1F5803F02D0206800F0CB
:1002B0001FF8002070BD0B4B98427047074B9842C7
:1002C00070472068044B0949074A98427047816883
:1002D0000A48014006297047002C014000040040F4
:1002E00000080040000C0040003401400040014084
:1002F0000168024641F001011160704707000100EA
:10030000004401400048014004F13C056878704712
:1003100070B504462068C5680669B10714D5AA07F8
:1003200012D56FF00201016101222277806910F07D
:10033000030F204602D000F016FD03E000F014FD8C
:1003400000F086F800202077700715D5690713D5CF
:1003500020686FF00402026102212177806910F4A5
:10036000407F204602D000F0FEFC03E000F0FCFCE1
:1003700000F06EF800202077300715D5290713D537
:1003800020686FF00802026104212177C06910F033
:10039000030F204602D000F0E6FC03E000F0E4FC8E
:1003A00000F056F800202077F00615D5E90613D5A1
:1003B00020686FF01002026108212177C06910F4F3
:1003C000407F204602D000F0CEFC03E000F0CCFCE1
:1003D00000F03EF80020207706F0010105F0010052
:1003E000014206D020686FF001010161204600F053
:1003F000BCFC300608D5290606D522686FF08000BF
:100400001061204600F0B2FCF00508D5290606D59B
:1004100022686FF480701061204600F0A8FC70061E
:1004200008D5690606D522686FF0400010612046A5
:1004300000F09EFCB0060AD5A90608D522686FF028
:10044000200010612046BDE8704000F092BC70BDF5
:10045000204600F08FBC002084F83C0028467047FE
:1004600070B500F07FF801D1022070BD012084F842
:100470003C0052B1042A19D0082A29D00C2A38D0BD
:10048000102A48D0142A57D068E0206800F02DF9CF
:100490002168886940F008008861886920F00400BC
:1004A00088618A69306902438A6158E0206800F0F7
:1004B0005EF92068816941F400618161816921F4FC
:1004C000806181618169326941EA0221816146E08E
:1004D000206800F085F92168C86940F00800C8610B
:1004E000C86920F00400C861CA6930690243CA6162
:1004F00035E0206800F0ACF92068C16941F4006182
:10050000C161C16921F48061C161C169326941EA97
:100510000221C16123E0206800F0C1F92168486D23
:1005200040F008004865486D20F0040048654A6DB9
:10053000306902434A6512E0206800F0DAF9206869
:10054000416D41F400614165416D21F48061416577
:10055000416D326941EA0221416500E00125FFF762
:100560007AFF70BD0446002594F83C0001280E4631
:10057000704770B5064606F13C050024287801282E
:1005800001D1022070BD0120287002226A70DFF8BC
:10059000C00332689368034093600868020018BF84
:1005A000102830D0202818BF30282CD0402826D042
:1005B000502819D060281BD0702806D0B0F5805F75
:1005C00027D0B0F5005F07D022E000F02CF83068AB
:1005D000816841F0770105E000F025F83068816816
:1005E00041F48041816014E000F019F850210BE0E3
:1005F000CA684968306800F0D4F9602104E000F06E
:100600000EF8402100E00146306800F0DCF900E01F
:1006100001240120687000F00BF870BD0000CA686A
:1006200049683068AEE1CB684A6889683068D2E1D1
:1006300000212970204670472DE9F043D0F800C012
:10064000DFF81073DFF81033DFF81043DFF81053D2
:10065000DFF81063DFF810E3DFF81083DFF81093A2
:10066000B84218BFB0F1804F07D0484518BF404589
:1006700003D0704518BFB0420ED14A682CF0700C00
:1006800042EA0C0CB84218BFB0F1804F0CD048457C
:100690001CBF4045704507D0B04218BFA84203D0E8
:1006A000A04218BF984204D1CA682CF4407C42EAA8
:1006B0000C0C4A692CF0800C42EA0C0CC0F800C00B
:1006C000B842D1F808C0C0F82CC00A68826218BFCE
:1006D000B04204D0A8421CBFA042984201D109698F
:1006E000016301224261BDE8F0832DE9F041066A11
:1006F000026ADFF86082DFF86472DFF864C2DFF854
:1007000064E252085200026226F0020644688569DB
:10071000DFF860220B6815408A681D431643DFF836
:100720003832404518BF704504D060451CBFB84200
:1007300098420DD1CA6826F00806164326F0040632
:10074000404518BF704505D0604518BFB84201D07C
:10075000984205D14B698A6924F440741C431443C0
:1007600044608561496841630662BDE8F081F0B587
:10077000036A026A22F01002026223F02003446836
:1007800085697D4A0E6815408A6845EA062543EA70
:100790000213704E734AB04218BF904208D1CF681E
:1007A00023F0800343EA0713B04223F040030AD04A
:1007B00090421CBF6A4A904205D0684EB0421CBFAE
:1007C000654A904206D14E698A6924F44064164312
:1007D00044EA860444608561496881630362F0BD30
:1007E000F0B5046A026A634B22F48072026224F458
:1007F00000744568C6690A681E408B6844EA032491
:100800001643544B574A984218BF904208D1CF68BC
:1008100024F4006444EA0724984224F480640AD053
:1008200090421CBF4E4A904205D04C4B98421CBF90
:10083000494A904206D14B698A6925F440551343D1
:1008400045EA03154560C6614968C1630462F0BDAD
:1008500070B5036A026A22F48052026223F40053E4
:100860004468C569444A00F06BF843EA0233B04279
:100870001CBF3C4A904207D0394EB0421FBF374A96
:100880009042354EB04204D14A6924F4804444EA8F
:1008900082144460C56149680164036270BD70B52B
:1008A000046A026A354B22F48032026224F4003476
:1008B0004568466D0A681E4016438B68254A44EA1F
:1008C000034490421CBF274B984207D0244A9042D1
:1008D0001FBF224B9842204A904204D14A6925F416
:1008E000803545EA022545604665496881650462B0
:1008F00070BD70B5036A026A22F48012026223F4AA
:1009000000134468456D1E4A00F01AF843EA02538A
:10091000B0421CBF134A904207D0114EB0421FBFD5
:100920000E4A90420C4EB04204D14A6924F480240D
:1009300044EA8224446045654968C165036270BD2C
:100940000E68154045EA06258A68024E7047000089
:100950008800FEFF002C0140004801400044014097
:100960000040014000340140000C004000080040FD
:10097000000400408CFFFEFFFF8CFFFE8FFFFEFF98
:10098000FF8FFFFE10B5036A046A64086400046206
:1009900023F00A03846924F0F00444EA0214846119
:1009A0002EE010B5036A046A24F01004046223F0F8
:1009B000A003846924F4704444EA0234846143EA65
:1009C0000113036210BD826822F07002114341F0EE
:1009D00007018160704710B5846824F47F44214387
:1009E000114341EA0321816010BD10B501F01F01E0
:1009F000036A01248C40A343036202FA01F1036AF3
:100A00001943016210BD0EE00268436802440830D9
:100A10005FEAC37C44BF4B445B1E52F804CB43F8EF
:100A200004CB091FF9D150F8041B0029ECD1704701
:100A3000DFF8000381B0816841F0010181608168C5
:100A400001F0010100910099026842F080520260B9
:100A5000006800F080500090009801B0704710B519
:100A6000A8B000F023F900F09BF82068DFF8C81266
:100A7000884243D14FF4804206924FF080510122C8
:100A800007920892249110220992072102220B92C8
:100A90000C920A914FF080720D9200F07EF808B12E
:100AA00000F047FCDFF89402016841F40051016056
:100AB000026802F40052009200F036F9036803F075
:100AC000010300930099026842F002020260F021E3
:100AD000006800F0020000900B2200F01FF94FF0B8
:100AE000904001A900F028FC02200B210190029106
:100AF0000022039201A9924800F01EFC28B010BD0C
:100B000038B5A8B0044614220021684600F01AFD4A
:100B100000F046F820688B49894C884D884215D1F1
:100B20004022002106921A9100F037F808B100F037
:100B300000FC00F028F8C02100F037F8E86840F425
:100B40000010E860E86800F4001018E07E49884270
:100B500017D18022002106921B9100F01EF808B1E7
:100B600000F0E7FB00F00FF84FF4406100F01DF8D3
:100B7000E86840F48000E860E86800F480000090D5
:100B8000009829B030BD286840F002002860122289
:100B9000296801F002010591704706A800F0DCBC4D
:100BA0008822002106A800F0CDBC05980091019292
:100BB00000210291032204210491039269462046F8
:100BC00000F0BABB10B586B000F070F821685F483D
:100BD000814220D15948C16841F48041C160C16857
:100BE00001F4804100910099026842F0080202601D
:100BF0001B21006800F00800009002220098544871
:100C00000191029200210391032205210591049292
:100C100001A900F091FB06B010BD80B500684D4AF7
:100C20004449904209D1886840F40060886088682F
:100C300000F400600090009801BD474A904212D134
:100C4000086840F0040008600022096801F004010F
:100C50000091002100981E2000F03AFFBDE80240FC
:100C60001E2000F053BF01BD10B586B000F01EF885
:100C700021683848814217D13048016841F010019D
:100C800001604FF40071006800F010000090022233
:100C900000983248019102920021039104910121B0
:100CA000059101A900F048FB06B010BD04461422CE
:100CB000002101A800F046BC10B5A8B0FFF7F6FF70
:100CC000FFF76EFF20682649884225D101220021C6
:100CD00006921491FFF761FF08B100F02AFB174854
:100CE000416941F480414161416901F480410091D1
:100CF00000F01AF84FF4C061006800F001000090A5
:100D0000022200F00BF8032207210591049201A9A9
:100D10004FF0904000F010FB28B010BD00980191FA
:100D200002920021039170470099026842F001028B
:100D30000260704758100240000004504C100240FE
:100D400000040048005400400058004000380040B3
:100D5000000C0048002C0140000800400010004832
:100D600000380140704770477047704770477047C0
:100D700070477047704700002DE9F84199B000F0C6
:100D8000EFFE00F096FA00F0CFFADFF8B844DFF893
:100D9000B8542068DFF8B46440F010002060216887
:100DA00001F0100105910598216841F004012160CE
:100DB000226802F0040205920598216841F00101C1
:100DC0002160226802F0010205920598216841F035
:100DD00002012160226802F0020205920598216852
:100DE00041F0080121604FF4F861226802F0080226
:100DF000059200220598284600F08DFB00224FF452
:100E00006061304600F087FB01224FF480714FF0A3
:100E1000904000F080FB00224FF4C0514FF0904012
:100E200000F079FB4FF4F86100F03BFA284600F03F
:100E300083FA4FF4605000210090019102912846FE
:100E4000694600F079FA4FF4606100F02AFA304602
:100E500000F072FA4FF4C85100F023FA4FF09040BE
:100E600000F06AFA0C22002106A800F06BFB1822A1
:100E700000F05BFADFF8D853DFF8D80328600021D0
:100E8000042068616960E9600120012168762961B8
:100E900005F13006082000220721F060AA602A76BA
:100EA000E96185F82020AA62EA623270726000204F
:100EB00001226021706132723161B261284600F016
:100EC00081FE08B100F035FA0020069006A92846F8
:100ED00001F034F908B100F02CFADFF87C1300912E
:100EE00006220192012102917F22039204210491A2
:100EF000002205926946284600F046FF08B100F03E
:100F000018FAD64900910C2200F0C6F908B100F099
:100F100010FAD3490091122200F0BEF908B100F096
:100F200008FAD0490091182200F0B6F908B100F093
:100F300000FACD4900914FF4807200F0ADF908B18C
:100F400000F0F7F9C94900914FF4837200F0A4F959
:100F500008B100F0EEF9C64900914FF4867200F036
:100F60009BF908B100F0E5F905F5A877C1483860AC
:100F70007421B9600120F8600021DFF8FC8239613A
:100F80007961B961F9613962C7F80480384601F0C6
:100F900047F908B100F0CDF90021384601F0A4FC72
:100FA00008B100F0C6F90F21384601F0B2FC08B1D3
:100FB00000F0BFF9B14878657421F965012000217E
:100FC000C7F8588038667966B966F966396779670F
:100FD00005F5D277384601F023F908B100F0A9F9F8
:100FE0000021384601F080FC08B100F0A2F90F2181
:100FF000384601F08EFC08B100F09BF94FF4827185
:10100000B1634FF440719E48706331640020F06317
:1010100070640021B1643165B1654FF48020F064E3
:101020000721316600207065F06570660821B166A1
:1010300005F1640001F098FC08B100F07AF905F1BF
:10104000C800904901604FF4E13200230C21426056
:101050008360C360036141618361C3610362436272
:1010600001F0F2FC08B100F064F91022002115A88B
:1010700000F068FA0C2200F058F91C2200210EA89A
:1010800000F060FA2C22002103A800F05BFA4F2147
:1010900005F5FC767C48716030600021316171613A
:1010A0004FF6FF701022F0608021B260B1613046CF
:1010B000FFF76AF808B100F03CF94FF48057159734
:1010C00015A93046FFF755FA08B100F032F930465D
:1010D000FFF77DF808B100F02CF900200090019096
:1010E00002906946304601F05BFF08B100F021F93B
:1010F0000022109264210F9104221292602000219C
:101100000E9011911391002214920EA93046FFF710
:10111000A7F908B100F00DF900204FF40051039039
:101120000490059006900790089109900A904FF05E
:1011300000720C900D900B9203A9304601F070FFE5
:1011400008B100F0F6F800213046FFF74DF83046C0
:10115000FFF78AFD1022002103A800F0F3F90C220A
:1011600000F0E3F84948F0644F21102070653165C4
:101170000020F06570664CF2503805F51175C6F820
:1011800058802846FFF700F808B100F0D2F803971E
:1011900003A92846FFF7EDF908B100F0CAF80021CD
:1011A000009102912846694601F0FAFE08B100F06C
:1011B000C0F81422002101A800F0C4F9E06840F052
:1011C0000800E06040F21F32E068314C00F0080097
:1011D000009000230099ADF804204FF0FF310391F7
:1011E0000293049301A9204601F068FF206820F0D3
:1011F00080002060A16827480140A160616821F05B
:10120000700161600021A06820F08000A060616230
:10121000206840F00100206002F072F80025E8B27A
:1012200002F040FAE8B202F07DF96D1CE8B2042841
:10123000F5D3606A616A081A4045EFD9032002F0CD
:1012400073FAEBE74C100240000C0048000800481D
:1012500010000020000004500002B0250004002A05
:101260000008302E0010603200002143000052C7F9
:101270000100008000540040821A700000580040B5
:101280000038004000380140002C014000080040B8
:10129000000C0040F8BFFEFF01926946284600F0AE
:1012A00073BD0091012200210291039101926946D0
:1012B000704780B596B04422002105A800F042F99D
:1012C00000F032F84FF4007002F064FA08B100F058
:1012D00030F801210B91002260210D910C92012127
:1012E00010911191022228210F9212911020059045
:1012F0000722022113921491159105A802F082FA97
:1013000008B100F016F80F2003210090019100228F
:101310000292039204920421684602F09FFC08B1F5
:1013200000F007F817B000BD14220021684600F055
:1013300009B972B6FEE700002DE9F84F4FF0000939
:10134000774A784B4FF00F0805460E4638E0764C4A
:10135000A54214BF072406248C4074493C4341F83D
:101360002C40C143D2F808C0746801EA0C0CE402B6
:1013700048BF40EA0C0CC2F808C0D2F80CC0746830
:1013800001EA0C0CA40248BF40EA0C0CC2F80CC0E5
:10139000D2F804C0746801EA0C0CA40348BF40EA08
:1013A0000C0CC2F804C0D2F800C001EA0C0C716841
:1013B000C90348BF40EA0C0CC2F800C009F101099A
:1013C000316831FA09F000F0A480012404FA09F42C
:1013D00014EA0100F2D04FEA490C032101FA0CF1A2
:1013E0006FEA010E7168E44301F00307012F1CBF8F
:1013F00001F00301022910D1A968F7680EEA010182
:1014000007FA0CF73943A96069687768C7F30017D2
:10141000214007FA09F739436960716801F0030751
:10142000032F07D1EF6AC1F3C0013C4001FA09F173
:101430000C43EC624FEA8901347904F00304032C75
:101440001FD0EC68B7680EEA040407FA0CF73C43B7
:10145000EC60347904F00304022C12D14FEAD90471
:1014600005EB840401F01C07D4F820A008FA07FB60
:101470002AEA0B0AD6F810B00BFA07F747EA0A0770
:1014800027622C680EEA0407347904F0030404FA96
:101490000CF444EA070CC5F800C0746814F4403F2B
:1014A0008CD0D3F800C0214C4CF0010CC3F800C024
:1014B0004FEA990CD3F800E00EF0010ECDF800E0F1
:1014C00001F00C01DDF800E054F82C4008FA01F7B7
:1014D00024EA0707B5F1904F08BF002418D0144C38
:1014E000A54208BF012413D0124CA54208BF022414
:1014F0000ED0114CA54208BF032409D00F4CA542C1
:1015000008BF042404D00E4CA5427FF420AF05246C
:1015100022E7BDE8F18F0AB18161704781627047AF
:10152000000401406010024000180048080001401B
:101530000004004800080048000C00480010004863
:101540000014004810B5044610460A4601462046DD
:1015500002F0D4FC204610BD2DE9FC4706460024CD
:101560003068DFF814740105A04621D5706E70B1A3
:10157000B0F5800F17D0B0F5000F03D0B0F5400FD5
:1015800009D013E03A6842F480323A6004E0002166
:1015900000F07CF9044654B9F96F706E21F44001F3
:1015A0000143F96704E000F06BF9F3E70124A0467A
:1015B0003068C10421D5B06EA8B1B0F1807F17D0DA
:1015C000B0F1007F03D0B0F1407F04D013E0396860
:1015D00041F4803139607CB9F96FB06E21F040710F
:1015E0000143F96709E0002100F050F90446F2E7F1
:1015F00000F046F9FAE70124A046306881032BD5B4
:10160000F86CC1004FF000090AD4F86C40F080502B
:10161000F8644FF00109F86C00F0805000900098D9
:10162000DFF82854286840F48070286002F09AFCA3
:1016300082462868C10500F1828002F093FCA0EB8D
:101640000A000328F5D30324A046B9F1000F03D004
:10165000F86C20F08050F8643078C10705D5FA6F37
:10166000B06B920840EA8202FA673178880705D5A4
:10167000F96FF06B21F00C010143F96731784807ED
:1016800005D5F96F306C21F030010143F9673178ED
:10169000080705D5F96F706C21F0C0010143F967A7
:1016A0003178C80605D5F96FB06C21F4407101435B
:1016B000F9673178880605D5F96FF06C21F440613F
:1016C0000143F9673168880505D5F96FF06D21F49C
:1016D00040210143F9673168480505D5F96F306E3F
:1016E00021F440110143F9673178480605D5F96FB7
:1016F000306D21F440510143F9673178080605D572
:10170000F96F706D21F440410143F9673168C805F4
:1017100005D5F96FB06D21F440310143F9673168A7
:10172000880446D5F96FF06E21F040610143F967F6
:10173000F06EB0F1006F34D100F09DF839E0002C6C
:1017400082D1DFF84443206810F440701CBFD6F803
:10175000841088420BD02068216841F480312160D8
:1017600020F44070226822F4803222602060C0079A
:101770000FD502F0F7FB05462068810709D402F077
:10178000F1FB401B41F289318842F5D34FF0030849
:101790005BE72168D6F8840021F4407101432160A1
:1017A00053E7B0F1806F04D100F06FF8010018BF6B
:1017B00080463068010314D5FA6F306F22F0406222
:1017C0000243FA67306FB0F1006F02D100F053F8B6
:1017D00007E0B0F1806F04D100F057F8010018BFA6
:1017E00080463068410314D5FA6F706F22F0406272
:1017F0000243FA67706FB0F1006F02D100F03BF85E
:1018000007E0B0F1806F04D100F03FF8010018BF8D
:1018100080463068410418D5FA6FB06F22F040520C
:101820000243FA67B06FB0F1805F03D1022100F08C
:101830002DF807E0B0F1005F07D1022106F120008A
:1018400000F09CF8010018BF80463068010405D5FF
:10185000FA6FF06F22F080420243FA673168C803E2
:1018600006D5F96FD6F8800021F000410143F967F1
:101870004046BDE8F687386840F48010386070470D
:10188000002106F1200000F079B80121301DFFE7AA
:101890002DE9F04105467D4F28680C46F968002681
:1018A00011F0030F0DD0F96801F00301814231D12D
:1018B00080B3F8686968C0F30210401C88420ED0FB
:1018C00028E0012804D025D303281DD018D321E017
:1018D0003A6891071ED5FA68696800F0C9F8386857
:1018E00020F0806000F0CCF880463868010113D504
:1018F00002F038FBA0EB08000328F6D3032637E0FC
:1019000039684A05E7D405E039688A03E3D43968C1
:101910004A03E0D401262BE0A9682CB93A695C4857
:10192000EB6800F095F80FE0012C3A6909D12B69BA
:10193000584802405B0842EA01215B1E41EA4351DC
:1019400002E06B6900F08BF83961386840F0806024
:1019500000F096F804463868010105D402F002FB55
:10196000001B0328F7D3C9E73869A9690843386120
:101970003046BDE8F08100000C1002402DE9F04136
:101980000646424F30680C46F968002511F0030FF7
:101990000DD0F96801F00301814231D180B3F868BC
:1019A0007168C0F30210401C88420ED028E0012864
:1019B00004D025D303281DD018D321E03A6891071D
:1019C0001ED5FA68716800F053F8386820F080502E
:1019D00000F056F880463868810013D502F0C2FA4C
:1019E000A0EB08000328F6D303252BE039684A054D
:1019F000E7D405E039688A03E3D439684A03E0D4C0
:101A000001251FE0B1687A69002C04D12048F368F1
:101A100000F01EF802E0336900F021F879613868BF
:101A200040F0805000F02CF804463868810005D45E
:101A300002F098FA001B0328F7D3D5E7786971699B
:101A4000084378612846BDE8F0810000007000403E
:101A5000024042EA01211B0941EA434170470E4816
:101A600002405B0842EA01215B1E41EA4361704784
:101A700022F073021043491E40EA0110F8607047DB
:101A8000386002F06FBA000090100240001002406F
:101A9000FF80FDFFFF809FFFFF80FFF9090102002B
:101AA00002D4284881547047274B02F00F021A4491
:101AB00002F8041C7047254B19684FF6FF0200021C
:101AC000114000F4E0600843214908431860704762
:101AD00070B51E4B1C68C4F302230124C3F1070533
:101AE000052D2EBF0F2504FA05F56D1E1E1D072EB0
:101AF00034BF0023DB1E2940994004FA03F3BDE8FC
:101B000070405B1E1A401143C8E70000010007D473
:101B1000012200F01F010F4B8A40400943F82020AA
:101B20007047401EB0F1807F01D3012070470A4901
:101B30000A4A48600023F02010708B60072008607C
:101B40000020704700E400E018ED00E00CED00E03C
:101B50000000FA0500E100E010E000E023ED00E005
:101B6000032010B5FFF7A7FF0F2002F001FA0024B1
:101B7000002814BF0124FEF75BFF204610BD0000C3
:101B8000603000EB8100006800F0F8407047603082
:101B900000EB8100016821F000410A4302607047B8
:101BA000CB0D10B5143003F004031818090D01F023
:101BB0001F01036807248C40A34302FA01F1194373
:101BC000016010BDF8B504460020002500900CB956
:101BD0000120F2BD04F15006706828B92046FEF7D6
:101BE0003EFF0020B060307021688868800004D516
:101BF0008A68DFF86C0102408A6021688868C0004A
:101C000012D48A68DFF85C01024042F080528A6098
:101C1000DFF85411DFF854210868B0FBF2F2521CCF
:101C20005200009200F069FA20688168C90008D467
:101C3000726842F0100272600125B16841F0010142
:101C4000B160836871689B08CA0600D4D90700F1A7
:101C50008080726822F4807242F0020272608068B2
:101C6000C00714D4DFF80811DFF8082108681168EC
:101C7000DFF804713A6808431043C00707D4DFF85F
:101C8000FC100A68606822F47C1202430A6004F1C6
:101C90003002607E5768E16894F820C047EA403718
:101CA000A0680F430743BCF1010F47EA0C4703D17B
:101CB000606A401E47EA4047A06A20B100F4707095
:101CC0000743E06A07432168DFF8B400D1F80CC08D
:101CD00000EA0C000743CF60DB072168886824D442
:101CE000000722D4CB68DFF89C00277E03401078E1
:101CF00043EA873343EA4003CB60107A01280FD1CF
:101D000023681F69D16810696FF38A070F4351690F
:101D1000074390690F43074347F001071F6104E041
:101D2000206801694908490001612069012820688B
:101D3000016B05D1E2690909521E42EA011101E075
:101D40000909090101630120716860F301017160F3
:101D500004E0706840F01000706001252846F2BD74
:101D6000C0FFFF5FC0FFFF7F0C000020400D03009D
:101D700008000450080104500802045008030450ED
:101D800007C0F0FFFDBFFFFFF8B50646002006F1D3
:101D900050050F46009000242978012901D1022026
:101DA000F2BD0120287030688168490700F17F8109
:101DB0007968062910D2891E03290CD8DFE801F0C2
:101DC000020406080C2107E0122105E0182103E0B7
:101DD0004FF4807100E006218B09303003F00C03D2
:101DE0003A68181801F01F01D0F800C01F238B407B
:101DF000C2F384622CEA030302FA01F11943016081
:101E0000306882688168520721D409071FD4BA68F4
:101E10003968FFF7C5FE3068C1683A69042A17D0EF
:101E200060303B6800EB820CDFF8E402DCF8002055
:101E3000024003F0F8431343C9087A69480000F0F0
:101E400006008240134343F00043CCF8003076E0B4
:101E50000021FFF795FE40033068214604D1FFF7CB
:101E60008FFEC0F3846003E0FFF78AFE00F034F9D0
:101E700039684A030EBFC1F3846191FAA1F1B1FA46
:101E800081F1884204D1306800220021FFF77FFEF3
:101E900000F02FF9400304D100F02BF9C0F3846067
:101EA00003E000F026F900F017F939684A030EBF85
:101EB000C1F3846191FAA1F1B1FA81F1884204D1B0
:101EC000306800220121FFF762FE00F00EF94003A6
:101ED00004D100F00AF9C0F3846003E000F005F9D2
:101EE00000F0FAF839684A030EBFC1F3846191FA31
:101EF000A1F1B1FA81F1884204D1306800220221B7
:101F0000FFF745FE00F0EDF8400304D100F0E9F8DA
:101F1000C0F3846003E000F0E4F800F0DDF8396815
:101F20004A030EBFC1F3846191FAA1F1B1FA81F1C4
:101F3000884204D1306800220321FFF728FE31686F
:101F40008868C00763D4FA683B68D1F8B0C0DFF88E
:101F5000C4E102F01802C3F312002EFA02F22CEAD6
:101F6000000013400343C1F8B030F868DFF8A8114F
:101F700088424CD1386841030EBFC0F3846290FAA6
:101F8000A0F1B1FA81F2521C012102F01F020A2ACB
:101F90001BD2420306D1C0F38462C0F38463C0F352
:101FA000846001E000F091F8521C5B1C920603F083
:101FB0001F03401C02F0F842994000F01F0011433B
:101FC00000EB400041EA00511DE0420306D1C0F39E
:101FD0008463C0F38462C0F3846001E000F075F8AC
:101FE0005B1C521C401C9B0602F01F0200F01F00ED
:101FF00003F0F84391400A38194300EB400041EAEE
:10200000005141F00071BA683068FFF7C9FD3B68C4
:10201000DFF8080103424FD0DFF80401DFF804C104
:102020000168DFF8E870DFF80021634501F0E07136
:102030001ED10B0240D43368934218BFBB423BD140
:1020400000F03EF841F400010160DFF8E000DFF845
:10205000E0200168B1FBF2F2521C0C2042430092D6
:10206000009800281EBF0098401E0090F8D123E081
:10207000DFF8C0E073450BD1CB011DD43368934228
:1020800018BFBB4218D100F01BF841F080710CE082
:10209000DFF8A470BB420FD14B020DD436689642D4
:1020A0000AD100F00DF841F48001016004E0686895
:1020B00040F0200068600124002028702046F2BD16
:1020C000026822F0E0721143704790FAA0F0B0FA73
:1020D00080F213461046704790FAA0F0B0FA80F0F4
:1020E000704730680321FFF74BBD30680221FFF7CE
:1020F00047BD30680121FFF743BD02E00098401E54
:10210000009000980028F9D17047000000020450A8
:1021100000F0FF03FFFF070000007F400000088081
:1021200008030450000052C7000004500C000020B7
:10213000400D0300000084CB010000802DE9F04138
:1021400000F1500499B023780022012B08BF02202F
:1021500052D0012525700026159600251695036896
:10216000294DAB422CD1294FDFF8A4E03B68DEF8C3
:1021700000506D073AD45B0738D40B68254DDFF863
:1021800098C0264E0BB3D6F800804B6890F830000C
:1021900028F4604843EA080343EA4038C6F8008060
:1021A000DEF800003B68DCF8007018433843C307D2
:1021B0001FD43768086889683D4005430D4313E024
:1021C00000F01DF82270012016E0306820F4604015
:1021D0003060DEF800003968DCF80030084318434E
:1021E000C00706D431680D40356002E000F007F802
:1021F000012200202070104619B0BDE8F08160680F
:1022000040F0200060607047000004500801045056
:1022100008000450E0F0FFFF0802045008030450D7
:1022200038B5040001D1012032BD04F140056878C1
:1022300020B9002129702046FEF762FC00F044F826
:102240006068216820F0706008612068816821F46E
:1022500000418160E0680128A0680CBF40F40040A4
:1022600040F4044021688860E068022820684168E2
:102270000CBF41F4006121F40061416020684168B5
:1022800041F0007141F4004141602068C16821F4CF
:102290000041C16060692169A2690143206841EA87
:1022A0000221C160206AE16922680143116020684F
:1022B000016841F00101016000206860202169701F
:1022C00020630021A97032BD242068702068016855
:1022D00049084900016070472DE9F84300F06DF8A6
:1022E00058D12178012955D00120207001F03AFE03
:1022F00000F00CF900284BD1212000F067F8708D18
:10230000DFF8A813B0F5807F03D335854FF08073D5
:1023100004E0708D30854FF0007390B1706AD6F88C
:1023200000C00278CCF82820706A421C7262708D5E
:10233000421E7285308D421E32850091521CD2B2EF
:1023400004E00091002201E000F0F2F800F0D2F881
:1023500000F02DF817D000F0E7F9002818D100F0B0
:10236000ADF80028F4D089B20029F1D100F0C6F808
:1023700070B900F09FF8E7D2728D3285002000908E
:102380004FF00073DBE700F0FCF900F0D8F802D062
:10239000012000E00220BDE8F28300904FF00073BE
:1023A000D2B2704700904FF08073FF227047708D5B
:1023B00000284A46394630467047064606F1400432
:1023C00088466078202815461F46704760701021A7
:1023D000A17000206060756277857063FF25089F9B
:1023E00070472DE9F84F00F04FF960D10A9D002D9C
:1023F0001CBF0B9F002F03D14FF40071616054E0AC
:102400002078012853D00121217001F0ABFD00F0AC
:102410007DF8002849D1212000F03FF94FF080736A
:1024200000F064F80C994A4600F05DF858B9BBF129
:10243000010F02D000F051F828B900F002F9802114
:1024400000F01FF910B1002020702EE0708DFF25E4
:10245000B0F5807F05D300F06BF800F04BF80C9FCF
:1024600002E000F05DF8F8E74A46394600F03BF834
:1024700000281AD100F022F878B189B269B900F0C9
:102480003DF8002811D100F015F802D300F050F803
:1024900001E000F045F800F02DF8708D0028E3D140
:1024A00000F0D9F800F04BF802D0012000E0022043
:1024B000BDE8F28F708DB0F5807F7047706A32682A
:1024C00001789162706A411C7162708D411E718544
:1024D000308D411E3185708D704731684FEA1A206A
:1024E00088624A460C99304600F01EB96F49009147
:1024F0005FFA8BF24146304600F0DFB9CDF800902C
:102500003B4600228021304600F0E4B88146CDF8F9
:102510000090192301224FF40041304600F0DAB850
:10252000728D3285002000904FF00073D2B2704758
:102530003585002000904FF08073FF227047010026
:102540000DD132682020D0613268DFF8680153680D
:1025500003405360202262700020A07020700800A9
:1025600070472DE9F84F00F08FF867D10A9D002DD4
:102570001CBF0B9F002F03D14FF4007161605BE023
:10258000207801285AD00121217001F0EBFCFFF7DF
:10259000BDFF002850D1222000F07FF80023FFF774
:1025A000A5FF0C994A46FFF79EFF58B9BBF1010FF2
:1025B00002D0FFF792FF28B900F043F8402100F065
:1025C00060F810B10020207036E0718DDFF8E00077
:1025D000FF25B1F5807F06D33585FFF7E3FEFFF7D2
:1025E00089FF0C9F04E0728D3285FFF7D6FEF6E777
:1025F000CDF800903B460022042100F042F800286C
:102600001AD100F02DF878B189B269B9FFF776FFD9
:10261000002811D1FFF74EFF02D3FFF789FF01E039
:10262000FFF77EFFFFF766FF708D0028E0D100F016
:1026300012F8FFF784FF02D0012000E00220BDE87D
:10264000F28F30685FFA8AFAC0F828A0CDF80090BF
:1026500000220C9B70474A463946304600F091B83C
:102660003068416A706A0170716A308D4A1C411E7F
:1026700072623185708D421E7285708D70474FF485
:102680008031304600F026B8064606F14004884600
:102690006078202892469B46704760704021A17068
:1026A000002060607562778570637047002000804D
:1026B0000024008000E800FE006881698A0744BFAA
:1026C000002181628169CA0703D4816941F0010157
:1026D000816170472DE9F041069F05460E46904600
:1026E0001C46286881693140B1420CBF012000209E
:1026F000404517D114F1010FF3D001F033FCC01B9A
:10270000844201D3002CECD1286881693140B14268
:102710000CBF012000204045E3D100F026F8012045
:10272000BDE8F0810020FBE770B505460C46164673
:1027300028688169880716D400F040F818B914F1A8
:10274000010FF5D001E0012070BD01F00BFC801BF2
:10275000844201D3002CEBD1286881698807E7D433
:1027600000F003F8EFE7002070BD05F140002022E3
:10277000416841F020014160427000218170017088
:10278000704770B505460C4616462868816988066C
:1027900012D400F013F808B1012070BD01F0E2FB83
:1027A000801B844201D3002CEFD128688169880600
:1027B000EBD4FFF7DAFFEFE7002070BD3246214689
:1027C0002846FFE72DE9F843044600252068836981
:1027D00000269046DA0604F1400739D51023C3617C
:1027E00089462BE029002DD119F1010F26D001F0E7
:1027F000B9FBA0EB0800814502D3B9F1000F1DD150
:1028000020684168BA7883691B040AD5490408D452
:10281000202A06D0416841F48041416001F0A2FBCA
:10282000804620688169880608D401F09BFBA0EBF4
:1028300008001A28F5D346F0200601252068816992
:102840008A06CFD50DB92021C16146F004060125C5
:1028500020688169CA0505D54FF4807346F00106EA
:10286000C3610125480506D520684FF4806246F013
:102870000806C2610125880507D520684FF400715C
:1028800046F00206C161012501E028000CD0204677
:10289000FFF712FF00F00BF8202079680E437E60EE
:1028A00078700021B97039702846BDE8F28321683C
:1028B0000B484A6802404A60704770B50068049C43
:1028C0004568084EC1F3090141EA0241194346EA4D
:1028D00054562143B54321F000412943416070BD66
:1028E00000E800FEFF63FF0330B500F140025378BB
:1028F000202B0CD11478012C09D000F01DF824F401
:1029000080541C6003681D682943196020E0022080
:1029100030BD30B500F140025378202B0AD1147835
:10292000012C07D000F008F824F4706444EA012474
:102930001C600DE0022030BD01231370242454706C
:1029400003681D686D086D001D6003681C68704792
:102950000068016841F001010160202050700021F1
:102960001170002030BD000038B5040001D10120F5
:1029700032BD606A30B96068B0F5827F05D0002151
:10298000E16102E00020206160610020A06204F1AA
:102990005C05687820B9002129702046FEF712F9FD
:1029A0000220687000F04AF8E168B1F5E06F04D9E0
:1029B0000020B1F5706F03D104E04FF4805001D0D6
:1029C0000021A1626168A268237C01F4827102F493
:1029D00004421143227D03F002031943A36902F06C
:1029E00001021143227F03F40073194394F820304D
:1029F00002F038021143A26A03F0800319432368EE
:102A000002F4005211431960A16994F8242094F84B
:102A10003430090C01F0040102F010021143E268A5
:102A200003F00803194302F470621143084321685C
:102A30004860002068600121697032BD206801682B
:102A400021F040010160704738B5040001D1012038
:102A500032BD04F17805686808B900F017F800F095
:102A60001AF808B100F031F800F02CF8012804D071
:102A700000F004F821F02A0116E032BD2068416818
:102A800021F49041416020688168704700212970DD
:102A90002046FEF711B924206860206801684908C3
:102AA00049000160606A7047816000F004F8BDE889
:102AB000324000F098B92068016841F001010160DE
:102AC00020467047204600F019B8204600F028B98B
:102AD000284600F0D5B9286800F1080151E8001F28
:102AE000490800F10803490043E800100028704736
:102AF000286850E8001F024670470000F8B50446F9
:102B0000DFF8780422681368A168034020690B434A
:102B100061690343E0690B43034313600025516877
:102B2000E06821F4405101435160A369DFF8481483
:102B30008A421CBF206A03439668DFF84474DFF8BA
:102B4000440426F4306633439360BA424FF40043A2
:102B5000DFF8346432D1366806F00306032E3BD822
:102B6000DFE806F0027161840127E169B1F5004FE9
:102B70004FF6F07640F0AB805FB1012F00F09F8000
:102B8000022F0AD0042F00F09D80082F00F09D80B6
:102B9000BFE001F044F900280FD061684A0802EB59
:102BA0004002B2FBF1F0A0F11001B142F0D20640B8
:102BB000C0F3420006432068C660ABE0DFF8CC7388
:102BC000BA4221D1366816F00C0660D0042E3AD0F5
:102BD000082E28D00C2E49D010278A42C5D137B1F3
:102BE000022F08D0042F54D0082F55D091E001F0C7
:102BF00016F90028E1D0626802EB4201884202D354
:102C0000130383424AD284E0DFF88473BA420CD1C2
:102C1000366816F030063AD0102E14D0202E02D08E
:102C2000302E23D0D8E70227D7E7DFF86873BA42FF
:102C30000BD1366816F0C00629D0402E03D0802E66
:102C4000F1D0C02EEDE70427C7E7DFF84C73BA4296
:102C50000ED1366816F4407619D0B6F5807FF2D0E2
:102C6000B6F5007FDFD0B6F5407FB5D10827B4E7D1
:102C70008A42B1D1366816F4406608D0B6F5806F46
:102C8000E1D0B6F5006FCED0B6F5406FC9E70027AA
:102C9000A3E701F07BF8ACE71846ACE7010E560855
:102CA00016EB00206941002301F084F9A0F5407182
:102CB000DFF8E82291422CD22168C8602AE001F0B6
:102CC000B6F868E701F062F865E7184665E747B1CE
:102CD000012F16D0022F07D0042F15D0082F16D0A1
:102CE00017E001F09CF8A8B1616800EB5100B0FB5F
:102CF000F1F0A0F11001B1420BD2226880B2D06095
:102D000008E001F094F8EEE701F040F8EBE7184630
:102D1000EAE701250020A066E0662846F2BD000033
:102D200090F824100A0706D502685368416B23F413
:102D300000430B43536090F82410CA0706D502687D
:102D40005368816A23F400330B43536090F82410D6
:102D50008A0706D502685368C16A23F480330B439F
:102D6000536090F824104A0706D502685368016B37
:102D700023F480230B43536090F82410CA0606D531
:102D800002689368816B23F480530B43936090F83F
:102D900024108A0606D502689368C16B23F4005399
:102DA0000B43936090F824104A0610D502685368CC
:102DB000016C23F480130B435360036CB3F5801F45
:102DC00005D15368416C23F4C0030B43536090F862
:102DD00024100A0606D501684A68806C22F4002295
:102DE00002434A607047F8B5054605F178040020B3
:102DF000E0606FF07E4701F0B5F80646286801688C
:102E00000A0711D50097334600224FF40011FFF74F
:102E10005FFE48B1FFF76CFE21F0800100F02CF856
:102E2000F8D12020606017E0286801684A0717D5AC
:102E30000097334600224FF48001FFF749FE78B136
:102E4000FFF756FE21F4907100F016F8F8D1FFF765
:102E500042FEFCD12020A060002121700320F2BDA1
:102E6000202060602021A160002028660021696682
:102E70002070F2BD21F4F07142E800100028704784
:102E80002DE9F041069C05460E4690461F462868EF
:102E9000C1693140B1420CBF01200020404533D10F
:102EA00014F1010FF3D001F05DF8C01B844200D390
:102EB00014B90320BDE8F081286801684A07E6D507
:102EC000C169080704D42968C8690105DFD50DE088
:102ED0002A6808201062284600F018F805F17800EA
:102EE0000821C160002202700120E3E729684FF445
:102EF00000600862284600F009F805F178002021FA
:102F0000C16000220270D4E70020D3E710B500F0C2
:102F10000EF8FCD100F015F8FCD1016E00F01EF89F
:102F20002021C0F8801000220266826610BD016870
:102F300051E8002F0B4622F4907243E8002100294B
:102F40007047016801F1080252E8002F520801F1B0
:102F50000804520044E8002100297047012909D1E2
:102F6000026852E8002F036822F0100243E80021B3
:102F70000029F5D17047000000800040F369FFEFA1
:102F8000003801400024F400881002400044004052
:102F900000480040004C00400050004000FD0F0081
:102FA000F0B500F13C042278012A01D10220F0BDE5
:102FB00001222270022363700668DFF860E0776800
:102FC000B568DFF8ECC0764518BF664503D14B689D
:102FD00027F470071F430A6827F0700717437760CC
:102FE0000268724518BFB2F1804F0CD02E48824261
:102FF0001CBF304B9A4206D02A4882421EBF62450F
:103000002D4B9A4204D1886825F0800505439560D0
:103010000121617000202070F0BD0000002C0140F3
:1030200030B590F83C20012A01D1022030BD0122A8
:1030300080F83C20CC688B684A6824F440741C43B8
:1030400024F4806414430B680A6924F400641C436C
:1030500024F4805414434B698A6A24F400541C43BA
:1030600024F4804414438B69104A24F4702444EA05
:103070000344036893421CBF0D4DAB420CD14A6A16
:1030800024F4700444EA0254CA69096A24F0807482
:10309000144324F000740C435C64002280F83C204C
:1030A000002030BD000C004000040040002C014016
:1030B0000034014000080040004001402DE9F04389
:1030C000D0F800C0DFF8A070DFF8B830DFF8B0400B
:1030D000DFF8A850DFF8A060DFF898E0DFF8908014
:1030E000DFF88890B84218BFB0F1804F07D048454C
:1030F00018BF404503D0704518BFB0420ED14A6892
:103100002CF0700C42EA0C0CB84218BFB0F1804FA2
:103110000CD048451CBF4045704507D0B04218BF91
:10312000A84203D0A04218BF984204D1CA682CF428
:10313000407C42EA0C0CC0F800C0B8428A68C26207
:103140000A88826218BFB04204D0A8421CBFA042C5
:10315000984201D109690163416941F0010141616E
:103160000020BDE8F0830000002C01400004004076
:1031700000080040000C00400034014000400140C5
:10318000004401400048014081B000B2ADF80000A9
:103190009DF800109DF801208DF800208DF8011099
:1031A000BDF9000080B201B070471CB500F095F881
:1031B000ADF8040045F24C50FFF7E6FF00F091F83F
:1031C00008B1FEF7B6F8642084E038B5054684B04F
:1031D0000C461046FFF7D8FFADF80C007020DFF862
:1031E00028154543481903A902230091019305229C
:1031F000029222460189C068FFF7F3F808B1FEF792
:1032000098F805B030BD7FB53CE02DE9F843804625
:103210009146DFF8F86484B00C4642467020356869
:10322000DFF8E41442438F183068401B652807D24A
:1032300043F6FF714046FFF7E6FFADF80C0001E0F2
:10324000FEF777F87888C0F340200028ECD140469C
:10325000FFF7ABFF4846FFF797FFADF80C000221E0
:103260000520019103AA029000923989F86802238F
:103270002246FFF7B6F808B1FEF75BF805B0BDE8E7
:10328000F0837FB50524022503AE0A46029401951A
:1032900000967021DFF870344843184402230189F6
:1032A000C068FFF75EF908B1FEF743F8BDF80C00FF
:1032B000FFF76AFF04B070BD1CB500F00EF8ADF862
:1032C00004000620FFF760FF00F00BF808B1FEF7DE
:1032D00030F8C82000F0F2FE13BD044643F20500AA
:1032E00052E7ADF806007020DFF81C1444430819BB
:1032F0000522009204230189C06801AAFEF7ECBFF1
:10330000742076212DE9F04DDFF8FC4374227623FA
:103310002DED048B208194B004F17800002501800C
:103320009FED718A04F1E801DFED708A0A809FED5C
:10333000DC9A04F5AC7243F201081380DFF8D03355
:103340004360E360DFF8CC0348605060E8B2FFF709
:10335000B3FF4146E8B2FFF756FFE8B27021484399
:1033600026184FF6F97031880FF2B43701403180DA
:10337000112262F30811318041463288E8B2FFF72A
:1033800024FF4FF0000A00BFE3A030F81AB000227B
:103390005946E8B2FFF739FF37F81A205946E8B224
:1033A000FFF733FF0AF1010ABAF1030FEBD34146ED
:1033B000E8B2FFF728FF3080414640F00600308039
:1033C000E8B23288FFF701FF002707F510510C31F2
:1033D00089B2E8B2FFF755FF2DF817007F1C252FA3
:1033E000F3D3BDF90200BDF9001000F091F886EDAD
:1033F000040ABDF90600BDF9041001EB004100EE1E
:10340000101ABAEEC60A86ED050ABDF90A00BDF922
:10341000081000F06DF8DFEDB70A60EE200AC6ED87
:10342000060ABDF90E00BDF90C1000F071F886ED2A
:10343000070ABDF93200BDF9301000F059F8DFED90
:10344000AE0A60EE200AC6ED100ABDF93600BDF9DD
:10345000341000F05DF886ED110ABDF93A00BDF9AF
:10346000381000F045F8DFEDA50A60EE200AC6ED41
:10347000120ABDF93E00BDF93C1000F040F886ED9F
:10348000130ABDF94200BDF9401000F038F886ED8E
:10349000140A6D1CBDF9440000EE900AF8EEE00A33
:1034A00060EE880AC6ED150AEAB2BDF9461000EED4
:1034B000101AB8EEC00A20EE080A86ED160A4FF080
:1034C0007E51BDF9480000EE900AF8EEE00AC6ED24
:1034D000170A31660020032A70667FF637AF14B0F2
:1034E000BDEC048BBDE8F08D0000803A0000802D1B
:1034F00001EB004100EE101AB8EEC00A704701EB74
:10350000004100EE101AB8EEC00A20EE280A7047FB
:1035100001EB004100EE101AB8EEC00A20EE090AD5
:103520007047000070B52DED068B84B00546102263
:1035300000216846FEF706F8F3EE098AB0EE688AC5
:10354000002606F58041333189B22846FFF75BFE3D
:103550002DF81600761C082EF3D370206A49BDF9A9
:10356000042045430D44BDF90A00D5ED151AD5EDEB
:10357000042A0C21B2FBF1F100EE900A00EE101AC1
:10358000F8EEE00AB8EE400AB0EE602A00EE212A1A
:103590009FED5B1AC0EE021A61EE811A71EEE22A0B
:1035A00095ED052ABDF90020BDF90210BDF9060010
:1035B00082EE822AD5ED072A32EE229A95ED042A70
:1035C000D5ED062A31EEC22A62EE222A521ABDF940
:1035D000081095ED042A121ABDF90C0031EEC22A2A
:1035E000511802EE829A00EB5100D5ED0B2ABDF97D
:1035F0000E1095ED102A71EEE21A81EE822A411822
:1036000072EE288A01EE901AF8EE611AB2EE082ADC
:10361000D5ED162A81EE822A40EE220A82EE200A99
:1036200020EE010AD5ED120AD5ED181AB6EE001AF1
:1036300020EE811A61EE211AC0EE219A29EE090AC4
:1036400020EE090A60EE09AA0324BBEE09AA38EEAF
:103650000A0AD5ED140AB7EE001A00EE201A78EE29
:103660008A1A95ED130A01EE801A89EE810A00F09C
:1036700039FD30EE2A0A00F035FDDFED220A30EE8A
:10368000200A95ED191A641E30EE418ADFD185EDCE
:103690001A8A85ED1B9A04B0BDEC068B70BD000044
:1036A0000000803B2DE9F0410446184D2246702071
:1036B0002E68154942438F1843F6FF782868801B0F
:1036C00041F27171884205D241462046FFF79BFDC9
:1036D000788001E0FDF72DFEB878C107EED5B91C62
:1036E0004FF6FE700A8802400A8041462046BDE837
:1036F000F0416AE500008029F6FF7F37000080284E
:1037000000000049339388C3A0020020240C00402D
:1037100060010020B4010020F124F224F324000011
:10372000008712870C8700007021144A4843104418
:103730009FED100AD0ED1A0A114870EE600A90ED64
:10374000000A30EE200A30EE801A31EE201ADFED4A
:103750000A1A61EE211AFDEEE11A11EE901A8AB2F0
:10376000642A38BF0121074A89B2116080ED000A3E
:10377000704700BF000018423694D744A0020020D2
:1037800060040020342C0140DFF86C00006800F475
:10379000C060704710B5DFF86010B0F5007F0868B2
:1037A00000F4C0601DD1B0F5007F22D00A68DFF8B8
:1037B0004C30012060F34A220A6032201C68DFF896
:1037C00040204443B4FBF2F0401C00E0401E4A6934
:1037D000530501D50028F9D14869410509D50320D1
:1037E00010BDB0F5806F04D00A68022060F34A2251
:1037F0000A60002010BD0000007000400C00002096
:1038000040420F002DE9FC47050066D0DFF8AC769A
:10381000DFF8B866BC68D7F80C802878C10604F0D9
:103820000C0408F0030848D524B10C2C08BFB8F1EB
:10383000010F2CD13868810702D5A86900284CD027
:10384000396808074EBF396871680909286A01F0AC
:10385000F001814206D200F0F6FA00283DD100F0D6
:10386000E5F907E000F0E2F924B9286A00F0EBFA84
:10387000002832D100F08AFABA6800F076FADFF850
:103880004406006800F074FB010016D0C8E1A86986
:1038900028B3396841F00101396000F063FB8146CB
:1038A0003868810707D400F05DFBA0EB090003280E
:1038B000F6D30320B4E100F0B9F92878C10755D553
:1038C000082C04D00C2C08BFB8F1030F17D13868AE
:1038D00081034BD56868002848D10120A0E13868F1
:1038E0004008400000F0B7F9814638688107E4D508
:1038F00000F038FBA0EB09000328F6D3D9E768688D
:10390000B0F5803F04D1386840F48030386011E071
:10391000B0F5A02F386806D140F4802038603968AF
:1039200041F4803105E020F480303860396821F4BA
:1039300080213960686860B100F014FB8146386806
:10394000810313D400F00EFBA0EB09006528F6D329
:10395000AFE700F007FB81463868810306D500F029
:1039600001FBA0EB09006528F6D3A2E728788107C0
:1039700013D5042C04D00C2C08BFB8F1020F22D1AF
:103980003868410502D5E8680028A6D0786829691A
:1039900020F0F85040EA016078602878010742D5AD
:1039A0006869002870682FD040F00100706000F056
:1039B000D9FA80467068810735D400F0D3FA00F058
:1039C00031F9F7D375E7E86878B1396841F4807167
:1039D000396000F0C7FA804638684105D6D400F057
:1039E000C1FA00F01FF9F7D363E7386820F480705C
:1039F00000F031F9804638684105CED500F0B2FAC2
:103A000000F010F9F7D354E740084000706000F070
:103A1000A9FA80467068810705D500F0A3FA00F086
:103A200001F9F7D345E72878410767D5B86DC1009C
:103A30004FF000080AD4B86D40F08050B8654FF0E0
:103A40000108B86D00F0805000900098DFF8809475
:103A5000D9F80000C10513D4D9F8000040F48070F3
:103A6000C9F8000000F07EFA8246D9F80000C105CE
:103A700006D400F077FAA0EB0A000328F5D318E784
:103A8000A868012804D1306840F00100306010E0DF
:103A90000528306806D140F004003060316841F0FC
:103AA000010105E0400840003060316821F0040168
:103AB0003160A86841F2893960B100F053FA82465A
:103AC0003068810713D400F04DFAA0EB0A00484596
:103AD000F6D3EEE600F046FA82463068810706D556
:103AE00000F040FAA0EB0A004845F6D3E1E6B8F151
:103AF000000F03D0B86D20F08050B865A86A002888
:103B000000F08D80022876D1F868EA6A00F003019F
:103B1000914201BF00F0700110312A6BB1EB021F1E
:103B200020D16A6B00F4FE41B1EB022F1AD1A96BD0
:103B300007290CBF0021012100F400328A4211D173
:103B4000EA6B00F4C00101F500115208B1EB425FCD
:103B500008D1296C00F0C06000F100704908B0EB9A
:103B6000416F44D00C2C47D03868410101D43868EB
:103B7000C1003FF5B2AE00F06BF804463868810131
:103B800005D500F0EFF9001B0328F7D391E6F8689C
:103B9000DFF84013EA6A0840296B1043491E40EAE7
:103BA0000110EA6B696B520840EA0120296C521E31
:103BB000490840EA4250491E40EA4160A96B0909A0
:103BC00040EA4140F860386840F080703860F96839
:103BD00041F08071F96000F0C5F904463868810150
:103BE0001DD400F0BFF9001B0328F7D361E6386845
:103BF000810114D4E7E70C2C3FF46FAE00F028F8F5
:103C000004463868810105D500F0ACF9001B032893
:103C1000F7D34EE6F868DFF8C0120840F8600020DD
:103C2000BDE8F687A0EB080003287047386840F02D
:103C3000080038603968286A21F0F00101433960D2
:103C40007968E86921F47F4141EA00217960704791
:103C5000386820F08070386000F084B92DE9F041B8
:103C60000400884655D0DFF87462306800F0070021
:103C7000404502D200F06FF84BD12078DFF83C527B
:103C8000810706D5A068A96801F0F001814200F023
:103C900076F82078C1072AD56068032802D1296800
:103CA0008A0108E0022802D129688A0303E000287B
:103CB000296802D18A0702D42BE04A0529D5A968D0
:103CC000890840EA8100A86000F04CF90746A8681E
:103CD000616800F00C00B0EB810F08D000F042F9F1
:103CE000C01B41F289318842F1D3032031E02078B2
:103CF000810706D5A068A96801F0F001884200F0AC
:103D00003EF8306800F00700804504D200F023F848
:103D100001D001201DE02078410705D5AA68E068A0
:103D200022F4E0620243AA602178080706D5A96858
:103D3000206921F4605141EAC001A96000F026F831
:103D4000AA6800F012F8BDE8F0415E48006800F093
:103D50000FB9BDE8F0813168C90848EAC101316096
:103D6000306800F00700404570475D49C2F3031218
:103D7000895C534A01F01F01C8401060704704D2AB
:103D8000A96821F0F0010843A860704770B54B4A5C
:103D9000554B9068D6680025002110F00C0006F005
:103DA0000306524C03D00C2812D1012E1AD11568EB
:103DB0002E0704D4444D2E68C6F3032502E015688F
:103DC000C5F303154A4E56F8255048B9294624E054
:103DD000042808BF214620D008281ED119461CE01F
:103DE0000C281AD1D06800F00300022803D0032861
:103DF00008BF1D4600E02546D168D068D268C0F3F0
:103E000006204543C1F30210C2F34161401C491C26
:103E1000B5FBF0F04900B0FBF1F1084670BD284851
:103E2000304A006813683349C3F3022206E024488D
:103E30002C4A006813682F49C3F3C222895C01F041
:103E40001F01C84070477CB52B4E054630680024E2
:103E5000C10002D5FFF798FC0EE0306840F08050BA
:103E60003060316801F0805100910098FFF78CFCC0
:103E7000316821F080513160B0F5007F04D1802D90
:103E80000CD9A12D09D304E0802D88BF032405D8C7
:103E900001D1022402E0702D00D101240F480168F5
:103EA000C90844EAC1010160006800F00700A042AF
:103EB00001D0012076BD002076BD00000010024038
:103EC0000C000020080000209410024090100240D6
:103ED000007000408C809DF9FCFFEEFE0020024047
:103EE000204200080810024000127A000024F4006A
:103EF00040410008B44200085810024062F30F220B
:103F000062F31F42401810F0030308D0C91A1FD3F0
:103F1000DB0748BF00F8012D28BF20F8022D130051
:103F200030B414461546103928BF20E93C00FAD8B1
:103F3000490728BF20E90C0048BF40F8042D89003C
:103F400028BF20F8022D48BF00F8012D30BC704773
:103F5000C91818BF00F8012DCB0728BF00F8012DA4
:103F60007047000001484068704700BF0000002013
:103F700070B50E4E044630780025A0B14FF47A712A
:103F80000B4AB1FBF0F11068B0FBF1F0FDF7C9FD91
:103F900048B9102C07D2002221464FF0FF30FDF720
:103FA00097FDB46000E00125284670BD00000020A8
:103FB0000C000020D3BBD9B1B2F5803F5BD2022AFE
:103FC0001ED98C46B1FBF2F102FB11C31B0443EA7C
:103FD0001043B3FBF2FC02FB1C3380B240EA034304
:103FE000B3FBF2F002FB103240EA0C4000237047B2
:103FF000022A05D98446B0FBF2F002FB10C27047DA
:104000004AB105D100F0010249085FEA300070476B
:1040100000220023704700F075B80B000200002159
:1040200000207047F7D3002200237047904271EBC5
:10403000030CF2D370B5B1FA81F4B3FA83F52C1BFB
:10404000A340C4F1200532FA05F63343A2405FF0E5
:104050000046E64002E05B085FEA3202841A71EB38
:10406000030524BF204629467641F4D302000B0005
:104070003000002170BD70B5B1FA81F4B2FA82F55A
:10408000C4F120046419B4F12006DAD3B2405FF021
:104090000044F440002502E052085FEA3303C61AE8
:1040A00071EB020E24BF3046714664416D41F3D37B
:1040B00002000B002000290070BD000038B5044646
:1040C000FFF750FF14F1010F054602D004480178B4
:1040D0006418FFF747FF401BA042FAD331BD00BF71
:1040E00000000020B5EEC00AF1EE10FA02D4B1EEE5
:1040F000C00A70476FF0004C00EE10CAAFF30080AA
:1041000070470000704730B4002512E050F8042BCF
:10411000D30744BF4A44521E091F042942F8045BD6
:10412000FAD213468C0744BF15809B1CC90748BFB1
:104130001D7050F8041B0029E8D130BC7047000006
:10414000A0860100400D0300801A060000350C0017
:1041500040420F0080841E0000093D0000127A00DA
:104160000024F40000366E010048E801006CDC0217
:1041700010B5074979441831064C7C44163404E0E4
:104180000A68081D114488470146A142F8D110BDB4
:104190002C0000004C0000004EF68851CEF20001C9
:1041A000086840F470000860BFF34F8FBFF36F8F53
:1041B0004FF00170E1EE100A704700004BFFFFFF67
:1041C0005404000010000020000000003BC8FFFF66
:1041D00010000000D00000000000002000000000DF
:1041E000FEE7FEE7FEE7FEE7FEE770477047704731
:1041F00000F006B80148FCF78BB80000540200201C
:104200000248416802788A18426070470000002026
:104210000248016841F470010160704788ED00E0D8
:104220000000000000000000010203040607080966
:1042300000F00DF8002801D0FFF79AFFAFF30080DF
:104240000020AFF30080FCF797FD00F002F801209A
:10425000704700F001B800000746384600F002F849
:10426000FBE7000080B5AFF30080024A1100182080
:10427000ABBEFBE7260002000548014603B46846D2
:1042800080F30988AFF30080FFF786FFFFF7D0FFC8
:10429000A5EDF5FE0148804701480047114200089E
:1042A000794200080100000000000000100000003A
:1042B00000093D000000000001020304FFF7FEBFFB
:1042C000FFF7FEBFFFF7FEBFFFF7FEBFFFF7FEBF22
:1042D000FFF7FEBFFFF7FEBFFFF7FEBFFFF7FEBF12
:1042E000FFF7FEBFFFF7FEBFFFF7FEBFFFF7FEBF02
:1042F000FFF7FEBFFFF7FEBFFFF7FEBFFFF7FEBFF2
:10430000FFF7FEBFFFF7FEBFFFF7FEBFFFF7FEBFE1
:10431000FFF7FEBFFFF7FEBFFFF7FEBFFFF7FEBFD1
:10432000FFF7FEBFFFF7FEBFFFF7FEBFFFF7FEBFC1
:10433000FFF7FEBFFFF7FEBFFFF7FEBFFFF7FEBFB1
:10434000FFF7FEBFFFF7FEBFFFF7FEBFFFF7FEBFA1
:10435000FFF7FEBFFFF7FEBFFFF7FEBFFFF7FEBF91
:10436000FFF7FEBFFFF7FEBFFFF7FEBFFFF7FEBF81
:10437000FFF7FEBFFFF7FEBFFFF7FEBFFFF7FEBF71
:10438000FFF7FEBFFFF7FEBFFFF7FEBFFFF7FEBF61
:10439000FFF7FEBFFFF7FEBFFFF7FEBFFFF7FEBF51
:1043A000FFF7FEBFFFF7FEBFFFF7FEBFFFF7FEBF41
:1043B000FFF7FEBFFFF7FEBFFFF7FEBFFFF7FEBF31
:1043C000FFF7FEBFFFF7FEBFFFF7FEBFFFF7FEBF21
:1043D000FFF7FEBFFFF7FEBFFFF7FEBFFFF7FEBF11
:1043E000FFF7FEBFFFF7FEBFFFF7FEBFFFF7FEBF01
:0843F000FFF7FEBFFFF7FEBF5F
:040000050800427934
:00000001FF
