:020000040800F2
:10000000C00900200D560008595500085B5500082E
:100010005D5500085F5500086155000800000000AC
:100020000000000000000000000000006355000810
:100030006555000800000000675500086955000874
:1000400035560008395600083D560008415600084C
:1000500045560008495600084D56000851560008FC
:1000600055560008595600085D56000861560008AC
:1000700065560008695600086D560008715600085C
:1000800075560008795600087D560008815600080C
:1000900085560008895600088D56000891560008BC
:1000A00095560008995600089D560008A15600086C
:1000B000A5560008A95600086D550008AD56000861
:1000C000B1560008B5560008B9560008BD560008DC
:1000D000C1560008C5560008C9560008CD5600088C
:1000E000D1560008D5560008D9560008DD5600083C
:1000F000E1560008E5560008E9560008ED560008EC
:10010000F1560008F5560008F9560008FD5600089B
:100110000157000805570008095700080D57000847
:100120001157000815570008195700081D570008F7
:100130002157000825570008295700082D570008A7
:100140003157000835570008395700083D57000857
:100150004157000845570008495700084D57000807
:100160005157000855570008595700085D570008B7
:1001700061570008655700080000000000000000FB
:10018000695700086D57000838B5040001D10120F7
:1001900032BD00F029F818B900F0BAF900F08DFC72
:1001A000FFE702206870211D206800F0B5F90120EA
:1001B00028730121A970E87029716871A971E8712B
:1001C00029726872A972E8726970002032BD38B570
:1001D000040001D1012032BD00F006F818B900F08A
:1001E00097F900F00FFDDCE704F13C0568787047F3
:1001F00070B504462068C5680669B10714D5AA071A
:1002000012D56FF00201016101222277806910F09E
:10021000030F204602D000F0F6FC03E000F0F4FCEF
:1002200000F086F800202077700715D5690713D5F0
:1002300020686FF00402026102212177806910F4C6
:10024000407F204602D000F0DEFC03E000F0DCFC42
:1002500000F06EF800202077300715D5290713D558
:1002600020686FF00802026104212177C06910F054
:10027000030F204602D000F0C6FC03E000F0C4FCEF
:1002800000F056F800202077F00615D5E90613D5C2
:1002900020686FF01002026108212177C06910F414
:1002A000407F204602D000F0AEFC03E000F0ACFC42
:1002B00000F03EF80020207706F0010105F0010073
:1002C000014206D020686FF001010161204600F074
:1002D0009CFC300608D5290606D522686FF0800000
:1002E0001061204600F092FCF00508D5290606D5DD
:1002F00022686FF480701061204600F088FC700660
:1003000008D5690606D522686FF0400010612046C6
:1003100000F07EFCB0060AD5A90608D522686FF069
:10032000200010612046BDE8704000F072BC70BD36
:10033000204600F06FBC002084F83C00284670473F
:1003400070B500F07FF801D1022070BD012084F863
:100350003C0052B1042A19D0082A29D00C2A38D0DE
:10036000102A48D0142A57D068E0206800F02DF9F0
:100370002168886940F008008861886920F00400DD
:1003800088618A69306902438A6158E0206800F018
:100390005EF92068816941F400618161816921F41D
:1003A000806181618169326941EA0221816146E0AF
:1003B000206800F085F92168C86940F00800C8612C
:1003C000C86920F00400C861CA6930690243CA6183
:1003D00035E0206800F0ACF92068C16941F40061A3
:1003E000C161C16921F48061C161C169326941EAB9
:1003F0000221C16123E0206800F0C1F92168486D45
:1004000040F008004865486D20F0040048654A6DDA
:10041000306902434A6512E0206800F0DAF920688A
:10042000416D41F400614165416D21F48061416598
:10043000416D326941EA0221416500E00125FFF783
:100440007AFF70BD0446002594F83C0001280E4652
:10045000704770B5064606F13C050024287801284F
:1004600001D1022070BD0120287002226A70DFF8DD
:10047000C00332689368034093600868020018BFA5
:10048000102830D0202818BF30282CD0402826D063
:10049000502819D060281BD0702806D0B0F5805F96
:1004A00027D0B0F5005F07D022E000F02CF83068CC
:1004B000816841F0770105E000F025F83068816837
:1004C00041F48041816014E000F019F850210BE004
:1004D000CA684968306800F0D4F9602104E000F08F
:1004E0000EF8402100E00146306800F0DCF900E041
:1004F00001240120687000F00BF870BD0000CA688C
:1005000049683068AEE1CB684A6889683068D2E1F2
:1005100000212970204670472DE9F043D0F800C033
:10052000DFF81073DFF81033DFF81043DFF81053F3
:10053000DFF81063DFF810E3DFF81083DFF81093C3
:10054000B84218BFB0F1804F07D0484518BF4045AA
:1005500003D0704518BFB0420ED14A682CF0700C21
:1005600042EA0C0CB84218BFB0F1804F0CD048459D
:100570001CBF4045704507D0B04218BFA84203D009
:10058000A04218BF984204D1CA682CF4407C42EAC9
:100590000C0C4A692CF0800C42EA0C0CC0F800C02C
:1005A000B842D1F808C0C0F82CC00A68826218BFEF
:1005B000B04204D0A8421CBFA042984201D10969B0
:1005C000016301224261BDE8F0832DE9F041066A32
:1005D000026ADFF86082DFF86472DFF864C2DFF875
:1005E00064E252085200026226F0020644688569FD
:1005F000DFF860220B6815408A681D431643DFF858
:100600003832404518BF704504D060451CBFB84221
:1006100098420DD1CA6826F00806164326F0040653
:10062000404518BF704505D0604518BFB84201D09D
:10063000984205D14B698A6924F440741C431443E1
:1006400044608561496841630662BDE8F081F0B5A8
:10065000036A026A22F01002026223F02003446857
:1006600085697D4A0E6815408A6845EA062543EA91
:100670000213704E734AB04218BF904208D1CF683F
:1006800023F0800343EA0713B04223F040030AD06B
:1006900090421CBF6A4A904205D0684EB0421CBFCF
:1006A000654A904206D14E698A6924F44064164333
:1006B00044EA860444608561496881630362F0BD51
:1006C000F0B5046A026A634B22F48072026224F479
:1006D00000744568C6690A681E408B6844EA0324B2
:1006E0001643544B574A984218BF904208D1CF68DE
:1006F00024F4006444EA0724984224F480640AD075
:1007000090421CBF4E4A904205D04C4B98421CBFB1
:10071000494A904206D14B698A6925F440551343F2
:1007200045EA03154560C6614968C1630462F0BDCE
:1007300070B5036A026A22F48052026223F4005305
:100740004468C569444A00F06BF843EA0233B0429A
:100750001CBF3C4A904207D0394EB0421FBF374AB7
:100760009042354EB04204D14A6924F4804444EAB0
:1007700082144460C56149680164036270BD70B54C
:10078000046A026A354B22F48032026224F4003497
:100790004568466D0A681E4016438B68254A44EA40
:1007A000034490421CBF274B984207D0244A9042F2
:1007B0001FBF224B9842204A904204D14A6925F437
:1007C000803545EA022545604665496881650462D1
:1007D00070BD70B5036A026A22F48012026223F4CB
:1007E00000134468456D1E4A00F01AF843EA0253AC
:1007F000B0421CBF134A904207D0114EB0421FBFF7
:100800000E4A90420C4EB04204D14A6924F480242E
:1008100044EA8224446045654968C165036270BD4D
:100820000E68154045EA06258A68024E70470000AA
:100830008800FEFF002C01400048014000440140B8
:100840000040014000340140000C0040000800401E
:10085000000400408CFFFEFFFF8CFFFE8FFFFEFFB9
:10086000FF8FFFFE10B5036A046A64086400046227
:1008700023F00A03846924F0F00444EA021484613A
:1008800023E010B5036A046A24F01004046223F024
:10089000A003846924F4704444EA0234846143EA86
:1008A0000113036210BD826822F07002114341F00F
:1008B00007018160704710B5846824F47F442143A8
:1008C000114341EA0321816010BD1943016210BD4B
:1008D000DFF8000381B0816841F001018160816827
:1008E00001F0010100910099026842F0805202601B
:1008F000006800F080500090009801B0704710B57B
:10090000A8B000F023F900F09BF82068DFF8C812C7
:10091000884243D14FF4804206924FF08051012229
:1009200007920892249110220992072102220B9229
:100930000C920A914FF080720D9200F07EF808B18F
:1009400000F043FCDFF89402016841F400510160BB
:10095000026802F40052009200F036F9036803F0D6
:10096000010300930099026842F002020260F02144
:10097000006800F0020000900B2200F01FF94FF019
:10098000904001A900F024FC02200B21019002916B
:100990000022039201A9924800F01AFC28B010BD71
:1009A00038B5A8B0044614220021684600F016FDB0
:1009B00000F046F820688B49894C884D884215D153
:1009C0004022002106921A9100F037F808B100F099
:1009D000FCFB00F028F8C02100F037F8E86840F48C
:1009E0000010E860E86800F4001018E07E498842D2
:1009F00017D18022002106921B9100F01EF808B149
:100A000000F0E3FB00F00FF84FF4406100F01DF838
:100A1000E86840F48000E860E86800F48000009036
:100A2000009829B030BD286840F0020028601222EA
:100A3000296801F002010591704706A800F0D8BCB2
:100A40008822002106A800F0C9BC059800910192F7
:100A50000021029103220421049103926946204659
:100A600000F0B6BB10B586B000F070F821685F48A2
:100A7000814220D15948C16841F48041C160C168B8
:100A800001F4804100910099026842F0080202607E
:100A90001B21006800F008000090022200985448D2
:100AA00001910292002103910322052105910492F4
:100AB00001A900F08DFB06B010BD80B500684D4A5D
:100AC0004449904209D1886840F400608860886891
:100AD00000F400600090009801BD474A904212D196
:100AE000086840F0040008600022096801F0040171
:100AF0000091002100981E2000F036FFBDE8024062
:100B00001E2000F04FBF01BD10B586B000F01EF8EA
:100B100021683848814217D13048016841F01001FE
:100B200001604FF40071006800F010000090022294
:100B30000098324801910292002103910491012111
:100B4000059101A900F044FB06B010BD0446142233
:100B5000002101A800F042BC10B5A8B0FFF7F6FFD5
:100B6000FFF76EFF20682649884225D10122002127
:100B700006921491FFF761FF08B100F026FB1748B9
:100B8000416941F480414161416901F48041009132
:100B900000F01AF84FF4C061006800F00100009006
:100BA000022200F00BF8032207210591049201A90B
:100BB0004FF0904000F00CFB28B010BD0098019160
:100BC00002920021039170470099026842F00102ED
:100BD0000260704758100240000004504C10024060
:100BE0000004004800540040005800400038004015
:100BF000000C0048002C0140000800400010004894
:100C00000038014070477047704770477047704721
:100C10007047704770470EE002684368024408302E
:100C20005FEAC37C44BF4B445B1E52F804CB43F8DD
:100C300004CB091FF9D150F8041B0029ECD17047EF
:100C40002DE9F84199B000F0D7FE00F07EFA00F0EF
:100C5000B7FADFF88844DFF888542068DFF8846446
:100C600040F010002060216801F010010591059806
:100C7000216841F004012160226802F0040205921B
:100C80000598216841F001012160226802F001020B
:100C900005920598216841F002012160226802F066
:100CA000020205920598216841F0080121604FF485
:100CB000F861226802F00802059200220598284691
:100CC00000F075FB00224FF46061304600F06FFBCE
:100CD00001224FF480714FF0904000F068FB002239
:100CE0004FF4C0514FF0904000F061FB4FF4F861B9
:100CF00000F023FA284600F06BFA4FF46050002110
:100D00000090019102912846694600F061FA4FF483
:100D1000606100F012FA304600F05AFA4FF4C85100
:100D200000F00BFA4FF0904000F052FA0C22002134
:100D300006A800F053FB182200F043FADFF8A8538E
:100D4000DFF8A80328600021042068616960E96079
:100D5000012001216876296105F130060820002272
:100D60000721F060AA602A76E96185F82020AA624E
:100D7000EA6232707260002001226021706132727A
:100D80003161B261284600F069FE08B100F01DFA39
:100D90000020069006A9284601F01CF908B100F0D1
:100DA00014FAD349009106220192012102917F2277
:100DB000039204210491002205926946284600F01E
:100DC0002FFF08B100F001FACA4900910C2200F08F
:100DD000AFF908B100F0F9F9C7490091122200F00B
:100DE000A7F908B100F0F1F9C4490091182200F008
:100DF0009FF908B100F0E9F9C14900914FF4807200
:100E000000F096F908B100F0E0F9BE4900914FF406
:100E1000837200F08DF908B100F0D7F9BA4900915A
:100E20004FF4867200F084F908B100F0CEF905F5B0
:100E3000A877B64838607421B9600120F8600021B5
:100E4000DFF8CC8239617961B961F9613962C7F83B
:100E50000480384601F030F908B100F0B6F90021FD
:100E6000384601F08DFC08B100F0AFF90F2138468B
:100E700001F09BFC08B100F0A8F9A6487865742140
:100E8000F96501200021C7F8588038667966B9668F
:100E9000F9663967796705F5D277384601F00CF9BC
:100EA00008B100F092F90021384601F069FC08B160
:100EB00000F08BF90F21384601F077FC08B100F003
:100EC00084F94FF48271B1634FF4407192487063BA
:100ED00031640020F06370640021B1643165B16554
:100EE0004FF48020F0640721316600207065F065C2
:100EF00070660821B16605F1640001F081FC08B15B
:100F000000F063F905F1C800844901604FF4E13253
:100F100000230C2142608360C360036141618361EF
:100F2000C3610362436201F0DBFC08B100F04DF9DC
:100F30001022002115A800F051FA0C2200F041F90E
:100F40001C2200210EA800F049FA2C22002103A83F
:100F500000F044FA4F2105F5FC767148716030606D
:100F60000021316171614FF6FF701022F060802125
:100F7000B260B1613046FFF707F908B100F025F91A
:100F80004FF48057159715A93046FFF762FA08B15C
:100F900000F01BF93046FFF71AF908B100F015F917
:100FA00000200090019002906946304601F044FF15
:100FB00008B100F00AF90022109264210F91042276
:100FC0001292602000210E90119113910022149230
:100FD0000EA93046FFF7B4F908B100F0F6F800208A
:100FE0004FF40051039004900590069007900891EB
:100FF00009900A904FF000720C900D900B9203A98B
:10100000304601F059FF08B100F0DFF83046FFF735
:101010007BFD1022002103A800F0E0F90C2200F073
:10102000D0F84048F0644F211020706531650020F1
:101030004CF25031F0657066B16505F511752846C2
:10104000FFF7A2F808B100F0C0F8039703A92846FB
:10105000FFF7FFF908B100F0B8F800210091029104
:101060002846694601F0E8FE08B100F0AEF8142207
:10107000002101A800F0B2F9E06840F00800E0604B
:1010800040F21F32E068284C00F008000090002376
:101090000099ADF804204FF0FF31039102930493BF
:1010A00001A9204601F056FF206820F08000206052
:1010B000A1681E480140A160616821F07001616073
:1010C0000021A06820F08000A0606162206840F0EC
:1010D0000100206002F064F8FEE700004C100240BE
:1010E000000C0048000800483003002000000450B5
:1010F0000002B0250004002A0008302E00106032E3
:1011000000002143000052C701000080005400404D
:10111000821A70000058004000380040003801403A
:10112000002C014000080040000C0040F8BFFEFF0A
:1011300001926946284600F073BD0091012200210A
:101140000291039101926946704780B596B044229E
:10115000002105A800F042F900F032F84FF40070C9
:1011600002F094F908B100F030F801210B9100224F
:1011700060210D910C9201211091119102222821E0
:101180000F921291102005900722022113921491C0
:10119000159105A802F0B2F908B100F016F80F2079
:1011A00003210090019100220292039204920421F3
:1011B000684602F0CFFB08B100F007F817B000BD99
:1011C00014220021684600F009B972B6FEE700005B
:1011D0002DE9F84F4FF00009774A784B4FF00F0890
:1011E00005460E4638E0764CA54214BF0724062477
:1011F0008C4074493C4341F82C40C143D2F808C0AC
:10120000746801EA0C0CE40248BF40EA0C0CC2F816
:1012100008C0D2F80CC0746801EA0C0CA40248BFE4
:1012200040EA0C0CC2F80CC0D2F804C0746801EAA1
:101230000C0CA40348BF40EA0C0CC2F804C0D2F85E
:1012400000C001EA0C0C7168C90348BF40EA0C0CED
:10125000C2F800C009F10109316831FA09F000F063
:10126000A480012404FA09F414EA0100F2D04FEA40
:10127000490C032101FA0CF16FEA010E7168E44395
:1012800001F00307012F1CBF01F00301022910D157
:10129000A968F7680EEA010107FA0CF73943A9605B
:1012A00069687768C7F30017214007FA09F73943DF
:1012B0006960716801F00307032F07D1EF6AC1F37A
:1012C000C0013C4001FA09F10C43EC624FEA89018C
:1012D000347904F00304032C1FD0EC68B7680EEADD
:1012E000040407FA0CF73C43EC60347904F003047F
:1012F000022C12D14FEAD90405EB840401F01C073B
:10130000D4F820A008FA07FB2AEA0B0AD6F810B096
:101310000BFA07F747EA0A0727622C680EEA040768
:10132000347904F0030404FA0CF444EA070CC5F819
:1013300000C0746814F4403F8CD0D3F800C0214C36
:101340004CF0010CC3F800C04FEA990CD3F800E050
:101350000EF0010ECDF800E001F00C01DDF800E028
:1013600054F82C4008FA01F724EA0707B5F1904F2A
:1013700008BF002418D0144CA54208BF012413D084
:10138000124CA54208BF02240ED0114CA54208BF42
:10139000032409D00F4CA54208BF042404D00E4CEE
:1013A000A5427FF420AF052422E7BDE8F18F0AB102
:1013B0008161704781627047000401406010024003
:1013C00000180048080001400004004800080048D8
:1013D000000C0048001000480014004810B50446F6
:1013E00010460A460146204602F004FC204610BD85
:1013F0002DE9FC47064600243068DFF81474010527
:10140000A04621D5706E70B1B0F5800F17D0B0F541
:10141000000F03D0B0F5400F09D013E03A6842F452
:1014200080323A6004E0002100F07CF9044654B9AF
:10143000F96F706E21F440010143F96704E000F098
:101440006BF9F3E70124A0463068C10421D5B06EE2
:10145000A8B1B0F1807F17D0B0F1007F03D0B0F118
:10146000407F04D013E0396841F4803139607CB9A1
:10147000F96FB06E21F040710143F96709E0002176
:1014800000F050F90446F2E700F046F9FAE70124CB
:10149000A046306881032BD5F86CC1004FF00009DD
:1014A0000AD4F86C40F08050F8644FF00109F86CF1
:1014B00000F0805000900098DFF82854286840F42D
:1014C0008070286002F0CAFB82462868C10500F1DE
:1014D000828002F0C3FBA0EB0A000328F5D30324AB
:1014E000A046B9F1000F03D0F86C20F08050F864EA
:1014F0003078C10705D5FA6FB06B920840EA8202D6
:10150000FA673178880705D5F96FF06B21F00C0187
:101510000143F9673178480705D5F96F306C21F040
:1015200030010143F9673178080705D5F96F706C10
:1015300021F0C0010143F9673178C80605D5F96F7C
:10154000B06C21F440710143F9673178880605D504
:10155000F96FF06C21F440610143F9673168880547
:1015600005D5F96FF06D21F440210143F967316829
:10157000480505D5F96F306E21F440110143F96734
:101580003178480605D5F96F306D21F4405101439B
:10159000F9673178080605D5F96F706D21F440417F
:1015A0000143F9673168C80505D5F96FB06D21F4BD
:1015B00040310143F9673168880446D5F96FF06E10
:1015C00021F040610143F967F06EB0F1006F34D152
:1015D00000F09DF839E0002C82D1DFF84443206808
:1015E00010F440701CBFD6F8841088420BD02068DD
:1015F000216841F48031216020F44070226822F497
:10160000803222602060C0070FD502F027FB05461C
:101610002068810709D402F021FB401B41F2893187
:101620008842F5D34FF003085BE72168D6F88400C1
:1016300021F440710143216053E7B0F1806F04D180
:1016400000F06FF8010018BF80463068010314D520
:10165000FA6F306F22F040620243FA67306FB0F1E8
:10166000006F02D100F053F807E0B0F1806F04D1B1
:1016700000F057F8010018BF80463068410314D5C8
:10168000FA6F706F22F040620243FA67706FB0F138
:10169000006F02D100F03BF807E0B0F1806F04D199
:1016A00000F03FF8010018BF80463068410418D5AB
:1016B000FA6FB06F22F040520243FA67B06FB0F198
:1016C000805F03D1022100F02DF807E0B0F1005F48
:1016D00007D1022106F1200000F09CF8010018BF9C
:1016E00080463068010405D5FA6FF06F22F0804221
:1016F0000243FA673168C80306D5F96FD6F880004F
:1017000021F000410143F9674046BDE8F68738689B
:1017100040F4801038607047002106F1200000F08E
:1017200079B80121301DFFE72DE9F04105467D4FD5
:1017300028680C46F968002611F0030F0DD0F968EF
:1017400001F00301814231D180B3F8686968C0F3C8
:101750000210401C88420ED028E0012804D025D376
:1017600003281DD018D321E03A6891071ED5FA68E6
:10177000696800F0C9F8386820F0806000F0CCF8A3
:1017800080463868010113D502F068FAA0EB080022
:101790000328F6D3032637E039684A05E7D405E085
:1017A00039688A03E3D439684A03E0D401262BE080
:1017B000A9682CB93A695C48EB6800F095F80FE02D
:1017C000012C3A6909D12B69584802405B0842EA6A
:1017D00001215B1E41EA435102E06B6900F08BF886
:1017E0003961386840F0806000F096F80446386847
:1017F000010105D402F032FA001B0328F7D3C9E730
:101800003869A969084338613046BDE8F0810000B5
:101810000C1002402DE9F0410646424F30680C465C
:10182000F968002511F0030F0DD0F96801F00301EC
:10183000814231D180B3F8687168C0F30210401C56
:1018400088420ED028E0012804D025D303281DD0DB
:1018500018D321E03A6891071ED5FA68716800F044
:1018600053F8386820F0805000F056F88046386809
:10187000810013D502F0F2F9A0EB08000328F6D39B
:1018800003252BE039684A05E7D405E039688A0367
:10189000E3D439684A03E0D401251FE0B1687A69CE
:1018A000002C04D12048F36800F01EF802E03369F0
:1018B00000F021F87961386840F0805000F02CF891
:1018C00004463868810005D402F0C8F9001B0328DB
:1018D000F7D3D5E778697169084378612846BDE890
:1018E000F081000000700040024042EA01211B0923
:1018F00041EA434170470E4802405B0842EA012139
:101900005B1E41EA4361704722F073021043491E97
:1019100040EA0110F8607047386002F09FB900009B
:101920009010024000100240FF80FDFFFF809FFFEB
:10193000FF80FFF90901020002D428488154704752
:10194000274B02F00F021A4402F8041C7047254B83
:1019500019684FF6FF020002114000F4E0600843EE
:10196000214908431860704770B51E4B1C68C4F3CA
:1019700002230124C3F10705052D2EBF0F2504FA0C
:1019800005F56D1E1E1D072E34BF0023DB1E2940EA
:10199000994004FA03F3BDE870405B1E1A401143FE
:1019A000C8E70000010007D4012200F01F010F4B1F
:1019B0008A40400943F820207047401EB0F1807FE4
:1019C00001D3012070470A490A4A48600023F020E9
:1019D00010708B60072008600020704700E400E072
:1019E00018ED00E00CED00E00000FA0500E100E079
:1019F00010E000E023ED00E0032010B5FFF7A7FFA3
:101A00000F2002F031F90024002814BF0124FEF752
:101A10005FFF204610BD0000603000EB81000068D1
:101A200000F0F8407047603000EB8100016821F061
:101A300000410A4302607047CB0D10B5143003F02B
:101A400004031818090D01F01F01036807248C40D6
:101A5000A34302FA01F11943016010BDF8B5044631
:101A60000020002500900CB90120F2BD04F15006C1
:101A7000706828B92046FEF742FF0020B060307041
:101A800021688868800004D58A68DFF86C0102400C
:101A90008A6021688868C00012D48A68DFF85C0117
:101AA000024042F080528A60DFF85411DFF854217E
:101AB0000868B0FBF2F2521C5200009200F069FA82
:101AC00020688168C90008D4726842F01002726010
:101AD0000125B16841F00101B160836871689B081C
:101AE000CA0600D4D90700F18080726822F480729F
:101AF00042F0020272608068C00714D4DFF8081157
:101B0000DFF8082108681168DFF804713A680843B3
:101B10001043C00707D4DFF8FC100A68606822F49D
:101B20007C1202430A6004F13002607E5768E1686B
:101B300094F820C047EA4037A0680F430743BCF140
:101B4000010F47EA0C4703D1606A401E47EA40474D
:101B5000A06A20B100F470700743E06A074321686F
:101B6000DFF8B400D1F80CC000EA0C000743CF60E6
:101B7000DB072168886824D4000722D4CB68DFF80B
:101B80009C00277E0340107843EA873343EA4003F2
:101B9000CB60107A01280FD123681F69D1681069C2
:101BA0006FF38A070F435169074390690F43074357
:101BB00047F001071F6104E02068016949084900F6
:101BC0000161206901282068016B05D1E2690909DA
:101BD000521E42EA011101E00909090101630120D5
:101BE000716860F30101716004E0706840F01000FA
:101BF000706001252846F2BDC0FFFF5FC0FFFF7F78
:101C00000C000020400D030008000450080104509F
:101C1000080204500803045007C0F0FFFDBFFFFF97
:101C2000F8B50646002006F150050F460090002446
:101C30002978012901D10220F2BD012028703068E5
:101C40008168490700F17F817968062910D2891ED1
:101C500003290CD8DFE801F0020406080C2107E094
:101C6000122105E0182103E04FF4807100E0062105
:101C70008B09303003F00C033A68181801F01F018B
:101C8000D0F800C01F238B40C2F384622CEA030308
:101C900002FA01F1194301603068826881685207D5
:101CA00021D409071FD4BA683968FFF7C5FE306828
:101CB000C1683A69042A17D060303B6800EB820C97
:101CC000DFF8E402DCF80020024003F0F84313439D
:101CD000C9087A69480000F006008240134343F0C7
:101CE0000043CCF8003076E00021FFF795FE40037A
:101CF0003068214604D1FFF78FFEC0F3846003E013
:101D0000FFF78AFE00F034F939684A030EBFC1F3C9
:101D1000846191FAA1F1B1FA81F1884204D130686D
:101D200000220021FFF77FFE00F02FF9400304D1CD
:101D300000F02BF9C0F3846003E000F026F900F016
:101D400017F939684A030EBFC1F3846191FAA1F112
:101D5000B1FA81F1884204D1306800220121FFF7F5
:101D600062FE00F00EF9400304D100F00AF9C0F35E
:101D7000846003E000F005F900F0FAF839684A03DE
:101D80000EBFC1F3846191FAA1F1B1FA81F18842E9
:101D900004D1306800220221FFF745FE00F0EDF883
:101DA000400304D100F0E9F8C0F3846003E000F0E0
:101DB000E4F800F0DDF839684A030EBFC1F384612E
:101DC00091FAA1F1B1FA81F1884204D13068002280
:101DD0000321FFF728FE31688868C00763D4FA68DA
:101DE0003B68D1F8B0C0DFF8C4E102F01802C3F3D9
:101DF00012002EFA02F22CEA000013400343C1F84D
:101E0000B030F868DFF8A81188424CD13868410337
:101E10000EBFC0F3846290FAA0F1B1FA81F2521CB5
:101E2000012102F01F020A2A1BD2420306D1C0F38D
:101E30008462C0F38463C0F3846001E000F091F831
:101E4000521C5B1C920603F01F03401C02F0F84278
:101E5000994000F01F00114300EB400041EA00519F
:101E60001DE0420306D1C0F38463C0F38462C0F373
:101E7000846001E000F075F85B1C521C401C9B065E
:101E800002F01F0200F01F0003F0F84391400A38EF
:101E9000194300EB400041EA005141F00071BA687B
:101EA0003068FFF7C9FD3B68DFF8080103424FD0F7
:101EB000DFF80401DFF804C10168DFF8E870DFF83B
:101EC0000021634501F0E0711ED10B0240D433685C
:101ED000934218BFBB423BD100F03EF841F40001F1
:101EE0000160DFF8E000DFF8E0200168B1FBF2F20A
:101EF000521C0C2042430092009800281EBF0098FC
:101F0000401E0090F8D123E0DFF8C0E073450BD10C
:101F1000CB011DD43368934218BFBB4218D100F0E7
:101F20001BF841F080710CE0DFF8A470BB420FD1C8
:101F30004B020DD4366896420AD100F00DF841F4F8
:101F40008001016004E0686840F0200068600124BE
:101F5000002028702046F2BD026822F0E072114392
:101F6000704790FAA0F0B0FA80F21346104670471E
:101F700090FAA0F0B0FA80F0704730680321FFF7C4
:101F80004BBD30680221FFF747BD30680121FFF7E4
:101F900043BD02E00098401E009000980028F9D14F
:101FA000704700000002045000F0FF03FFFF07002D
:101FB00000007F400000088008030450000052C762
:101FC000000004500C000020400D0300000084CBF2
:101FD000010000802DE9F04100F1500499B0237810
:101FE0000022012B08BF022052D0012525700026B7
:101FF0001596002516950368294DAB422CD1294F23
:10200000DFF8A4E03B68DEF800506D073AD45B07C8
:1020100038D40B68254DDFF898C0264E0BB3D6F8A0
:1020200000804B6890F8300028F4604843EA0803C9
:1020300043EA4038C6F80080DEF800003B68DCF870
:10204000007018433843C3071FD43768086889688D
:102050003D4005430D4313E000F01DF822700120C0
:1020600016E0306820F460403060DEF80000396827
:10207000DCF8003008431843C00706D431680D402F
:10208000356002E000F007F80122002020701046C1
:1020900019B0BDE8F081606840F0200060607047D2
:1020A000000004500801045008000450E0F0FFFF55
:1020B000080204500803045038B5040001D101207F
:1020C00032BD04F14005687820B90021297020460E
:1020D000FEF766FC00F044F86068216820F070604C
:1020E00008612068816821F400418160E06801286E
:1020F000A0680CBF40F4004040F4044021688860B0
:10210000E0680228206841680CBF41F4006121F4B6
:10211000006141602068416841F0007141F4004174
:1021200041602068C16821F40041C1606069216993
:10213000A2690143206841EA0221C160206AE16985
:102140002268014311602068016841F001010160CB
:10215000002068602021697020630021A97032BDD1
:1021600024206870206801684908490001607047B0
:102170002DE9F84300F06DF858D12178012955D0A8
:102180000120207001F06AFD00F00CF900284BD10D
:10219000212000F067F8708DDFF8A813B0F5807F7C
:1021A00003D335854FF0807304E0708D30854FF098
:1021B000007390B1706AD6F800C00278CCF828207D
:1021C000706A421C7262708D421E7285308D421E92
:1021D00032850091521CD2B204E00091002201E04D
:1021E00000F0F2F800F0D2F800F02DF817D000F06F
:1021F000E7F9002818D100F0ADF80028F4D089B232
:102200000029F1D100F0C6F870B900F09FF8E7D2CC
:10221000728D3285002000904FF00073DBE700F0F4
:10222000FCF900F0D8F802D0012000E00220BDE85F
:10223000F28300904FF00073D2B2704700904FF0DD
:102240008073FF227047708D00284A463946304619
:102250007047064606F140048846607820281546F7
:102260001F46704760701021A17000206060756289
:1022700077857063FF25089F70472DE9F84F00F0C0
:102280004FF960D10A9D002D1CBF0B9F002F03D179
:102290004FF40071616054E02078012853D001218F
:1022A000217001F0DBFC00F07DF8002849D12120ED
:1022B00000F03FF94FF0807300F064F80C994A4643
:1022C00000F05DF858B9BBF1010F02D000F051F8F1
:1022D00028B900F002F9802100F01FF910B10020A8
:1022E00020702EE0708DFF25B0F5807F05D300F0C3
:1022F0006BF800F04BF80C9F02E000F05DF8F8E797
:102300004A46394600F03BF800281AD100F022F87E
:1023100078B189B269B900F03DF8002811D100F018
:1023200015F802D300F050F801E000F045F800F095
:102330002DF8708D0028E3D100F0D9F800F04BF8AB
:1023400002D0012000E00220BDE8F28F708DB0F5D0
:10235000807F7047706A326801789162706A411CB0
:102360007162708D411E7185308D411E3185708D79
:10237000704731684FEA1A2088624A460C99304605
:1023800000F01EB96F4900915FFA8BF2414630466A
:1023900000F0DFB9CDF800903B46002280213046A6
:1023A00000F0E4B88146CDF80090192301224FF4E3
:1023B0000041304600F0DAB8728D3285002000907E
:1023C0004FF00073D2B270473585002000904FF077
:1023D0008073FF22704701000DD132682020D06148
:1023E0003268DFF86801536803405360202262704E
:1023F0000020A0702070080070472DE9F84F00F011
:102400008FF867D10A9D002D1CBF0B9F002F03D1B1
:102410004FF4007161605BE0207801285AD00121FF
:10242000217001F01BFCFFF7BDFF002850D12220D6
:1024300000F07FF80023FFF7A5FF0C994A46FFF74D
:102440009EFF58B9BBF1010F02D0FFF792FF28B9E8
:1024500000F043F8402100F060F810B10020207037
:1024600036E0718DDFF8E000FF25B1F5807F06D3FF
:102470003585FFF7E3FEFFF789FF0C9F04E0728DBF
:102480003285FFF7D6FEF6E7CDF800903B460022F6
:10249000042100F042F800281AD100F02DF878B19C
:1024A00089B269B9FFF776FF002811D1FFF74EFF17
:1024B00002D3FFF789FF01E0FFF77EFFFFF766FF1A
:1024C000708D0028E0D100F012F8FFF784FF02D0F1
:1024D000012000E00220BDE8F28F30685FFA8AFA3E
:1024E000C0F828A0CDF8009000220C9B70474A4607
:1024F0003946304600F091B83068416A706A017020
:10250000716A308D4A1C411E72623185708D421E87
:102510007285708D70474FF48031304600F026B8D8
:10252000064606F1400488466078202892469B467D
:10253000704760704021A1700020606075627785EF
:1025400070637047002000800024008000E800FED7
:10255000006881698A0744BF002181628169CA07D6
:1025600003D4816941F00101816170472DE9F04197
:10257000069F05460E4690461C46286881693140F4
:10258000B1420CBF01200020404517D114F1010FCA
:10259000F3D001F063FBC01B844201D3002CECD1CB
:1025A000286881693140B1420CBF012000204045BC
:1025B000E3D100F026F80120BDE8F0810020FBE720
:1025C00070B505460C46164628688169880716D4FA
:1025D00000F040F818B914F1010FF5D001E0012026
:1025E00070BD01F03BFB801B844201D3002CEBD17A
:1025F000286881698807E7D400F003F8EFE7002036
:1026000070BD05F140002022416841F02001416089
:102610004270002181700170704770B505460C460C
:10262000164628688169880612D400F013F808B1AC
:10263000012070BD01F012FB801B844201D3002CED
:10264000EFD1286881698806EBD4FFF7DAFFEFE75E
:10265000002070BD324621462846FFE72DE9F843A9
:10266000044600252068836900269046DA0604F1B6
:10267000400739D51023C36189462BE029002DD1AD
:1026800019F1010F26D001F0E9FAA0EB080081450D
:1026900002D3B9F1000F1DD120684168BA7883696F
:1026A0001B040AD5490408D4202A06D0416841F405
:1026B0008041416001F0D2FA804620688169880635
:1026C00008D401F0CBFAA0EB08001A28F5D346F0A5
:1026D00020060125206881698A06CFD50DB9202101
:1026E000C16146F00406012520688169CA0505D547
:1026F0004FF4807346F00106C3610125480506D5F5
:1027000020684FF4806246F00806C2610125880502
:1027100007D520684FF4007146F00206C16101251B
:1027200001E028000CD02046FFF712FF00F00BF864
:10273000202079680E437E6078700021B97039706E
:102740002846BDE8F28321680B484A6802404A6087
:10275000704770B50068049C4568084EC1F30901D4
:1027600041EA0241194346EA54562143B54321F058
:1027700000412943416070BD00E800FEFF63FF0394
:1027800030B500F140025378202B0CD11478012C85
:1027900009D000F01DF824F480541C6003681D6803
:1027A0002943196020E0022030BD30B500F140021D
:1027B0005378202B0AD11478012C07D000F008F8A8
:1027C00024F4706444EA01241C600DE0022030BD52
:1027D000012313702424547003681D686D086D0074
:1027E0001D6003681C6870470068016841F00101C2
:1027F00001602020507000211170002030BD0000C9
:1028000038B5040001D1012032BD606A30B960687A
:10281000B0F5827F05D00021E16102E00020206157
:1028200060610020A06204F15C05687820B9002195
:1028300029702046FEF716F90220687000F04AF869
:10284000E168B1F5E06F04D90020B1F5706F03D1F4
:1028500004E04FF4805001D00021A1626168A268B9
:10286000237C01F4827102F404421143227D03F0BF
:1028700002031943A36902F001021143227F03F40A
:102880000073194394F8203002F038021143A26A11
:1028900003F080031943236802F4005211431960C6
:1028A000A16994F8242094F83430090C01F0040153
:1028B00002F010021143E26803F00803194302F426
:1028C000706211430843216848600020686001215C
:1028D000697032BD2068016821F0400101607047D5
:1028E00038B5040001D1012032BD04F178056868D3
:1028F00008B900F017F800F01AF808B100F031F844
:1029000000F02CF8012804D000F004F821F02A018E
:1029100016E032BD2068416821F490414160206892
:1029200081687047002129702046FEF715B92420E0
:10293000686020680168490849000160606A704762
:10294000816000F004F8BDE8324000F098B92068DA
:10295000016841F00101016020467047204600F007
:1029600019B8204600F028B9284600F0D5B92868E3
:1029700000F1080151E8001F490800F1080349006F
:1029800043E8001000287047286850E8001F0246FE
:1029900070470000F8B50446DFF878042268136831
:1029A000A168034020690B4361690343E0690B435D
:1029B0000343136000255168E06821F4405101434E
:1029C0005160A369DFF848148A421CBF206A0343A0
:1029D0009668DFF84474DFF8440426F43066334325
:1029E0009360BA424FF40043DFF8346432D1366862
:1029F00006F00306032E3BD8DFE806F0027161847F
:102A00000127E169B1F5004F4FF6F07640F0AB8059
:102A10005FB1012F00F09F80022F0AD0042F00F039
:102A20009D80082F00F09D80BFE001F074F8002821
:102A30000FD061684A0802EB4002B2FBF1F0A0F14E
:102A40001001B142F0D20640C0F3420006432068B4
:102A5000C660ABE0DFF8CC73BA4221D1366816F01D
:102A60000C0660D0042E3AD0082E28D00C2E49D067
:102A700010278A42C5D137B1022F08D0042F54D075
:102A8000082F55D091E001F046F80028E1D06268A7
:102A900002EB4201884202D3130383424AD284E00C
:102AA000DFF88473BA420CD1366816F030063AD09B
:102AB000102E14D0202E02D0302E23D0D8E702279B
:102AC000D7E7DFF86873BA420BD1366816F0C00654
:102AD00029D0402E03D0802EF1D0C02EEDE7042760
:102AE000C7E7DFF84C73BA420ED1366816F4407669
:102AF00019D0B6F5807FF2D0B6F5007FDFD0B6F5FD
:102B0000407FB5D10827B4E78A42B1D1366816F4C0
:102B1000406608D0B6F5806FE1D0B6F5006FCED034
:102B2000B6F5406FC9E70027A3E700F0ABFFACE7BD
:102B30001846ACE7010E560816EB00206941002349
:102B400001F0B4F8A0F54071DFF8E82291422CD2F0
:102B50002168C8602AE000F0E6FF68E700F092FF15
:102B600065E7184665E747B1012F16D0022F07D059
:102B7000042F15D0082F16D017E000F0CCFFA8B115
:102B8000616800EB5100B0FBF1F0A0F11001B1421F
:102B90000BD2226880B2D06008E000F0C4FFEEE7FC
:102BA00000F070FFEBE71846EAE701250020A06679
:102BB000E0662846F2BD000090F824100A0706D50A
:102BC00002685368416B23F400430B43536090F851
:102BD0002410CA0706D502685368816A23F40033BB
:102BE0000B43536090F824108A0706D50268536897
:102BF000C16A23F480330B43536090F824104A07D2
:102C000006D502685368016B23F480230B4353609D
:102C100090F82410CA0606D502689368816B23F4E5
:102C200080530B43936090F824108A0606D50268FF
:102C30009368C16B23F400530B43936090F8241006
:102C40004A0610D502685368016C23F480130B43C5
:102C50005360036CB3F5801F05D15368416C23F4B6
:102C6000C0030B43536090F824100A0606D5016890
:102C70004A68806C22F4002202434A607047F8B52B
:102C8000054605F178040020E0606FF07E4700F013
:102C9000E5FF0646286801680A0711D50097334604
:102CA00000224FF40011FFF75FFE48B1FFF76CFE02
:102CB00021F0800100F02CF8F8D12020606017E0AE
:102CC000286801684A0717D50097334600224FF459
:102CD0008001FFF749FE78B1FFF756FE21F49071AD
:102CE00000F016F8F8D1FFF742FEFCD12020A060DA
:102CF000002121700320F2BD202060602021A1600E
:102D000000202866002169662070F2BD21F4F07170
:102D100042E80010002870472DE9F041069C054666
:102D20000E4690461F462868C1693140B1420CBF2B
:102D300001200020404533D114F1010FF3D000F001
:102D40008DFFC01B844200D314B90320BDE8F0817D
:102D5000286801684A07E6D5C169080704D42968CC
:102D6000C8690105DFD50DE02A68082010622846F1
:102D700000F018F805F178000821C1600022027007
:102D80000120E3E729684FF400600862284600F05C
:102D900009F805F178002021C16000220270D4E713
:102DA0000020D3E710B500F00EF8FCD100F015F8C4
:102DB000FCD1016E00F01EF82021C0F88010002226
:102DC0000266826610BD016851E8002F0B4622F4AE
:102DD000907243E8002100297047016801F1080260
:102DE00052E8002F520801F10804520044E8002183
:102DF00000297047012909D1026852E8002F0368B1
:102E000022F0100243E800210029F5D170470000AC
:102E100000800040F369FFEF003801400024F40017
:102E2000881002400044004000480040004C004030
:102E30000050004000FD0F00F0B500F13C04227886
:102E4000012A01D10220F0BD012222700223637009
:102E50000668DFF860E07768B568DFF8ECC07645B3
:102E600018BF664503D14B6827F470071F430A68F3
:102E700027F07007174377600268724518BFB2F1F8
:102E8000804F0CD02E4882421CBF304B9A4206D055
:102E90002A4882421EBF62452D4B9A4204D188685F
:102EA00025F08005054395600121617000202070A8
:102EB000F0BD0000002C014030B590F83C20012A04
:102EC00001D1022030BD012280F83C20CC688B6803
:102ED0004A6824F440741C4324F4806414430B684F
:102EE0000A6924F400641C4324F4805414434B699D
:102EF0008A6A24F400541C4324F4804414438B69EC
:102F0000104A24F4702444EA0344036893421CBF2B
:102F10000D4DAB420CD14A6A24F4700444EA0254C9
:102F2000CA69096A24F08074144324F000740C43C5
:102F30005C64002280F83C20002030BD000C004082
:102F400000040040002C0140003401400008004013
:102F5000004001402DE9F043D0F800C0DFF8A07038
:102F6000DFF8B830DFF8B040DFF8A850DFF8A06035
:102F7000DFF898E0DFF89080DFF88890B84218BF5B
:102F8000B0F1804F07D0484518BF404503D0704589
:102F900018BFB0420ED14A682CF0700C42EA0C0CFB
:102FA000B84218BFB0F1804F0CD048451CBF404517
:102FB000704507D0B04218BFA84203D0A04218BF46
:102FC000984204D1CA682CF4407C42EA0C0CC0F848
:102FD00000C0B8428A68C2620A88826218BFB042E2
:102FE00004D0A8421CBFA042984201D109690163E4
:102FF000416941F0010141610020BDE8F08300001A
:10300000002C01400004004000080040000C00407B
:1030100000340140004001400044014000480140AC
:1030200081B000B2ADF800009DF800109DF80120BD
:103030008DF800208DF80110BDF9000080B201B0BC
:1030400070471CB500F098F8ADF8040045F24C50FC
:10305000FFF7E6FF00F094F808B1FEF7B6F8642039
:1030600087E038B5054684B00C461046FFF7D8FF18
:10307000ADF80C00C820DFF8A8134543481903A990
:103080000223009101930522029222460189D0F881
:10309000C000FFF7F2F808B1FEF797F805B030BDB1
:1030A0007FB53EE02DE9F84380469146DB4E84B083
:1030B0000C464246C8203568D94942438F183068CB
:1030C000401B65280AD243F6FF714046FFF7E8FF30
:1030D000ADF80C00FFF7A4FF788001E0FEF775F86B
:1030E0007888C0F340200028E9D14046FFF7A9FFC7
:1030F0004846FFF795FFADF80C000221052001912D
:1031000003AA029000923989D7F8C0000223224610
:10311000FFF7B3F808B1FEF758F805B0BDE8F08343
:103120007FB50524022503AE0A4602940195009658
:10313000C821BB4B4843184402230189D0F8C00082
:10314000FFF75BF908B1FEF740F8BDF80C00FFF798
:1031500067FF04B070BD1CB500F00EF8ADF80400B8
:103160000620FFF75DFF00F00BF808B1FEF72DF821
:10317000C82000F01FFE13BD044643F205004FE7D0
:10318000ADF80600C820A64944430819052200925C
:1031900004230189D0F8C00001AAFEF7E9BF0000AE
:1031A000742076212DE9F84DDFF874A2AAF8080002
:1031B0000AF1C0007422018276230AF5C47193B02B
:1031C0000A8200260AF5147243F201081382954B15
:1031D00003600B6094481060CAF81803F0B2FFF760
:1031E000BAFF4146F0B2FFF75BFFF0B2C821484397
:1031F0000AEB00074FF6F970398800BF9EA4014022
:103200003980112262F30811398041463A88F0B2C0
:10321000FFF727FF002500BF95A030F815B000226A
:103220005946F0B2FFF73EFF34F815205946F0B288
:10323000FFF738FF6D1C032DEDD34146F0B2FFF7C9
:103240002FFF3880414640F006003880F0B23A88BF
:10325000FFF707FF002404F510510C3189B2F0B2DA
:10326000FFF75EFF2DF81400641C252CF3D3BDF985
:103270000220BDF9000000EB024000F0AFFD00F0BD
:10328000BBF800F0C1F8C7E90401BDF90600BDF9BB
:10329000041000F09DF804460D469FED641B00F0FD
:1032A000B9F800F0B1F8C7E90601BDF90A00BDF9A7
:1032B000081000F08DF804460D469FED5E1B00F0EF
:1032C000A9F800F0A1F8C7E90801BDF90E00BDF9A1
:1032D0000C1000F07DF800F08FF800F095F8C7E9C9
:1032E0000A01BDF93200BDF9301000F071F8044652
:1032F0000D469FED521B00F08DF800F085F8C7E9F0
:103300001C01BDF93600BDF9341000F061F800F081
:1033100073F800F079F8C7E91E01BDF93A00BDF96C
:10332000381000F055F804460D469FED461B00F09E
:1033300071F851EC100B22462B46803700F060FDEF
:10334000C7E90001BDF93E00BDF93C1000F040F8AE
:1033500000F04AF800F058F8C7E90201BDF9420050
:10336000BDF9401000F034F800F03EF800F04CF8E1
:10337000C7E90401BDF9440000F030FD00F02CF86D
:1033800000F042F8C7E90601761CBDF9460000F0DE
:1033900025FD00F021F800F037F8C7E90801F4B284
:1033A000BDF9480000EE100AB8EEC00A10EE100A8F
:1033B00000F0FCFDC7E90A0100222A4BC7E90C23F3
:1033C000C7E90E22032C7FF609AF14B0BDE8F08DDB
:1033D00001EB004000F002BD04460D469FED1B1BB3
:1033E0009FED210B00F009BE04460D469FED191B11
:1033F0009FED1D0B00F001BE04460D469FED171B0F
:103400009FED190B00F0F9BD51EC100B22462B4635
:1034100000F0F6BC9FED140B00F0EFBD240C004053
:103420001000002080040020D404002000000000D0
:10343000000034C000000000000046C00000000092
:10344000000030C000000000000047C00000000085
:10345000000024C000000000000042C00000000086
:10346000000020C00000F03F00000000000000400D
:10347000F124F224F3240000008712870C87000057
:10348000DFF86C00006800F4C060704710B5DFF82A
:103490006010B0F5007F086800F4C0601DD1B0F581
:1034A000007F22D00A68DFF84C30012060F34A2206
:1034B0000A6032201C68DFF840204443B4FBF2F07D
:1034C000401C00E0401E4A69530501D50028F9D18F
:1034D0004869410509D5032010BDB0F5806F04D0BF
:1034E0000A68022060F34A220A60002010BD000032
:1034F000007000400C00002040420F002DE9FC4706
:10350000050066D0DFF8AC76DFF8B866BC68D7F89F
:103510000C802878C10604F00C0408F0030848D594
:1035200024B10C2C08BFB8F1010F2CD138688107E9
:1035300002D5A86900284CD0396808074EBF396801
:1035400071680909286A01F0F001814206D200F091
:10355000F6FA00283DD100F0E5F907E000F0E2F9C5
:1035600024B9286A00F0EBFA002832D100F08AFA78
:10357000BA6800F076FADFF84406006800F074FBE1
:10358000010016D0C8E1A86928B3396841F00101EB
:10359000396000F063FB81463868810707D400F08A
:1035A0005DFBA0EB09000328F6D30320B4E100F093
:1035B000B9F92878C10755D5082C04D00C2C08BFC0
:1035C000B8F1030F17D1386881034BD5686800281C
:1035D00048D10120A0E138684008400000F0B7F968
:1035E000814638688107E4D500F038FBA0EB09007C
:1035F0000328F6D3D9E76868B0F5803F04D138686E
:1036000040F48030386011E0B0F5A02F386806D162
:1036100040F480203860396841F4803105E020F4BE
:1036200080303860396821F480213960686860B181
:1036300000F014FB81463868810313D400F00EFBC0
:10364000A0EB09006528F6D3AFE700F007FB814641
:103650003868810306D500F001FBA0EB090065285E
:10366000F6D3A2E72878810713D5042C04D00C2CBC
:1036700008BFB8F1020F22D13868410502D5E868C9
:103680000028A6D07868296920F0F85040EA016047
:1036900078602878010742D56869002870682FD0C3
:1036A00040F00100706000F0D9FA80467068810730
:1036B00035D400F0D3FA00F031F9F7D375E7E868B4
:1036C00078B1396841F48071396000F0C7FA8046FA
:1036D00038684105D6D400F0C1FA00F01FF9F7D3DD
:1036E00063E7386820F4807000F031F9804638686C
:1036F0004105CED500F0B2FA00F010F9F7D354E747
:1037000040084000706000F0A9FA804670688107A8
:1037100005D500F0A3FA00F001F9F7D345E72878C2
:10372000410767D5B86DC1004FF000080AD4B86DE5
:1037300040F08050B8654FF00108B86D00F080503F
:1037400000900098DFF88094D9F80000C10513D4E8
:10375000D9F8000040F48070C9F8000000F07EFA4B
:103760008246D9F80000C10506D400F077FAA0EB34
:103770000A000328F5D318E7A868012804D13068A7
:1037800040F00100306010E00528306806D140F0BC
:1037900004003060316841F0010105E0400840005C
:1037A0003060316821F004013160A86841F2893944
:1037B00060B100F053FA82463068810713D400F0FC
:1037C0004DFAA0EB0A004845F6D3EEE600F046FAC3
:1037D00082463068810706D500F040FAA0EB0A0067
:1037E0004845F6D3E1E6B8F1000F03D0B86D20F0FC
:1037F0008050B865A86A002800F08D80022876D134
:10380000F868EA6A00F00301914201BF00F070011C
:1038100010312A6BB1EB021F20D16A6B00F4FE411C
:10382000B1EB022F1AD1A96B07290CBF002101218E
:1038300000F400328A4211D1EA6B00F4C00101F5B4
:1038400000115208B1EB425F08D1296C00F0C06052
:1038500000F100704908B0EB416F44D00C2C47D008
:103860003868410101D43868C1003FF5B2AE00F0BC
:103870006BF804463868810105D500F0EFF9001BAC
:103880000328F7D391E6F868DFF84013EA6A0840A6
:10389000296B1043491E40EA0110EA6B696B52081C
:1038A00040EA0120296C521E490840EA4250491E54
:1038B00040EA4160A96B090940EA4140F860386874
:1038C00040F080703860F96841F08071F96000F074
:1038D000C5F90446386881011DD400F0BFF9001B0A
:1038E0000328F7D361E63868810114D4E7E70C2C8C
:1038F0003FF46FAE00F028F804463868810105D522
:1039000000F0ACF9001B0328F7D34EE6F868DFF8A7
:10391000C0120840F8600020BDE8F687A0EB080060
:1039200003287047386840F0080038603968286A12
:1039300021F0F001014339607968E86921F47F41A1
:1039400041EA002179607047386820F08070386063
:1039500000F084B92DE9F0410400884655D0DFF825
:103960007462306800F00700404502D200F06FF842
:103970004BD12078DFF83C52810706D5A068A968B2
:1039800001F0F001814200F076F82078C1072AD5D5
:103990006068032802D129688A0108E0022802D160
:1039A00029688A0303E00028296802D18A0702D423
:1039B0002BE04A0529D5A968890840EA8100A8605A
:1039C00000F04CF90746A868616800F00C00B0EB05
:1039D000810F08D000F042F9C01B41F289318842C2
:1039E000F1D3032031E02078810706D5A068A968CB
:1039F00001F0F001884200F03EF8306800F0070066
:103A0000804504D200F023F801D001201DE0207889
:103A1000410705D5AA68E06822F4E0620243AA6083
:103A20002178080706D5A968206921F4605141EA88
:103A3000C001A96000F026F8AA6800F012F8BDE8FD
:103A4000F0415E48006800F00FB9BDE8F0813168D0
:103A5000C90848EAC1013160306800F007004045FC
:103A600070475D49C2F30312895C534A01F01F019C
:103A7000C8401060704704D2A96821F0F0010843E3
:103A8000A860704770B54B4A554B9068D6680025C2
:103A9000002110F00C0006F00306524C03D00C2855
:103AA00012D1012E1AD115682E0704D4444D2E6868
:103AB000C6F3032502E01568C5F303154A4E56F810
:103AC000255048B9294624E0042808BF214620D0C3
:103AD00008281ED119461CE00C281AD1D06800F025
:103AE0000300022803D0032808BF1D4600E0254636
:103AF000D168D068D268C0F306204543C1F30210F4
:103B0000C2F34161401C491CB5FBF0F04900B0FB19
:103B1000F1F1084670BD2848304A006813683349FF
:103B2000C3F3022206E024482C4A006813682F4998
:103B3000C3F3C222895C01F01F01C84070477CB505
:103B40002B4E054630680024C10002D5FFF798FCD3
:103B50000EE0306840F080503060316801F08051F4
:103B600000910098FFF78CFC316821F080513160A2
:103B7000B0F5007F04D1802D0CD9A12D09D304E02C
:103B8000802D88BF032405D801D1022402E0702DC6
:103B900000D101240F480168C90844EAC10101604D
:103BA000006800F00700A04201D0012076BD00208F
:103BB00076BD0000001002400C000020080000202C
:103BC0009410024090100240007000408C809DF9DB
:103BD000FCFFEEFE0020024098550008081002404D
:103BE00000127A000024F400B85400082C56000893
:103BF0005810024062F30F2262F31F42401810F087
:103C0000030308D0C91A1FD3DB0748BF00F8012DF2
:103C100028BF20F8022D130030B414461546103981
:103C200028BF20E93C00FAD8490728BF20E90C004A
:103C300048BF40F8042D890028BF20F8022D48BF56
:103C400000F8012D30BC7047C91818BF00F8012DCD
:103C5000CB0728BF00F8012D7047000001484068DD
:103C6000704700BF0000002070B50E4E044630784B
:103C70000025A0B14FF47A710B4AB1FBF0F1106846
:103C8000B0FBF1F0FDF799FE48B9102C07D20022E5
:103C900021464FF0FF30FDF767FEB46000E00125DC
:103CA000284670BD000000200C000020D3BBD9B115
:103CB000B2F5803F5BD2022A1ED98C46B1FBF2F1ED
:103CC00002FB11C31B0443EA1043B3FBF2FC02FBEB
:103CD0001C3380B240EA0343B3FBF2F002FB103224
:103CE00040EA0C4000237047022A05D98446B0FB05
:103CF000F2F002FB10C270474AB105D100F0010298
:103D000049085FEA3000704700220023704700F046
:103D10007DB90B000200002100207047F7D300227C
:103D200000237047904271EB030CF2D370B5B1FAE7
:103D300081F4B3FA83F52C1BA340C4F1200532FAB9
:103D400005F63343A2405FF00046E64002E05B0820
:103D50005FEA3202841A71EB030524BF204629462C
:103D60007641F4D302000B003000002170BD70B525
:103D7000B1FA81F4B2FA82F5C4F120046419B4F105
:103D80002006DAD3B2405FF00044F440002502E0A0
:103D900052085FEA3303C61A71EB020E24BF3046A5
:103DA000714664416D41F3D302000B0020002900ED
:103DB00070BD000038B50446FFF750FF14F1010F45
:103DC000054602D0044801786418FFF747FF401BFE
:103DD000A042FAD331BD00BF0000002010F0004126
:103DE00060B148BF4042B0FA80F29040D21CC2F5A8
:103DF000846241EA025202EBD02140057047000084
:103E000030B540F2FF7C1CEA11541DBF1CEA13556B
:103E1000644565453FE0641981EA030C6FF35F5325
:103E20000CF0004C43F48013C90241F0004141EA18
:103E3000505EC5021100A5FB020200284FF00000F1
:103E4000EEFB01204FF00001E3FB052118BF42F01B
:103E50000102401800214941E3FB0E01A4F58064F2
:103E60000D0302D292184041494154F1010470DD22
:103E7000450872F1004250F1000051EB0451A1F5E8
:103E8000801102D441EA0C0130BD40F2FF7E4CEAC1
:103E90000E51002030BD0CEA1355644518BF65452E
:103EA00081EA030C0CF0004C41D050EA410E1CBFDB
:103EB00052EA430E02E06146002030BD24422C4409
:103EC0001BD15FEA050EF6D0090302BF01460020B0
:103ED000AEF1140EB1FA81F5AEEB050401FA05FE60
:103EE0000C35C5F1200100FA05F5C8404EEA000E78
:103EF0006FF35F5343F480139CE733F00043B3FA4E
:103F000083F504BFB2FA82FE75440B3D641BB5F124
:103F1000200E2FBF02FA0EF3AB40C5F1200E22FA9D
:103F20000EFE38BF43EA0E03AA40641C7CE750EA49
:103F3000410E14BF52EA430E6FF000014FF400151A
:103F400015EB430F8EBF194615EB410F9DE7B4D813
:103F500030BDD4F10104B4F120050FDAC4F120051D
:103F6000520828BF42F0010210FA05FE01FA05F5D9
:103F70007244E2BFE0402843E1400FE0352C9ADC78
:103F8000C5F1200452EA400220FA05F218BF42F0BF
:103F9000010231FA05F0A1400A43002172F100420A
:103FA00050F1000051EB0C0130BD0000C0F3C751CF
:103FB00081B1FF2906D0C110400721F0E04101F195
:103FC0006051704741020CBF40F4E0016FF00041C6
:103FD0000020704700F0004100020AD0B0FA80FCD7
:103FE00000FA0CF001F16051A1EB0C5101EBD02172
:103FF0004005704741EC100B01BD80B553EC112B0F
:1040000051EC100B00F004F8F4E7000070470000DA
:104010002DE9F04D2DED0A8B43EC182B55EC184B88
:1040200084B041EC190B24F0000635F0004708BFBE
:10403000002E00F0BE8253EC192B0020DFF8F4159F
:1040400000F00EFB00F0B58251EC180B8A464FEAE7
:104050004A077F150020DFF8741500F001FB04BF4C
:1040600017F1010F5FEA0A3000F0A38251EC190B3F
:104070008B464FEA4B004FEA605818F1010F00F0F1
:10408000E18131F000430CBF002A17F1010F00F06D
:10409000D9816B0043EAD4736200002B08BF002A69
:1040A00004D1B0EE48AAF0EE68AA1BE040F2334615
:1040B000A6EB5352352A06DB04F0000205F000435C
:1040C00043EC1A2B0EE0202A03DD203AD540954020
:1040D00000E001D1002403E0002AC4BFD440944092
:1040E00045EC1A4BC80F0BD053EC182B51EC1A0BA4
:1040F00000F0B6FA04D0AFF300809FED2F9B5AE298
:104100006A4651EC190B00F0BBFA41EC190BC80FD1
:1041100036D021F0004053EC192B034643EC192B09
:1041200051EC1A0B4B0043EAD0734200002B08BF3E
:10413000002A04D1B0EE4A0AF0EE6A0A19E040F211
:104140003444A4EB5352352A04DB00F0000001F0A4
:1041500000410CE0202A03DD203AD140914000E0EC
:1041600001D1002003E0002AC4BFD040904041ECC0
:10417000100B53EC1A2B51EC100B00F071FA01D11B
:10418000002600E00126009801281DD151EC190BF2
:10419000DFF83C24DFF83C3400F0AAFA14D253ECE8
:1041A000192B00204FF08041FFF72AFE00279FEDDA
:1041B00004BB41EC190B27E0FFFFFFFFFFFFFF7F70
:1041C000000000000000F03F53EC192B0020DFF846
:1041D0000814FFF715FE9FED76AB53EC1A2B00F099
:1041E000A1FA00F0CFFBA0F120042046FFF7F6FD76
:1041F0000022DFF8E833FFF703FE53EC1A2B00F040
:1042000091FA41EC1B0B670151EC190B53EC1B2B82
:1042100000F046FB41EC1A0B53EC192B51EC1B0B35
:1042200000F080FA02460B4651EC1A0B00F0C6FB78
:1042300041EC190B53EC192BFFF7E2FD41EC1C0B81
:1042400053EC1C2BDFF89803DFF89813FFF7D8FD29
:10425000DFF89423DFF8943300F064FA53EC1C2B5E
:10426000FFF7CEFDDFF88823DFF8883300F05AFA35
:1042700053EC1C2BFFF7C4FDDFF87C23DFF87C3305
:1042800000F050FA53EC1C2BFFF7BAFDDFF8702357
:10429000DFF8703300F046FA53EC1C2BFFF7B0FD4B
:1042A000DFF86423DFF8643300F03CFA53EC1C2B96
:1042B000FFF7A6FDDFF85823DFF8583300F032FA95
:1042C00053EC1C2BFFF79CFD53EC1A2B00F0E8FA83
:1042D00004460D460020DFF85C1353EC1B2B00F066
:1042E000DFFA00224FF08043FFF78AFD22462B467B
:1042F00000F018FA53EC192BFFF782FD41EC100B7C
:10430000C548784400F21230074453EC1A2B51ECA4
:10431000100B00F007FA41EC190B0098FFF75EFD57
:10432000D7E9002300F0FEF941EC1A0B53EC192BEE
:10433000BA48BB49FFF764FD53EC1A2B00F0F2F9C1
:1043400053EC182BFFF75CFD0022B64B00F0D0F9C0
:1043500041EC1B0B6AD30122B34B00F053FC62D932
:10436000C80F53EC1B2B1ABF0020B049B04900F016
:10437000D9F900F007FB0022AE4BCDE901238046BE
:10438000CDF8008053EC192B51EC180BFFF738FDDA
:1043900004460D46D7E90201D7E9042300F0C2F92B
:1043A00053EC182BFFF72CFD9FEDA3BB04E000BFDF
:1043B000000000000000E03F53EC1B2BFFF720FD46
:1043C00022462B4600F0AEF907468B4653EC1A2BDB
:1043D00051EC180BFFF714FD04460D464046FFF75D
:1043E000FDFC02460B462046294600F059FA53ECE4
:1043F0001B2BFFF705FD3A465B4600F093F9DDE91C
:10440000012300F019FC41EC190B31F0004108BF09
:1044100000280BD051EC190B4A00521512F1010F74
:1044200006D1080304D19FED8C9B01E09FED869B94
:10443000002E00F0C08051EC190B81F0004141ECDE
:10444000190BB8E018F1010F03D15FEA0B3040F00F
:10445000B28017F1010F07D15FEA0A3004D0B0EE45
:10446000489AF0EE689AA6E0012617F1010F63D092
:10447000294620464B0043EAD0734200002B08BF78
:10448000002A04D1B0EE48AAF0EE68AA1AE040F281
:104490003342A2EB5352352A04DB00F0000001F056
:1044A00000410DE0202A04DDA2F12000C14081403E
:1044B00000E001D1002003E0002AC4BFD0409040BA
:1044C00041EC1A0B53EC182B51EC1A0B00F0C8F806
:1044D00018BF00264B0043EAD0734200002B08BFF0
:1044E000002A04D1B0EE4A0AF0EE6A0A1AE040F25D
:1044F0003442A2EB5352352A04DB00F0000001F0F5
:1045000000410DE0202A04DDA2F12000C1408140DD
:1045100000E001D1002003E0002AC4BFD040904059
:1045200041EC100B46B153EC1A2B51EC100B00F080
:1045300097F80CBF0026012618F1010F08BF5FEAAB
:104540000B3006D151EC190BC80F13D1EC0F2DD045
:1045500024E017F1010F08BF5FEA0A3010D16A4664
:1045600051EC190B00F08CF8EC0F009814D10028D6
:104570001CDC13E0EC0F01D1002E13E076B108E053
:10458000002E1ABF51EC190BC80F0020EC0F08D1F8
:1045900020B19FED2B9B0EE0002807DD9FED2A9BAD
:1045A00009E0002818BF9FED2A9B04D19FED2A9BAC
:1045B00001E09FED049B04B051EC190BBDEC0A8B9C
:1045C000BDE8F08D000000000000F03F0000F0BFEB
:1045D000CD3B7F669EA0E63F000050400000903F2C
:1045E000F7DE29BFD8F8C23FF4B3FECC1A99C33F17
:1045F00062CB68D96F46C73FC6C912DAC471CC3FD7
:104600004AE98A942449D23FF75F97999999D93F0B
:10461000BC5555555555E53F480A0000FE822B65AF
:104620004715F73F0000E0C00000E0400000E0BF99
:104630000000E03F0000F03FEF39FAFE422EE63F77
:1046400000000000000000800000000000000000EA
:10465000000000000000F0FF000000000000F07FFC
:10466000904205D1994204D041EA030C50EA4C0C27
:1046700070474FF4001C1CEB410F38BF8942704754
:1046800010B5144600F002F8226010BDC1F30A53C1
:1046900043B14A0012F5001F28D2A3F2FE32A1EB6B
:1046A0000251704750EA410C20D001F0004C31EA31
:1046B0000C01B1FA81F204BFB0FA80F3D2180B3AC0
:1046C000B2F120032CBF00FA03F1914041EA0C0142
:1046D0003EBFC2F1200C20FA0CF319439040524225
:1046E00040F2FD33D21A01EB0351704700227047AC
:1046F00041EA030C50EA4C0C52EA0C0C4FF4001C3B
:1047000009D307D01CEB410F9CBF1CEB430F8B421E
:1047100008BF824270471CEB430FFBD8994208BF89
:104720009042704770B491EA030F4FF0004540F19A
:10473000BF806B40841A71EB030604D26E40001BED
:10474000B141121973414FF4001C1CEB410F34BFEF
:104750007CEB430683E00C0DA4EB1356362E00F3DE
:104760007C80012E45EAC32341DC43EA525312BF49
:10477000D20292025B08240545EAC12141EA505168
:10478000D2EBC020994125D407D1B0FA80F610FAB7
:1047900006F162D00020203608E0B1FA81F6B1407F
:1047A000C6F1200220FA02F21143B0404FEAF4743D
:1047B000B4EB465434F001064FEA74040AD8D6F537
:1047C0000016760D04F00044F04061FA06F2504005
:1047D000F1404840C00A40EA415021F0004128BF62
:1047E0005FEA500550F1000044EBD12135E0DB0ACF
:1047F00045EAC121C90AB6F120050EDD42EA0242AE
:10480000120CC5F1200603FA06F6EB4042EA060553
:104810006D42984161F100010DE062FA06F5F24047
:10482000554063FA06FC82EA0C02F3405A406D429E
:10483000904161EB030111F4801F05D1641E6205F4
:1048400002D06D004041494121F48011430875F1C7
:10485000004350F1000041EB045170BC70471CEB69
:10486000410F15D223F0004352EA43060BD04FEA22
:104870004C0CBCEB410F04D80C0D661E342EB7DD7A
:10488000EBE7801A994150EA410608BF0021E4E7AE
:1048900008BF1CEB430F28BF6FF00001DDE70000ED
:1048A00070B491EA030F4FF000457FF543AF6B40C2
:1048B000841A71EB030603D2001BB1411219734134
:1048C0004FF4001C1CEB410F34BF7CEB430442E06F
:1048D0000C0DA4EB1356352E4FDC45EAC323DB0A3F
:1048E00045EAC121C912B6F120050DDD63FA05F6CE
:1048F000EB4086EA0305124218BF45F00105C018D7
:1049000051F100010CD213E062FA06F5F240554075
:10491000F3415A40B340F3405A408018594107D3FD
:1049200049085FEA30005FEA350528BF45F0010518
:1049300001F58011420875F1004250F1000041EB91
:1049400004514E0016F5001F70BC38BF70470020A0
:10495000090D090570471CEB410F10D252EA4306BE
:104960000BD0BCEB410F05D80C0DAB43661E342EAB
:10497000B6DD02E0AB438018594170BC704770BC93
:1049800070470000C1F30A5340F21E42D31A0CDDF7
:10499000CA0283F3070342EA505242F00042DA406F
:1049A00002EBE17282EAE17070476FEAE17203F2B2
:1049B000E13008B182F0004070470000F0B540F2ED
:1049C000FF7581EA030C0CF0004C15EA11541DBF71
:1049D00015EA1357AC42AF42E5E0BC41C1F3130105
:1049E000C3F31303801A994143F4801304D2641E65
:1049F0000018494180185941C90241EA5051B1FBA0
:104A0000F3F603FB1611A2FB0675D7EBC020A941F4
:104A100002D2761E80185941C90241EA5051B1FBB9
:104A2000F3FE03FB1E11A2FB0E75D7EBC020A941BC
:104A300003D2AEF1010E80185941890241EA90512A
:104A4000760546EA8E2EB1FBF3F603FB1611A2FBA8
:104A50000675D7EB8020A94102D2761E80185941F5
:104A6000C90241EA50514EEA060EB1FBF3F603FBD0
:104A70001611A2FB0675D7EBC020A94102D2761E03
:104A800080185941C90241EA5051B1FBF3F703FBC9
:104A90001711A2FB0735D3EBC020A94167F100072E
:104AA0000CBF004247F0010766F3D5274FEA1E31DD
:104AB000B80814F5806412DDBD0775F1004250EBB3
:104AC0000E5051EB045111F5801F5CBF41EA0C01FF
:104AD000F0BD4CF07F6141F0E0410020F0BDBD072A
:104AE0006D0840EA0E5041F48011D4F10104B4F194
:104AF00020060ADAC4F120060200E04001FA06F3BB
:104B0000E1401843B24015430EE0342C13DCC6F1EB
:104B1000200445EA40056D0820FA06F2154321FA03
:104B200006F0A1400D43002175F1004250F1000054
:104B300051EB0C01F0BD00205FEA0C01F0BDCFB9D4
:104B400092185B41B3FA83F704BFB2FA82F6BF1939
:104B50000B3FB7F120062FBF02FA06F3BB40C7F1A7
:104B6000200622FA06F638BF3343BA401CB1E419D6
:104B7000641E33E77F4231F00041B1FA81F404BF93
:104B8000B0FA80F6A4190B3CB4F120062FBF00FA4E
:104B900006F1A140C4F1200620FA06F638BF3143E1
:104BA000A0403C1B1AE7AC421ABF05EA1357AF42BC
:104BB00012E050EA41061CBF52EA4306BFE750EA42
:104BC0004107304661461CBF41EA0551F0BD52EA3B
:104BD000430C08BFC143F0BD00204FF4001616EB94
:104BE000410F98BF16EB430F08BF16EB410F24BFD0
:104BF000C14305E016EB430F0CBF61464CEA05517B
:104C0000F0BD000041EA030C50EA4C0C52EA0C0CD7
:104C10004FF4001C09D307D01CEB410F9CBF1CEBC9
:104C2000430F994208BF904270471CEB410FFBD8DD
:104C30008B4208BF82427047F0B583B02DED0A8BDE
:104C400041EC1A0B084645006D15129E15F1010F37
:104C500043EC182B21D053EC1A2B33F0004308BF40
:104C6000002A1AD053EC182B1C466100491511F18B
:104C7000010F12D022F0000133F0004208BF0029DA
:104C80000BD051EC1A0B00228E4BFFF731FD58D29E
:104C90009FED8D0B51EC100B4DE015F1010F05D17F
:104CA000010318BF51EC1A0B40F0088153EC182B8C
:104CB0001C4667007F1517F1010F01D121031DD19B
:104CC00033F0004308BF002A0ED115F1010F15D1B2
:104CD000000313D1AFF30080BDEC0A8B4FF0FF301F
:104CE0006FF0004103B0F0BD17F1010F09D12103AE
:104CF00007D115F1010F01D10003EBD051EC180BD6
:104D0000DCE053EC1A2B33F0004304BF002A324698
:104D100000F0BC8015F1010F0CD100030AD153EC57
:104D20001A2B51EC180BBDEC0A8B03B0BDE8F04018
:104D3000FFF766B80020BDEC0A8B04F0004103B019
:104D4000F0BD0122624BFFF75DFF0CD8AFF300808E
:104D50009FED600BBDEC0A8B51EC100B04F000448E
:104D6000214303B0F0BD53EC1A2B5C485C49FFF7BC
:104D700047F841EC100B9FED5B9B51EC190B08467B
:104D800053EC102B03F00041084353EC192B03465E
:104D900051EC100BFFF7C6FCFFF7F4FD0746FFF7D9
:104DA0001DF841EC1B0B53EC1B2B4FF078404F4987
:104DB000FFF726F853EC1A2BFFF7B4FC04460D4618
:104DC00053EC1B2B4A484B49FFF71AF822462B4657
:104DD000FFF7A8FC41EC1A0B21F000410022464BE2
:104DE000FFF786FC51D353EC1A2B51EC1A0BFFF74B
:104DF00007F841EC1B0B53EC1B2B40484049FEF7D6
:104E0000FFFF404A404BFFF78DFC53EC1B2BFEF796
:104E1000F7FF41EC1C0B53EC1B2B3C483C49FEF7C5
:104E2000EFFF3C4A3C4BFFF77DFC53EC1B2BFEF79E
:104E3000E7FF53EC192BFFF775FC53EC1A2BFEF729
:104E4000DFFF41EC190B53EC1C2BFFF76BFC9FEDC4
:104E500033AB53EC1A2BFFF765FC04460D4651ECBF
:104E60001C0B53EC192BFFF71BFD53EC1A2BFFF710
:104E700059FC02460B4620462946FFF79FFD53EC9E
:104E8000182BFEF7BDFF41EC180BF21951EC180B73
:104E900000F048F841EC100B31F0004108BF002849
:104EA00008D051EC100B4A00521512F1010F03D13A
:104EB000080301D1AFF3008051EC100BBDEC0A8B5D
:104EC00003B0F0BD00C89CC000000000000000005E
:104ED00000C89C40000000000000F07FFE822B65AF
:104EE0004715F73F000000000000E03F422EE6BFFC
:104EF000F2E4D5BCE7E84BBE0000903C112E578190
:104F0000A03F503F5843128C8F71BC3F4BE8A541E6
:104F1000B752013F0BBDF3DAE8708C3F0000000090
:104F20000000F03F124254D440F2FF7C1CEA1153BF
:104F30000FD0634531D09B1863453CBF01EB025154
:104F4000704701F0004141EA0C510020AFF30080AE
:104F5000704750EA410320D001F0004C91EA0C0167
:104F60001CD0B1FA81F30B3B9A420DD9D21A994069
:104F700051EA0C01C3F1200C20FA0CFC614498406A
:104F8000531C40F2FF7CD7E7914041EA0C01C2F18B
:104F9000200C20FA0CF3194390407047B0FA80F3CC
:104FA0001533202BE0D3202AEED3203A203B9A421F
:104FB00009D9D21A00FA03F141EA0C010020531C6E
:104FC00040F2FF7CB8E700FA02F141EA0C01002050
:104FD0007047524240F2FF7C1CEA11530DD06345EA
:104FE000DBD0B2EB030C3CBFA1EB025170470CF1DC
:104FF000010221EA035141F4801150EA410CCCD066
:1050000001F0004C352A27DC30B481EA0C01B2F102
:10501000200309DAC2F12003044601FA03F5D04067
:105020002843D1409C400CE0C3F12002450020FA07
:1050300003F418BF44F0010421FA03F091400C433B
:10504000002174F1004550F1000051EB0C012442A5
:1050500030BC7FF47BAF70476146002076E70000EC
:10506000000000000000F0BF000000000000008011
:1050700000000000000000800000000000000000B0
:10508000000000C05294EEBF00000048204E51BE08
:10509000000000F86467BCBC0000000000000000D5
:1050A000000000208133EDBF00000080B3DB14BEA0
:1050B000000000506706A3BC0000000000000000D4
:1050C000000000D0E9DCEBBF00000008C39259BE2D
:1050D00000000080B0D3B8BC000000000000000059
:1050E00000000070F98FEABF000000C0A51028BEC4
:1050F000000000E8BFC0B0BC0000000000000000DD
:1051000000000070284CE9BF00000060134B42BE55
:10511000000000C03D20B8BC0000000000000000FE
:1051200000000050FA10E8BF000000C05FF62BBE80
:10513000000000905C71A7BC0000000000000000AF
:1051400000000020FCDDE6BF000000C0F8F154BE06
:1051500000000018E9F6B9BC0000000000000000E3
:10516000000000D0C3B2E5BF00000070E43254BEBE
:1051700000000050DB06B4BC00000000000000008E
:1051800000000010EF8EE4BF00000020F36252BE6A
:10519000000000C02A879ABC000000000000000048
:1051A000000000B02272E3BF000000F0E8E056BE4D
:1051B00000000028352DBDBC0000000000000000EC
:1051C000000000000A5CE2BF000000B0FA8E41BEA1
:1051D00000000040AE6FBDBC0000000000000000F9
:1051E00000000000564CE1BF000000F015CD5FBE8E
:1051F00000000000141C90BC000000000000000033
:1052000000000040BD42E0BF00000030F93457BE4E
:10521000000000E06C1E93BC0000000000000000D5
:10522000000000E0F57DDEBF000000B08A535EBEE6
:1052300000000080DA77AABC000000000000000037
:10524000000000C09D81DCBF00000000FFA226BE60
:105250000000006057E2B0BC000000000000000049
:1052600000000060F98FDABF000000580A8151BECB
:10527000000000F05F60B8BC00000000000000000B
:105280000000000098A8D8BF000000607A7F45BEEB
:10529000000000D05433A3BC000000000000000058
:1052A000000000600FCBD6BF000000D091CB40BE05
:1052B000000000406D1BA0BC0000000000000000CA
:1052C000000000A0FBF6D4BF00000098C5CE52BE7F
:1052D000000000003A397EBC000000000000000021
:1052E000000000E0FE2BD3BF0000004073872BBE00
:1052F00000000000926879BC00000000000000007F
:1053000000000040C069D1BF00000058F16353BEE7
:1053100000000080438D7CBC000000000000000005
:1053200000000080D85FCFBF000000181F8354BE6C
:10533000000000B03F42A2BC0000000000000000DE
:105340000000008067FCCBBF00000060FAFF53BE86
:1053500000000050E00DB8BC00000000000000009C
:105360000000000098A8C8BF000000607A7F35BE2A
:10537000000000C0543393BC000000000000000097
:1053800000000000DC63C5BF00000058D6FF54BE1B
:1053900000000000396490BC000000000000000024
:1053A000000000C0AD2DC2BF00000080A45915BE92
:1053B000000000E0484BABBC000000000000000013
:1053C000000000801A0BBEBF00000050BF3C5ABE58
:1053D000000000A0B364B6BC0000000000000000A4
:1053E0000000008004D6B7BF00000040BBCF36BE2F
:1053F0000000008076CEA8BC000000000000000085
:105400000000008032BBB1BF000000402A0043BE54
:1054100000000028C60CBDBC000000000000000019
:10542000000000009473A7BF000000182B3B59BE7A
:10543000000000C0E55DA5BC000000000000000009
:1054400000000000EE4397BF000000A0E6C340BE8E
:1054500000000020958DB5BC000000000000000099
:10546000000000000000008000000000000000803C
:1054700000000000000000800000000000000000AC
:1054800030B4002512E050F8042BD30744BF4A443F
:10549000521E091F042942F8045BFAD213468C07F6
:1054A00044BF15809B1CC90748BF1D7050F8041BE2
:1054B0000029E8D130BC7047A0860100400D0300F0
:1054C000801A060000350C0040420F0080841E0048
:1054D00000093D0000127A000024F40000366E013D
:1054E0000048E801006CDC0210B507497944183126
:1054F000064C7C44163404E00A68081D11448847B1
:105500000146A142F8D110BD2C0000004C00000063
:105510004EF68851CEF20001086840F47000086031
:10552000BFF34F8FBFF36F8F4FF00170E1EE100AA2
:10553000704700004DFFFFFFB00500001000002085
:1055400000000000D3B6FFFF10000000D0000000F4
:105550000000002000000000FEE7FEE7FEE7FEE797
:10556000FEE770477047704700F006B80148FAF749
:105570003FBE0000740500200248416802788A1886
:1055800042607047000000200248016841F4700149
:105590000160704788ED00E000000000000000009E
:1055A000010203040607080900F00DF8002801D0E5
:1055B000FFF79AFFAFF300800020AFF30080FBF706
:1055C0003FFB00F002F80120704700F001B8000036
:1055D0000746384600F002F8FBE7000080B5AFF35D
:1055E0000080024A11001820ABBEFBE72600020033
:1055F0000548014603B4684680F30988AFF300808C
:10560000FFF786FFFFF7D0FFA5EDF5FE01488047C5
:105610000148004789550008F155000801000000C5
:10562000000000001000000000093D000000000024
:1056300001020304FFF7FEBFFFF7FEBFFFF7FEBF47
:10564000FFF7FEBFFFF7FEBFFFF7FEBFFFF7FEBF8E
:10565000FFF7FEBFFFF7FEBFFFF7FEBFFFF7FEBF7E
:10566000FFF7FEBFFFF7FEBFFFF7FEBFFFF7FEBF6E
:10567000FFF7FEBFFFF7FEBFFFF7FEBFFFF7FEBF5E
:10568000FFF7FEBFFFF7FEBFFFF7FEBFFFF7FEBF4E
:10569000FFF7FEBFFFF7FEBFFFF7FEBFFFF7FEBF3E
:1056A000FFF7FEBFFFF7FEBFFFF7FEBFFFF7FEBF2E
:1056B000FFF7FEBFFFF7FEBFFFF7FEBFFFF7FEBF1E
:1056C000FFF7FEBFFFF7FEBFFFF7FEBFFFF7FEBF0E
:1056D000FFF7FEBFFFF7FEBFFFF7FEBFFFF7FEBFFE
:1056E000FFF7FEBFFFF7FEBFFFF7FEBFFFF7FEBFEE
:1056F000FFF7FEBFFFF7FEBFFFF7FEBFFFF7FEBFDE
:10570000FFF7FEBFFFF7FEBFFFF7FEBFFFF7FEBFCD
:10571000FFF7FEBFFFF7FEBFFFF7FEBFFFF7FEBFBD
:10572000FFF7FEBFFFF7FEBFFFF7FEBFFFF7FEBFAD
:10573000FFF7FEBFFFF7FEBFFFF7FEBFFFF7FEBF9D
:10574000FFF7FEBFFFF7FEBFFFF7FEBFFFF7FEBF8D
:10575000FFF7FEBFFFF7FEBFFFF7FEBFFFF7FEBF7D
:10576000FFF7FEBFFFF7FEBFFFF7FEBFFFF7FEBF6D
:04000005080055F1A9
:00000001FF
