:020000040800F2
:1000000068080020415A00081D5900081F590008BF
:100010002159000823590008255900080000000054
:100020000000000000000000000000002759000848
:1000300029590008000000002B5900082D5900081C
:10004000855A0008895A00088D5A0008915A0008FC
:10005000955A0008995A00089D5A0008A15A0008AC
:10006000A55A0008A95A0008AD5A0008B15A00085C
:10007000B55A0008B95A0008BD5A0008C15A00080C
:10008000C55A0008C95A0008CD5A0008D15A0008BC
:10009000D55A0008D95A0008DD5A0008E15A00086C
:1000A000E55A0008E95A0008ED5A0008F15A00081C
:1000B000F55A0008F95A000835590008FD5A000899
:1000C000015B0008055B0008095B00080D5B000888
:1000D000115B0008155B0008195B00081D5B000838
:1000E000215B0008255B0008295B00082D5B0008E8
:1000F000315B0008355B0008395B00083D5B000898
:10010000415B0008455B0008495B00084D5B000847
:10011000515B0008555B0008595B00085D5B0008F7
:10012000615B0008655B0008695B00086D5B0008A7
:10013000715B0008755B0008795B00087D5B000857
:10014000815B0008855B0008895B00088D5B000807
:10015000915B0008955B0008995B00089D5B0008B7
:10016000A15B0008A55B0008A95B0008AD5B000867
:10017000B15B0008B55B0008000000000000000053
:10018000B95B0008BD5B000810B50400002C01D16C
:10019000012067E094F84100002805D1002084F890
:1001A0004000200000F0B0FD242084F841002068C9
:1001B00000684008400021680860606830F07060A6
:1001C000216808612068806830F4004021688860F8
:1001D000E068012805D1A06850F4004021688860DB
:1001E00004E0A06850F4044021688860E0680228B8
:1001F00006D12068406850F400602168486005E03E
:100200002068406830F400602168486020684068D9
:1002100040F0007050F40040216848602068C068D9
:1002200030F400402168C860216960690143A06919
:1002300051EA00212068C160E169206A0143206819
:1002400001602068006850F001002168086000200B
:100250006064202084F8410000202063002084F89E
:100260004200002010BD2DE9FC4704000D001600DF
:100270001F00DDF8288094F84100202840F0C3805A
:1002800094F84000012801D10220BDE0012084F84B
:10029000400000F087FE8146CDF80090192301222E
:1002A0004FF40041200000F05DFB002801D0012048
:1002B000AAE0212084F84100102084F842000020A8
:1002C00060646662678500206063608DB0F5807F42
:1002D00004D3FF2020855FF0807A03E0608D2085C5
:1002E0005FF0007A208D002819D0606A00782168BC
:1002F0008862606A401C6062608D401E6085208D4F
:10030000401E2085DFF8040100905346228D521CC8
:10031000D2B2290089B2200000F05DFC0AE0DFF8CB
:10032000EC0000905346228DD2B2290089B2200001
:1003300000F051FC608D002847D04A46414620001D
:1003400000F04DFB002801D001205DE0606A0078DC
:1003500021688862606A401C6062608D401E608512
:10036000208D401E2085608D0028E3D0208D002840
:10037000E0D1CDF80090434600228021200000F01B
:10038000F1FA002801D001203EE0608DB0F5807FB9
:100390000DD3FF202085002000905FF08073228D18
:1003A000D2B2290089B2200000F015FCC2E7608DAE
:1003B0002085002000905FF00073228DD2B22900CA
:1003C00089B2200000F007FCB4E74A46414620000D
:1003D00000F035FB002801D0012015E02020216825
:1003E000C86120684168DFF828000140206841604A
:1003F000202084F84100002084F84200002084F886
:100400004000002000E00220BDE8F68700200080C8
:1004100000E800FE2DE9FE4F83460E0017009846C7
:100420000C9C0D9DDDF838909BF84100202840F091
:10043000EA80002C03D0280080B2002805D14FF4B8
:100440000070CBF844000120DEE09BF8400001285A
:1004500001D10220D8E001208BF8400000F0A2FD7D
:100460008246CDF800A0192301224FF400415846DE
:1004700000F078FA002801D00120C5E021208BF897
:10048000410040208BF842000020CBF84400CBF81C
:100490002440ABF82A500020CBF83400CDF804A05B
:1004A000CDF8009043469BB23A0092B2310089B237
:1004B000584600F0B1F9002804D000208BF8400025
:1004C0000120A1E0BBF82A00B0F5807F0FD3FF2008
:1004D000ABF82800002000905FF08073BBF8282064
:1004E000D2B2310089B2584600F075FB0FE0BBF87C
:1004F0002A00ABF82800002000905FF00073BBF8E2
:100500002820D2B2310089B2584600F064FB52462E
:100510004946584600F063FA002801D0012073E0F4
:10052000DBF824000078DBF800108862DBF8240098
:10053000401CCBF82400BBF82A00401EABF82A0070
:10054000BBF82800401EABF82800BBF82A000028A2
:1005500034D0BBF82800002830D1CDF800A04B469D
:1005600000228021584600F0FDF9002801D001202A
:100570004AE0BBF82A00B0F5807F0FD3FF20ABF82C
:100580002800002000905FF08073BBF82820D2B2D2
:10059000310089B2584600F01EFB0FE0BBF82A007C
:1005A000ABF82800002000905FF00073BBF8282013
:1005B000D2B2310089B2584600F00DFBBBF82A00D8
:1005C0000028A4D152464946584600F038FA00287F
:1005D00001D0012018E02020DBF80010C861DBF812
:1005E00000004168DFF828020140DBF800004160AC
:1005F00020208BF8410000208BF8420000208BF86F
:100600004000002000E00220BDE8FE8F2DE9FE4FF3
:1006100083460E00170098460C9C0D9DDDF838901F
:100620009BF84100202840F0EF80002C03D02800E8
:1006300080B2002805D14FF40070CBF844000120AF
:10064000E3E09BF84000012801D10220DDE0012019
:100650008BF8400000F0A6FC8246CDF800A01923DC
:1006600001224FF40041584600F07CF9002801D0E7
:100670000120CAE022208BF8410040208BF8420084
:100680000020CBF84400CBF82440ABF82A500020DF
:10069000CBF83400CDF804A0CDF8009043469BB2CF
:1006A0003A0092B2310089B2584600F0FEF80028B4
:1006B00004D000208BF840000120A6E0BBF82A00FF
:1006C000B0F5807F10D3FF20ABF82800DFF844019D
:1006D00000905FF08073BBF82820D2B2310089B25D
:1006E000584600F078FA10E0BBF82A00ABF8280072
:1006F000DFF8200100905FF00073BBF82820D2B231
:10070000310089B2584600F066FACDF800A04B4699
:1007100000220421584600F025F9002801D00120CC
:1007200073E0DBF80000406ADBF824100870DBF8A7
:100730002400401CCBF82400BBF82800401EABF876
:100740002800BBF82A00401EABF82A00BBF82A009C
:10075000002834D0BBF82800002830D1CDF800A004
:100760004B4600228021584600F0FCF8002801D0BA
:1007700001204AE0BBF82A00B0F5807F0FD3FF20AC
:10078000ABF82800002000905FF08073BBF82820B1
:10079000D2B2310089B2584600F01DFA0FE0BBF822
:1007A0002A00ABF82800002000905FF00073BBF82F
:1007B0002820D2B2310089B2584600F00CFABBF8BA
:1007C0002A000028A1D152464946584600F037F980
:1007D000002801D0012018E02020DBF80010C861BB
:1007E000DBF800004168DFF828000140DBF800007A
:1007F000416020208BF8410000208BF8420000204F
:100800008BF84000002000E00220BDE8FE8F0000D1
:1008100000E800FE002400802DE9F84304000D00EC
:1008200091461E00089FDDF82480DFF8100100903B
:100830005FF080733200D2B2290089B2200000F04C
:10084000CAF942463900200000F0C9F8002801D05A
:10085000012028E0300080B2012804D14846C0B20F
:100860002168886212E0484680B2000AC0B221685E
:10087000886242463900200000F0B1F8002801D01B
:10088000012010E04846C0B221688862CDF800809F
:100890003B0000228021200000F064F8002801D0F5
:1008A000012000E00020BDE8F2832DE9F8430400B8
:1008B0000D0091461E00089FDDF82480DFF87C00C3
:1008C000009000233200D2B2290089B2200000F04B
:1008D00082F942463900200000F081F8002801D05A
:1008E000012028E0300080B2012804D14846C0B27F
:1008F0002168886212E0484680B2000AC0B22168CE
:10090000886242463900200000F069F8002801D0D2
:10091000012010E04846C0B221688862CDF800800E
:100920003B0000224021200000F01CF8002801D0EC
:10093000012000E00020BDE8F283000000200080DC
:1009400001688969890702D50021026891620168FE
:100950008969C90705D40168896951F001010268F4
:10096000916170472DE9F04105000E0017001C0051
:10097000DDF81880286880693040B04201D101203C
:1009800000E000203900C9B2884225D114F1010FDE
:10099000F0D000F007FBB0EB0800844201D3002C3C
:1009A000E8D1286880693040B04201D1012000E0E0
:1009B00000203900C9B28842DCD1686C50F02000B8
:1009C0006864202085F84100002085F8420000205E
:1009D00085F84000012000E00020BDE8F08170B5FE
:1009E00005000C00160028688069800725D43200B5
:1009F0002100280000F050F8002801D001201DE05F
:100A000014F1010FEFD000F0CDFA801B844201D326
:100A1000002CE8D1286880698007E4D4686C50F025
:100A200020006864202085F84100002085F84200FD
:100A3000002085F84000012000E0002070BD70B566
:100A400005000C00160028688069800622D4320058
:100A50002100280000F020F8002801D001201AE031
:100A600000F0A0FA801B844201D3002CEBD128684F
:100A700080698006E7D4686C50F02000686420200C
:100A800085F84100002085F84200002085F84000EC
:100A9000012000E0002070BD2DE9FE4F06000C0093
:100AA00017005FF000083068806901905FF0000A6D
:100AB000B9460198C0064CD510203168C86130682D
:100AC000806980063AD44046C0B2002836D114F17D
:100AD000010FF4D000F066FAB0EB0900844201D3B4
:100AE000002CECD13068406810F48040009096F8FB
:100AF0004200050030688069000410D50098B0F508
:100B0000804F0CD02800C0B2202808D03068406840
:100B100050F480403168486000F044FA8146306803
:100B200080698006CBD400F03DFAB0EB09001A28AA
:100B3000F5D35AF0200A01208046C0E74046C0B2F3
:100B4000002802D120203168C8615AF0040A01202F
:100B500080463068D0F818B05FEACB5007D55AF01D
:100B6000010A4FF480703168C861012080465FEA55
:100B70004B5007D55AF0080A4FF480603168C861BD
:100B8000012080465FEA8B5007D55AF0020A4FF4E5
:100B900000703168C861012080464046C0B200281C
:100BA00015D03000FFF7CCFE306841681648014090
:100BB00030684160706C5AEA00007064202086F84A
:100BC0004100002086F84200002086F840004046A0
:100BD000C0B2BDE8FE8FF0B4049C0D00ADB2AD050F
:100BE000AD0D1600F6B255EA06451D43254325F026
:100BF000004506687668054F57EA5457BE432E43B2
:100C000007687E60F0BC704700E800FEFF63FF03EA
:100C100081B0DFF85C03016851F0010101600068F8
:100C200010F0010000900098DFF84803016851F0CF
:100C300080510160006810F080500090009801B071
:100C4000704710B5A8B004001422002101A800F0DC
:100C5000AFF98822002106A800F0AAF92068DFF881
:100C6000181388424ED14FF4804006905FF08050B8
:100C7000249001200790012008901020099007205F
:100C80000A9002200B9002200C905FF080700D9073
:100C900006A800F097F9002801D001F0EDF8DFF880
:100CA000DC02016851F400510160016811F4005147
:100CB00000910099016851F001010160016811F093
:100CC000010100910099016851F002010160006882
:100CD00010F0020000900098F02001900B2002908C
:100CE0000020039001A95FF0904001F0C7F80220B6
:100CF00001900B2002900020039001A9DFF88002F0
:100D000001F0BCF828B010BD10B5A8B00400142242
:100D10000021684600F04CF98822002106A800F066
:100D200047F92068974988422DD14020069000203D
:100D30001A9006A800F046F9002801D001F09CF8AE
:100D40008E48016851F002010160006810F0020055
:100D500005900598C020009012200190002002907C
:100D600003200390042004906946854801F086F82A
:100D70008048016851F400110160006810F400100F
:100D80000590059831E020687F4988422DD1802068
:100D9000069000201B9006A800F014F9002801D04E
:100DA00001F06AF87548016851F0020101600068BD
:100DB00010F00200059005984FF44060009012205A
:100DC00001900020029003200390042004906946C3
:100DD0006B4801F053F86748016851F480010160E5
:100DE000006810F480000590059828B010BD10B57B
:100DF00086B004001422002101A800F0D9F8206870
:100E00006249884221D15B48016851F48041016008
:100E1000006810F48040009000985848016851F034
:100E200008010160006810F00800009000981B2085
:100E300001900220029000200390032004900520DE
:100E4000059001A9524801F019F806B010BD1CB573
:100E5000040020684F4988420AD14548016851F48E
:100E600000610160006810F400600090009815E0D7
:100E700020684949884211D13E48016851F0040177
:100E80000160006810F0040000900098002200212A
:100E90001E2001F080F91E2001F092F913BD10B55B
:100EA00086B004001422002101A800F081F8206817
:100EB0003849884218D13148016851F01001016069
:100EC000006810F01000009000984FF4007001903E
:100ED0000220029000200390002004900120059041
:100EE00001A92E4800F0CAFF06B010BD10B5A8B089
:100EF00004001422002101A800F05AF888220021E1
:100F000006A800F055F82068254988422ED1012016
:100F100006900020149006A800F054F8002801D094
:100F200000F0AAFF1248016851F480410160006896
:100F300010F48040009000981048016851F00101C1
:100F40000160006810F00100009000984FF4C0604C
:100F500001900220029000200390032004900720BB
:100F6000059001A95FF0904000F088FF28B010BD07
:100F70006010024058100240000004504C10024023
:100F80000004004800540040005800400038004071
:100F9000000C0048002C01400008004000100048F0
:100FA0000038014001480068704700BF6404002019
:100FB00010B5044610460A460146204601F01EF9C7
:100FC000204610BD2DE9F84F050000275FF000080E
:100FD0002868000531D5686E002810D0B0F5800F64
:100FE00013D0B0F5000F03D0B0F5400F14D014E0CB
:100FF000DFF8FC03016851F4803101600FE000214B
:10100000281D00F0FFF9070009E0002115F120007C
:1010100000F0BAFA070002E001E001200700380002
:10102000C0B2002808D1DFF8CC130A6832F44002BD
:10103000686E02430A6000E0B8462868C00431D5F3
:10104000A86E002810D0B0F1807F13D0B0F1007FDF
:1010500003D0B0F1407F14D014E0DFF894030168AE
:1010600051F4803101600FE00021281D00F0CAF921
:10107000070009E0002115F1200000F085FA0700C3
:1010800002E001E0012007003800C0B2002808D1CA
:10109000DFF860130A6832F04072A86E02430A60FB
:1010A00000E0B846286880037CD55FF00009DFF8CF
:1010B00048A3DAF80000C0000DD4DAF8000050F0C0
:1010C0008050CAF80000DAF8000010F0805000905C
:1010D000009801208146DFF824B3DBF8000050F4CB
:1010E0008070CBF80000FFF75DFF0600DBF8000022
:1010F000C00506D4FFF756FF801B0328F6D3032054
:1011000007003800C0B2002841D1DFF8F4B2DBF8A4
:10111000000010F440700400002C16D0D5F88400B4
:10112000844212D0DBF8000030F440700400DBF899
:10113000000050F48030CBF80000DBF8000030F401
:101140008030CBF80000CBF80040E0070FD5FFF768
:1011500029FF0600DBF80000800708D4FFF722FF14
:10116000801B41F289318842F4D303200700380004
:10117000C0B2002809D1DBF8001031F44071D5F875
:1011800084000143CBF8001002E0B84600E0B84606
:101190004846C0B2012805D1DAF8000030F080508E
:1011A000CAF800002878C00707D5DFF848120A6897
:1011B00092089200A86B02430A602878800707D53E
:1011C000DFF830120A6832F00C02E86B02430A6062
:1011D0002878400707D5DFF81C120A6832F0300281
:1011E000286C02430A602878000707D5DFF804124C
:1011F0000A6832F0C002686C02430A602878C006B0
:1012000007D5DFF8F0110A6832F44072A86C024387
:101210000A602878800607D5DFF8D8110A6832F40A
:101220004062E86C02430A602868800507D5DFF851
:10123000C4110A6832F44022E86D02430A6028684B
:10124000400507D5DFF8AC110A6832F44012286E69
:1012500002430A602878400607D5DFF898110A682B
:1012600032F44052286D02430A602878000607D500
:10127000DFF880110A6832F44042686D02430A6068
:101280002868C00507D5DFF86C110A6832F44032CF
:10129000A86D02430A60286880041FD5DFF8541146
:1012A0000A6832F04062E86E02430A60E86EB0F10C
:1012B000006F05D14E48016851F4801101600DE0C6
:1012C000E86EB0F1806F09D10121281D00F09AF875
:1012D00007003800C0B2002800D0B84628680003D4
:1012E0001FD5DFF810110A6832F04062286F024300
:1012F0000A60286FB0F1006F05D13D48016851F4D4
:10130000801101600DE0286FB0F1806F09D10121DB
:10131000281D00F077F807003800C0B2002800D080
:10132000B846286840031FD5DFF8C8100A6832F0B5
:101330004062686F02430A60686FB0F1006F05D1C8
:101340002B48016851F4801101600DE0686FB0F125
:10135000806F09D10121281D00F054F807003800E2
:10136000C0B2002800D0B8462868400425D5DFF870
:1013700084100A6832F04052A86F02430A60A86FD6
:10138000B0F1805F0AD10221281D00F03BF8070070
:101390003800C0B2002810D0B8460EE0A86FB0F1F7
:1013A000005F0AD1022115F1200000F0EDF80700DE
:1013B0003800C0B2002800D0B8462868000407D51D
:1013C000DFF830100A6832F08042E86F02430A60AA
:1013D0002868C00308D5DFF81C100A6822F0004214
:1013E000D5F8800002430A604046C0B2BDE8F28FE3
:1013F0000C1002408810024058100240007000405B
:10140000901002402DE9F04105000C000027DFF8A4
:10141000C812086810F0030F12D0086810F003001B
:101420002A68904209D12868002806D00868C0F3CD
:101430000210401C6968884235D00120070032E064
:101440002868012804D01ED3032811D008D31AE03D
:10145000DFF888020068800701D40120070014E04B
:10146000DFF878020068400501D4012007000CE095
:10147000DFF868020268920304D40068400301D4D4
:101480000120070001E0012007003800C0B2002859
:1014900009D10A6832F07302286802436868401E66
:1014A00052EA00120A603800C0B2002868D1DFF8A2
:1014B0002C82D8F8000030F08060C8F80000FFF7F8
:1014C00071FD0600D8F80000000106D5FFF76AFD9F
:1014D000801B0328F6D3032007003800C0B2002881
:1014E0004ED1002C0ED1DFF8F8110A68DFF8F401B4
:1014F0000240A86852EA0022E868000952EA404225
:101500000A6020E0012C0FD1DFF8D4110A68DFF85F
:10151000D8010240A86852EA002228694008401E0B
:1015200052EA40520A600EE0DFF8B4110A68DFF8B0
:10153000BC010240A86852EA002268694008401EC7
:1015400052EA40620A60D8F8000050F08060C8F8A3
:101550000000FFF727FD0600D8F80000000106D4C0
:10156000FFF720FD801B0328F6D303200700380077
:10157000C0B2002804D15A490A68A86902430A6027
:101580003800C0B2BDE8F0812DE9F04105000C0043
:1015900000275149086810F0030F12D0086810F0B6
:1015A00003002A68904209D12868002806D00868FC
:1015B000C0F30210401C6968884232D00120070045
:1015C0002FE02868012804D01BD303280FD007D3AD
:1015D00017E042480068800701D40120070012E0AC
:1015E0003E480068400501D4012007000BE03B485D
:1015F0000268920304D40068400301D4012007006C
:1016000001E0012007003800C0B2002809D10A68B3
:1016100032F07302286802436868401E52EA0012E2
:101620000A603800C0B2002852D1DFF8B080D8F884
:10163000000030F08050C8F80000FFF7B3FC06004F
:10164000D8F80000800006D5FFF7ACFC801B03280B
:10165000F6D3032007003800C0B2002838D1002C90
:101660000CD123490A681F480240A86852EA0022A8
:10167000E868000952EA40420A600CE01C490A6826
:101680001A480240A86852EA002228694008401E11
:1016900052EA40620A60D8F8000050F08050C8F862
:1016A0000000FFF77FFC0600D8F80000800006D499
:1016B000FFF778FC801B0328F6D3032007003800CF
:1016C000C0B2002804D10A490A68686902430A6066
:1016D0003800C0B2BDE8F0810C100240001002409A
:1016E00010100240FF80FDFFFF809FFFFF80FFF989
:1016F00014100240016851F0010101607047016857
:1017000031F080010160704741627047406A704764
:101710008368DFF8F42613400B4383607047426808
:1017200032F070020A4342607047816831F08001F4
:101730008160704781B0DFF8D4160A6802430A60FE
:10174000096801400091009901B0704738B5002444
:1017500000F09CFD00F035F800F0CFFA00F076F8CC
:1017600000F025F900F056F900F087F900F0A7FA2B
:1017700000F0ADF900F038FA00F070FA00F024FF44
:1017800000252800C0B2042809D22800C0B201F008
:1017900035FA2800C0B201F0DFF86D1CF1E7DFF880
:1017A00070562800FFF7B2FF04002800FFF7AEFFD5
:1017B000001B4CF251318842E2D3032001F074FA4D
:1017C000DEE780B596B04422002105A8FFF7F0FBC4
:1017D000142200216846FFF7EBFB4FF4007001F084
:1017E000B3FA002801D000F047FB1020059001203B
:1017F0000B9000200C9060200D9002200F90012093
:1018000010900120119028201290072013900220A0
:1018100014900220159005A801F0DAFA002801D0F2
:1018200000F02AFB0F20009003200190002002907E
:1018300000200390002004900421684601F0E3FD9D
:10184000002801D000F018FB17B000BD18B589B012
:101850000C22002106A8FFF7ABFB182200216846E6
:10186000FFF7A6FBDFF8AC45DFF8AC0520600020F1
:1018700060600020A0600020E06001202061042062
:10188000606100202076012060760720E061002062
:1018900084F820000020A0620020E062002084F88C
:1018A000300000206063012084F838000820E063E5
:1018B00060202064002060640120A064200001F00A
:1018C000F2FF002801D000F0D7FA0020069006A908
:1018D000200002F048FB002801D000F0CDFADFF82C
:1018E0003C05009006200190012002907F2003908B
:1018F00004200490002005906946200002F0E2F8E0
:10190000002801D000F0B8FADFF8140500900C2090
:1019100001906946200002F0D5F8002801D000F0BF
:10192000ABFADFF800050090122001906946200014
:1019300002F0C8F8002801D000F09EFADFF8E804B1
:101940000090182001906946200002F0BBF80028A2
:1019500001D000F091FADFF8D40400904FF48070C9
:1019600001906946200002F0ADF8002801D000F097
:1019700083FADFF8BC0400904FF48370019069464D
:10198000200002F09FF8002801D000F075FADFF87F
:10199000A40400904FF4867001906946200002F084
:1019A00091F8002801D000F067FA0AB010BD10B518
:1019B000DFF88444DFF884042060DFF8840460608A
:1019C0007420A0600120E0600020206100206061A0
:1019D0000020A0610020E061002020622000FEF7CE
:1019E000D3FB002801D000F047FA0021200002F0CC
:1019F00047FB002801D000F03FFA0F21200002F041
:101A000071FB002801D000F037FA5FF4801002F07B
:101A10009AFB10BD10B5DFF82C44DFF82C042060D1
:101A2000DFF81C0460607420A0600120E0600020EA
:101A30002061002060610020A0610020E0610020A2
:101A400020622000FEF7A0FB002801D000F014FA6D
:101A50000021200002F014FB002801D000F00CFA55
:101A60000F21200002F03EFB002801D000F004FA14
:101A70005FF4001002F067FB10BD80B5DFF8CC0307
:101A8000DFF8CC1301604FF4827141600021816066
:101A90004FF44071C16000210161002141615FF498
:101AA000802181610021C161002101620021416228
:101AB000002181620721C162002101630821416385
:101AC00002F056FB002801D000F0D6F901BD18B590
:101AD00099B01022002115A8FFF76AFA0C22002104
:101AE0006846FFF765FA1C2200210EA8FFF760FA8E
:101AF0002C22002103A8FFF75BFAD64CD6482060C1
:101B00004F2060601020A0604FF6FF70E060002062
:101B10002061002060618020A061200002F0A4FB11
:101B2000002801D000F0A8F94FF48050159015A9B5
:101B3000200002F02EFE002801D000F09DF92000C8
:101B400002F0CFFB002801D000F096F900200090B1
:101B500000200190002002906946200003F0B6F8B2
:101B6000002801D000F088F960200E9064200F90CA
:101B7000002010900020119004201290002013905B
:101B80000020149000220EA9200002F051FD002830
:101B900001D000F071F90020039000200490002093
:101BA000059000200690002007904FF40050089008
:101BB0000020099000200A905FF000700B90002038
:101BC0000C9000200D9003A9200003F0CDF8002810
:101BD00001D000F051F90021200002F0BFFB2000ED
:101BE000FFF75DF91AB010BD18B587B010220021BB
:101BF00003A8FFF7DDF90C2200216846FFF7D8F9AA
:101C0000964C974820604F2060601020A0604CF2F6
:101C10005030E060002020610020A061200002F030
:101C200023FB002801D000F027F94FF480500390E7
:101C300003A9200002F0ADFD002801D000F01CF93E
:101C400000200090002002906946200003F03EF83A
:101C5000002801D000F010F908B010BD18B585B00B
:101C6000142200216846FFF7A3F90820FFF762FD60
:101C700040F21F30ADF80000002001905FF0FF300F
:101C8000029000200390624C6946200003F0CFF8D8
:101C90002000FFF734FD00212000FFF739FD00216F
:101CA0002000FFF73CFD2000FFF73FFD0021200052
:101CB000FFF72AFD2000FFF71DFD06B010BD80B51F
:101CC0006848694901605FF4E13141600021816049
:101CD0000021C160002101610C214161002181616D
:101CE0000021C161002101620021416203F018F965
:101CF000002801D000F0C0F801BD38B586B014222C
:101D000000216846FFF754F95848016851F0100166
:101D10000160016811F0100105910599016851F009
:101D200004010160016811F0040105910599016841
:101D300051F001010160016811F00101059105995F
:101D4000016851F002010160016811F00201059182
:101D50000599016851F008010160006810F0080061
:101D600005900598424C00224FF4F861200000F0E5
:101D700072F9404D00224FF46061280000F06BF9C9
:101D800001224FF480715FF0904000F064F900226E
:101D90004FF4C0515FF0904000F05DF94FF4F860EF
:101DA00000900120019000200290002003906946DD
:101DB000200000F063F84FF4605000900020019084
:101DC000002002906946200000F058F84FF460604F
:101DD00000900120019000200290002003906946AD
:101DE000280000F04BF84FF4C850009001200190FB
:101DF000002002900020039069465FF0904000F0C0
:101E00003DF807B030BD0000F8BFFEFF581002409B
:101E1000000C004054020020000004500002B025D5
:101E20000004002A0008302E001060320000214318
:101E3000000052C7010000801C0300200054004035
:101E4000230130007003002000580040B802002039
:101E500000380040C4030020002C01401004002082
:101E600000080040CC010020003801404C10024026
:101E7000000C00480008004872B6FEE7F8B4030002
:101E800000250868E840002800F0E38001260F687C
:101E900016FA05F007403A00002A00F0D8800879C9
:101EA00010F00300012804D0087910F00300022884
:101EB0001DD19F685FF0030C68001CFA00FC37EA34
:101EC0000C07D1F80CC068001CFA00FC5CEA07079C
:101ED0009F60D3F804C016FA05F03CEA000C48688D
:101EE000C0F30010A84050EA0C0C64465C6008790E
:101EF00010F00300032809D1D86AAE40B0434E6801
:101F0000C6F3C006AE4030430400DC62087910F02E
:101F1000030003280AD0DE68032768008740BE4319
:101F20008F68680087403E433400DC60087910F019
:101F30000300022816D12800C00803EB8000006AC5
:101F40000F26AF0017F01C07BE40B0430E69AF006C
:101F500017F01C07BE40304304002800C00803EB04
:101F6000800004621E68032768008740BE430F7923
:101F700017F00307680087403E4334001C60486840
:101F800010F4403F63D03A48066856F001060660F8
:101F9000006810F0010000900098364E280080087C
:101FA00056F820000F275FEA850C1CF00C0C17FA7E
:101FB0000CF7B843B3F1904F01D100241EE02E4C32
:101FC000A34201D1012419E02C4CA34201D10224E7
:101FD00014E02B4CA34201D103240FE0294CA3426F
:101FE00001D104240AE0284CA34201D1052405E0D4
:101FF000264CA34201D1062400E00724AF0017F0CD
:102000000C07BC4020432C00A40846F82400204EB6
:10201000346894434F68FF0200D5144334601D4E6A
:10202000306890434F68BF0200D5104330601A4CAF
:10203000266896434F68BF0300D5164326601748AD
:10204000046894434F68FF0300D5144304606D1C7B
:1020500017E7F1BC70471300DBB2002B03D00B0075
:102060009BB2836102E00B009BB283627047000069
:1020700060100240080001400004004800080048C9
:10208000000C0048001000480014004800180048E8
:10209000080401400C040140040401400004014014
:1020A00010B410F00703DFF8344122684FF6FF0147
:1020B0000A4052EA0322DFF828110A43226010BCCA
:1020C0007047DFF818010068C0F302207047000075
:1020D000010049B2002909D4012210F01F018A40F1
:1020E000404903005BB25B0941F82320704710B4FC
:1020F000020052B2002A05D40A013B4B040064B22C
:102100001A5508E00A01394B040064B214F00F04B8
:10211000234403F8042C10BC704770B4030013F080
:102120000704D4F10700052801D3042001E0D4F10D
:102130000700251D072D01D2002500E0E51E012620
:1021400016FA00F0401E0140A94016FA05F56D1E72
:102150002A401143080070BC704710B50400601E8F
:10216000B0F1807F01D301200EE0601E204908609D
:102170000F215FF0FF30FFF7BAFF00201D49086014
:1021800007201D490860002010BD10B50400200084
:10219000FFF786FF10BD2DE9F04104000D00160089
:1021A0000027FFF78EFF8046320029004046FFF7E8
:1021B000B4FF0100200040B2FFF799FFBDE8F081B5
:1021C00010B50400200040B2FFF782FF10BD10B52B
:1021D00004002000FFF7C1FF10BD00000CED00E07F
:1021E0000000FA0500E100E000E400E018ED00E086
:1021F00014E000E018E000E010E000E062F30F22DD
:1022000062F31F42401810F0030308D0C91A1FD30D
:10221000DB0748BF00F8012D28BF20F8022D13006E
:1022200030B414461546103928BF20E93C00FAD8CE
:10223000490728BF20E90C0048BF40F8042D890059
:1022400028BF20F8022D48BF00F8012D30BC704790
:10225000C91818BF00F8012DCB0728BF00F8012DC1
:1022600070470EE002684368024408305FEAC37CAE
:1022700044BF4B445B1E52F804CB43F804CB091F08
:10228000F9D150F8041B0029ECD1704710B5002497
:102290000320FFF77AFF0F2003F096F9002802D001
:1022A0000120040001E0FEF7B3FC2000C0B210BD25
:1022B000406A704781B001000022080000B2ADF80A
:1022C00000009DF800309DF801008DF800008DF8A9
:1022D0000130BDF9000080B201B070477CB5040048
:1022E00043F20500FFF7E6FFADF8040045F24C505D
:1022F000FFF7E0FFADF806007020DFF894590521E4
:102300000091042301AA2100C9B24143294409894B
:102310002600F6B200FB06F02844C068FDF7A3FFD4
:1023200005002800C0B2002801D0FFF7A5FD0A2053
:1023300003F07AF973BDF8B584B004000D001600FF
:10234000300080B2FFF7B6FFADF80C007020DFF868
:102350004079052102910221019103A900910223F4
:102360002A0092B22100C9B2414339440989A446E6
:102370005FFA8CFC00FB0CF03844C068FEF74AF8AA
:1023800007003800C0B2002801D0FFF775FD05B086
:10239000F0BDF8B584B004000D007020DFF8F068DF
:1023A000052102910221019103A9009102232A0033
:1023B00092B22100C9B24143314409892700FFB2DA
:1023C00000FB07F03044C068FEF720F9060030003B
:1023D000C0B2002801D0FFF74FFDBDF80C0080B25D
:1023E000FFF768FFADF80C00BDF90C0080B205B036
:1023F000F0BD2DE9FF4704000D0016005FF0000955
:10240000DFF890884046FFF753FF07004046FFF78C
:102410004FFFC01B40F2F51188420FD243F6FF7107
:102420002000C0B2FFF7B5FFDFF864282300DBB25D
:1024300070214B4302EB0301488001E0FFF71CFDD4
:102440005FF07009DFF848A82000C0B209FB00F077
:1024500050444088C0F3402080B20028D6D12000EC
:10246000C0B2FFF73BFF300080B2FFF723FFADF8AB
:102470000C00052002900220019003A80090022386
:102480002A0092B22000C0B209FB00F0504401893A
:102490002000C0B209FB00F90AEB0900C068FDF793
:1024A000B9FF80464046C0B2002801D0FFF7E4FCE7
:1024B000BDE8FF872DE9FF4104000D005FF0000833
:1024C000DFF8D0773800FFF7F3FE06003800FFF79B
:1024D000EFFE801B40F2F51188420FD243F6FF71E8
:1024E0002000C0B2FFF755FFDFF8A4272300DBB2BE
:1024F00070214B4302EB0301488001E0FFF7BCFC75
:102500007020DFF88CC72100C9B24143614449887B
:10251000C1F3402189B20029D8D1052102910221BD
:10252000019103A9009102232A0092B22100C9B2AD
:102530004143614409892700FFB200FB07F0604472
:10254000C068FEF763F807003800C0B2002801D069
:10255000FFF792FCBDF80C0080B2FFF7ABFEADF8C0
:102560000C00BDF90C0080B204B0BDE8F0817CB570
:10257000040043F20500FFF79DFEADF804000620BD
:10258000FFF798FEADF806007020DFF8045705212C
:102590000091042301AA2100C9B2414329440989B9
:1025A0002600F6B200FB06F02844C068FDF75BFE8B
:1025B00005002800C0B2002801D0FFF75DFCC8204C
:1025C00003F032F873BD00002DE9F0472DED028BCA
:1025D00098B002A8DFF8C016D1E90023C0E90023B3
:1025E0006846DFF8B816D1E90023C0E90023DFF818
:1025F000A056742028817620A5F878007420A5F8CC
:10260000E8007620A5F85801DFF89406E860E8674E
:10261000DFF89006C5F8EC00C5F85C010026300034
:10262000C0B2042880F08B813000C0B2FFF79FFF5A
:1026300043F2010739003000C0B2FFF7AAFE81461D
:102640005FF070083000C0B208FB00F005EB00013D
:102650000A884FF6F97002400A803000C0B208FBC9
:1026600000F028441121028861F308120280300032
:10267000C0B208FB00F0285E0400220092B23900CC
:102680003000C0B2FFF757FE5FF0000A5046C0B2FC
:10269000032823D20DF1080900225046C0B239F8B0
:1026A00010103000C0B2FFF7A4FE68465146C9B210
:1026B00030F811205046C0B239F810103000C0B2C6
:1026C000FFF797FE5046C0B239F810103000C0B284
:1026D000FFF7F0FE04001AF1010AD7E739003000D5
:1026E000C0B2FFF756FE3100C9B208FB01F16852D3
:1026F0003000C0B208FB00F02844018851F0060108
:1027000001803000C0B208FB00F0285A020092B2EB
:1027100039003000C0B2FFF70EFE00273800C0B20B
:10272000252810D23900C9B201F510510C3189B2F7
:102730003000C0B2FFF7BEFE04A93A00D2B221F8C1
:1027400012007F1CEAE7BDF912000004BDF9101069
:1027500000FA81F000EE100A9FED7B3A3000C0B223
:1027600008FB00F02844F8EEC00A60EE830AC0EDD2
:10277000040A04A8B0F906100904B0F90420891865
:1027800000EE901A3100C9B208FB01F12944B0EE05
:10279000601ABAEEC61A81ED051ABDF91A100904BD
:1027A000B0F90820891801EE101A3100C9B208FBEF
:1027B00001F12944F8EEC11A9FED642A61EE821AF4
:1027C000C1ED061ABDF91E100904B0F90C208918D4
:1027D00001EE901A3100C9B208FB01F12944B8EEAC
:1027E000E12A22EE032A81ED072ABDF942100904ED
:1027F000BDF9402001FA82F102EE101A3100C9B28F
:1028000008FB01F12944F8EEC22ADFED513A62EEED
:10281000A32AC1ED102ABDF946100904BDF94420D0
:1028200001FA82F102EE901A3100C9B208FB01F1FF
:102830002944F8EEE23A23EE833A81ED113ABDF9EC
:102840004A100904BDF9482001FA82F103EE101A7A
:102850003100C9B208FB01F12944F8EEC33A9FEDFB
:102860003D4A63EE843AC1ED123ABDF94E100904B7
:10287000BDF94C2001FA82F103EE901A9FEDDD4A7A
:102880003100C9B208FB01F12944F8EEE34A64EED5
:10289000844AC1ED134ABDF952100904B0F9402031
:1028A000891804EE901AB0EE648A3100C9B208FBB0
:1028B00001F12944F8EEC84A24EE844A81ED144A15
:1028C0009FEDCD4A3100C9B208FB01F12944B0F9AE
:1028D000442004EE902AF8EEE44A64EE844AC1ED06
:1028E000154A3100C9B208FB01F12944BDF956204F
:1028F00004EE902AF8EEE44A24EE844A81ED164A6A
:102900003100C9B208FB01F12944B0F9480004EED6
:10291000100AB8EEC44A81ED174A3000C0B208FB75
:1029200000F028445FF07E5101663000C0B208FB21
:1029300000F805EB080000214166761C6FE618B030
:10294000BDEC028BBDE8F0870000803B00008029D1
:10295000F6FF7F3700008028F8B52DED108B8EB084
:1029600004001022002102A8FEF722FB00200C9098
:1029700000200B9000200A90002009900020089071
:102980000020079000200690DFEDBDEAF3EE09CAB3
:10299000B0EE6C8ACDED01CACDED00CADFEDB88A8C
:1029A0009FEDB7FA9FEDB69ADFEDB5FA0025280046
:1029B000C0B2082810D22900C9B201F580413331D4
:1029C00089B22000C0B2FFF7E4FC02A92A00D2B20B
:1029D00021F812006D1CEAE77025AD4E02A9B1F98D
:1029E0000A0000EE100AF8EEC09AB1F904000C22B9
:1029F000B0FBF2F000EE100AB8EE400A2000C0B2C0
:102A000068433044D0ED150A40EE209A9FED9D0AB0
:102A1000B1F904000C22B0FBF2F000EE900AF8EEDF
:102A2000600AC0EEA90A20EE80AABDF90820BDF90F
:102A30000A00121ABDF90E00121AB1F90800101896
:102A40004008B1F90C208018BDF9162000FA82F078
:102A500000EE900AF8EE60AAB1F90A0000EE900AC2
:102A6000B8EEE0BAB1F904000C21B0FBF1F000EED1
:102A7000900AF8EE600A2000C0B26843304490ED3E
:102A8000161A00EE81BAF2EE080ACAEEA00AC0EEEB
:102A90008B0A60EE80BA2000C0B26843304490EDEB
:102AA000040A3AEE400A2000C0B268433044D0ED38
:102AB000050A80EE200A2000C0B268433044D0ED01
:102AC000070A30EE20CA2000C0B26843304490EDBF
:102AD000040A3AEE400A2000C0B268433044D0ED08
:102AE000060A20EE200A2000C0B268433044D0ED30
:102AF000040A7AEE600A00EE20CA2000C0B26843E1
:102B0000304490ED0B0A3AEE400A2000C0B2684310
:102B10003044D0ED100A80EE200A70EE2CCA9FEDF2
:102B20005A0A3CEE80DA2000C0B26843304490ED8F
:102B3000120AF0EE000A80EE200A2000C0B26843BC
:102B40003044D0ED180A20EE200ACBEE80DA2DEECC
:102B50000D0A20EE0D0A20EE0DEA00273800C0B263
:102B6000032835D29DED010A38EE400A2000C0B29C
:102B700068433044D0ED140AB7EE001A00EE201A74
:102B80009DED000A3CEEC00A2000C0B2684330440C
:102B9000D0ED130A00EE201AB0EE419A8DEE890AAC
:102BA00002F056FD30EE0E0A02F052FDDFED370A5C
:102BB00030EE200A2000C0B268433044D0ED190A3C
:102BC00030EE600AF0EE408AB0EE688A7F1CC5E7FE
:102BD0002000C0B268433044C0ED1A8A2000C0B261
:102BE00005FB00F506EB050080ED1BCA0EB0BDEC41
:102BF000108BF1BD0000802D0000803AF8B5040074
:102C00000027244E3000FFF753FB05003000FFF78C
:102C10004FFB401B41F2717188420ED243F6FF71A7
:102C20002000C0B2FFF7B5FB194A2300DBB27021C8
:102C30004B4302EB0301488001E0FFF71DF97021CF
:102C4000134A2000C0B2484310448078C007DDD545
:102C50002000C0B248431044831C1E884FF6FE700B
:102C600006401E802000C0B201FB00F102EB010013
:102C7000428843F6FF712000C0B2FFF75CFBF1BD54
:102C8000000000000000004933938843339388C359
:102C90000C000020000C00406C5A0008745A000818
:102CA0001C030020700300209FED1D0A9FED1C1ADD
:102CB0009FED1B2A9FED1A3ADFED1A0A1B4A03000B
:102CC000DBB270214B4302EB0301D1ED1A1A70EE17
:102CD000E10AF0EE601A1649D1ED002A72EEA02A40
:102CE000C1ED002A134AD2ED002A70EEE22AD1ED9E
:102CF000003A71EEA33A73EEA23A9FED0B4A63EEEF
:102D0000843ABDEEE34A14EE101A0A0092B2642A25
:102D100001D2012211000A0092B2074B1A607047DB
:102D200000000000000018423694D7440C00002038
:102D3000600400205C040020342C0140DFF8800097
:102D4000006810F4C060704710B40200B2F5007F54
:102D500025D1DFF86C00036813F4C063B3F5007F7E
:102D60002AD00123046863F34A240460DFF8540086
:102D7000036832204343DFF85000B3FBF0F0401CFF
:102D80000100DFF8480003685B0503D5002901D086
:102D9000491EF6E7006840050ED503200DE0DFF878
:102DA0002000036813F4C063B3F5806F04D00223DE
:102DB000046863F34A240460002010BC70470000DC
:102DC000007000400400002040420F0014700040DA
:102DD0002DE9FE4F0500002D01D1012011E3DFF8A0
:102DE000B498D9F8004014F00C04DFF84089D8F802
:102DF000007017F003072878C00640F1C680002C49
:102E000003D00C2C7AD1012F78D1DFF884A8DAF81E
:102E10000000800704D5A869002801D10120F0E254
:102E2000DAF80000000704D5DAF8000010F0F0002E
:102E300005E0DFF8FC080068000910F0F000296ADE
:102E400088421ED2286A00F02BFC002801D0012005
:102E5000D7E2DAF8000050F00800CAF80000DAF80B
:102E6000001031F0F001286A0143CAF80010DFF8C1
:102E7000C408016831F47F41EA6951EA0221016026
:102E80001FE0DAF8000050F00800CAF80000DAF895
:102E9000001031F0F001286A0143CAF80010DFF891
:102EA0009408016831F47F41EA6951EA0221016026
:102EB000002C06D1286A00F0F3FB002801D0012085
:102EC0009FE200F05EFBDFF87018D9F80020C2F333
:102ED0000312895C11F01F01C840DFF8BC170860BD
:102EE000DFF8B807006802F06FFB8DF800009DF86E
:102EF0000000002849D09DF8000082E2A86900285F
:102F00002DD0DFF88C97D9F8000050F00100C9F8F7
:102F10000000FEF747F80600D9F80000800706D445
:102F2000FEF740F8801B0328F6D3032069E2D9F8A6
:102F3000000050F00800C9F80000D9F8001031F086
:102F4000F001286A0143C9F80010DFF8E8070168BA
:102F500031F47F41EA6951EA0221016015E0DFF8AE
:102F60003097D9F8000040084000C9F80000FEF78B
:102F700019F80600D9F80000800706D5FEF712F808
:102F8000801B0328F6D303203BE22878C00754D5E2
:102F9000082C03D00C2C0BD1032F09D1DFF8F0063D
:102FA0000068800349D56868002846D1012028E2DE
:102FB0006868B0F5803F06D1DFF8D406016851F4A7
:102FC0008031016018E06868B0F5A02F0AD1DFF801
:102FD000C006016851F480210160016851F480311C
:102FE000016009E0DFF8A806016831F48031016072
:102FF000016831F480210160686800280ED0FDF777
:10300000D1FF0600DFF888060068800315D4FDF7BD
:10301000C9FF801B6528F5D30320F2E1FDF7C2FF4D
:103020000600DFF86C060068800306D5FDF7BAFFDE
:10303000801B6528F5D30320E3E12878800752D56B
:10304000042C03D00C2C15D1022F13D1DFF840062D
:103050000068400504D5E868002801D10120D0E1CE
:10306000DFF8D006016831F0F8512A6951EA0261AF
:10307000016038E0E86800281FD0DFF81496D9F81E
:10308000000050F48070C9F80000FDF78BFF0600C7
:10309000D9F80000400506D4FDF784FF801B032803
:1030A000F6D30320ADE1DFF88C06016831F0F8516A
:1030B0002A6951EA0261016015E0DFF8D495D9F878
:1030C000000030F48070C9F80000FDF76BFF0600C7
:1030D000D9F80000400506D5FDF764FF801B0328E2
:1030E000F6D303208DE1287800072ED568690028E3
:1030F00015D0DFF83C96D9F8000050F00100C9F86F
:103100000000FDF74FFF0600D9F8000080071CD42F
:10311000FDF748FF801B0328F6D3032071E1DFF899
:103120001096D9F8000040084000C9F80000FDF7EB
:1031300039FF0600D9F80000800706D5FDF732FFF9
:10314000801B0328F6D303205BE12878400740F179
:1031500081805FF00009DFF8E4A5DAF80000C00024
:103160000DD4DAF8000050F08050CAF80000DAF808
:10317000000010F080500190019801208146DFF896
:10318000C0B5DBF80000C00513D4DBF8000050F434
:103190008070CBF80000FDF705FF0600DBF80000AB
:1031A000C00506D4FDF7FEFE801B0328F6D30320DE
:1031B00027E1A868012806D1DFF88805016851F0E9
:1031C0000101016017E0A86805280AD1DFF874053D
:1031D000016851F004010160016851F001010160D2
:1031E00009E0DFF8600501684908490001600168ED
:1031F00031F004010160A868002810D0FDF7D2FE6C
:103200000600DFF840050068800719D4FDF7CAFE04
:10321000801B41F289318842F3D30320F1E0FDF7AE
:10322000C1FE0600DFF81C050068800708D5FDF721
:10323000B9FE801B41F289318842F3D30320E0E0DC
:103240004846C0B2012805D1DAF8000030F08050BD
:10325000CAF80000A86A002800F0D280A86A0228F4
:1032600040F0AC80D8F80000070017F00300E96ACE
:10327000884226D117F07000296B491EB0EB011F60
:103280001FD117F4FE40696BB0EB012F19D1A86B69
:10329000072801D1002000E0012017F4003181420D
:1032A0000FD117F4C000E96B4908491EB0EB415F2C
:1032B00007D117F0C060296C4908491EB0EB416F77
:1032C0005CD00C2C58D0DFF8C8A3DAF8000040011D
:1032D00003D4DAF80000C00001D5012091E0DAF84B
:1032E000000030F08070CAF80000FDF75BFE8146F8
:1032F000DAF80000800107D5FDF754FEB0EB0900B5
:103300000328F5D303207CE0D8F80010DFF8380458
:103310000140E86A0143286B401E51EA0011686BC6
:1033200051EA0021E86B4008401E51EA4051286CE8
:103330004008401E51EA4061A86B000951EA404133
:10334000C8F80010DAF8000050F08070CAF80000E9
:10335000D8F8000050F08070C8F80000FDF722FE99
:103360000600DAF8000080014AD4FDF71BFE801B3E
:103370000328F6D3032044E0012042E0DFF8109355
:10338000D9F8000080013BD4D9F8000050F08070DB
:10339000C9F80000D8F8000050F08070C8F80000AC
:1033A000FDF700FE0600D9F80000800128D4FDF7E3
:1033B000F9FD801B0328F6D3032022E00C2C1DD03E
:1033C000DFF8CC92D9F8000030F08070C9F8000026
:1033D000FDF7E8FD0600D9F80000800106D5FDF7ED
:1033E000E1FD801B0328F6D303200AE0D8F8001083
:1033F000DFF858030140C8F8001001E0012000E0A8
:103400000020BDE8FE8F2DE9F04104000D00002CE6
:1034100001D10120B3E0DFF83873386810F00700FD
:10342000A8420BD23868C008C0002843386038680A
:1034300010F00700A84201D00120A0E0207880070A
:103440000DD5DFF85012086810F0F000A268904225
:1034500005D20A6832F0F002A06802430A602078C0
:10346000C00742D56068032806D1DFF8240200684F
:1034700080011CD4012082E06068022806D1DFF8B8
:1034800010020068800312D4012078E060680028F0
:1034900006D1DFF8FC010068800708D401206EE047
:1034A000DFF8EC010068400501D4012067E0DFF897
:1034B000E481D8F800108908890060680143C8F8E1
:1034C0000010FDF76FFD0600D8F8000010F00C00AA
:1034D0006168B0EB810F08D0FDF764FD801B41F2FD
:1034E00089318842F0D3032049E0207880070DD548
:1034F000DFF8A011A0680A6812F0F002904205D22D
:103500000A6832F0F002A06802430A60386810F0DE
:10351000070085420BD23868C008C00028433860D5
:10352000386810F00700A84201D0012027E0207879
:10353000400706D557490A6832F4E062E068024362
:103540000A602078000707D55248016831F46051BD
:10355000226951EAC201016000F013F8DFF8D811C6
:103560004C4A1268C2F30312895C11F01F01C84073
:10357000494908604948006802F026F8C0B2BDE831
:10358000F0812DE9F041002600204249096811F040
:103590000C01DFF898C1DCF8007017F00307002970
:1035A00003D00C291AD1012F18D1DFF8E4E0DEF89E
:1035B00000805FEA087806D4DFF874E1DEF800E006
:1035C000CEF3032E03E0DEF800E0CEF3031E614EDF
:1035D00056F82E6000290CD130000AE0042903D1EE
:1035E000DFF874E1704604E0082902D1DFF86CE1ED
:1035F00070460C292DD1DCF800E01EF0030E734656
:103600009E46BEF1020F03D0BEF1030F03D005E0CA
:10361000DFF844E103E0DFF844E100E0B646DCF81F
:103620000020C2F30212521C1500DCF80020C2F385
:10363000062202FB0EFEBEFBF5F2DCF800C0CCF366
:10364000416C1CF1010C5FEA4C0C6446B2FBF4FCCB
:103650006046BDE8F08110480068704780B5FFF70C
:10366000FAFF3F490B4A1268C2F30222895C11F04B
:103670001F01C84002BD80B5FFF7EDFF3849054A7C
:103680001268C2F3C222895C11F01F01C84002BD5A
:10369000001002400810024004000020000000203A
:1036A0007CB504000025254E3068C00003D5FFF727
:1036B00045FB01000FE0306850F08050306030680A
:1036C00010F0805000900098FFF738FB0100306840
:1036D00030F080503060B1F5007F09D1812C15D3D6
:1036E000A12C02D30220050010E0012005000DE00E
:1036F000812C02D30320050008E0802C02D1022097
:10370000050003E0702C01D101200500104802687B
:10371000D208D2002A430260006810F00700A842D5
:1037200001D0012000E0002076BD00000C10024016
:103730009410024004100240305A00085810024011
:1037400000700040901002408C809DF9FCFFEEFE5E
:1037500000200240EC5800080024F40000127A0017
:103760007C5A0008826832F47C120A4382607047F7
:10377000826832F0E0720A4382607047806810F01D
:10378000E070704770B410F1600515EB81052E688C
:10379000DFF80043264012F0F84426431E4356F05B
:1037A00000462E6070BC7047020012F1600010EB02
:1037B0008100006810F0F840704710B410F1600309
:1037C00013EB81031C6824F0004414431C6010BCFC
:1037D000704770B410F130040B009B0913F00C0318
:1037E0001C1925681F2611F01F039E40B543C2F324
:1037F000846611F01F039E403543256070BC7047FE
:1038000070B410F114030C00E40D14F00404E31878
:103810001C6807250E00360D16F01F06B540AC4398
:103820000D002D0D15F01F0512FA05F52C431C6037
:1038300070BC704730B4D0F8B0404B035B0B9C4376
:10384000DFF8543212F01805EB400B405B035B0BC2
:103850001C43C0F8B04030BC70478268DFF83C12AF
:103860000A40826070478068400F10F00100704786
:103870008268DFF82C120A4052F080528260704752
:103880008068000F10F001007047806810F00100A0
:1038900070478068800810F0010070478068C00899
:1038A00010F0010070472DE9F84304005FF00008B4
:1038B00000200090002C01D10120E9E020690028BF
:1038C00002D094F820000128606D002807D1200064
:1038D000FDF7B7F90020A065002084F850002068AB
:1038E000FFF7C1FF002802D02068FFF7B6FF20686D
:1038F000FFF7C6FF002813D12068FFF7B9FFDFF8F4
:10390000A4010068DFF8A011B0FBF1F0401C4000FA
:1039100000900098002803D00098401E0090F8E71F
:103920002068FFF7ADFF002809D1606D50F010004E
:103930006065A06D50F00100A06501208046206800
:10394000FFF7A7FF0500606DC00600F19980002D0C
:1039500040F09680606D30F4807050F00200606539
:103960002068FFF792FF002815D1DFF84001FFF72C
:103970008CFF0600DFF83801FFF787FF0643DFF80A
:103980003401FFF782FF0643002E04D16168DFF89F
:103990002801FFF7E7FE607E616B51EA4031E06885
:1039A0000143A068014394F8200051EA0041894690
:1039B00094F82000012803D1606A401E59EA40496A
:1039C000A06A002807D0A06A10F4707050EA0909B4
:1039D000E06A50EA09092068C168DFF8E0000140A8
:1039E00059EA01012068C1602068FFF757FF07000E
:1039F00057EA050000282AD1207E94F830104900AB
:103A000051EA803189462068C168DFF8B40001407E
:103A100059EA01012068C16094F83800012810D1EA
:103A2000206801696FF38A01E06B0143206C014358
:103A3000606C0143A06C014351F0010120680161F9
:103A400005E020680069400840002168086120699D
:103A5000012809D12068006B00090001E169491EB5
:103A600008432168086305E02068006B0009000135
:103A7000216808630120616D60F30101616505E063
:103A8000606D50F010006065012080464046C0B275
:103A9000BDE8F28300F0FF03FFFF0700C0FFFF5FF8
:103AA000C0FFFF7F04000020400D03000000045011
:103AB00000010450000204500003045007C0F0FF4E
:103AC000FDBFFFFF2DE9FE4F070088465FF00009AC
:103AD00000200090DFF85CB4D8F80C005845FFD106
:103AE00097F85000012801D102201CE2012087F83C
:103AF00050003868FFF7CDFE002840F00982D8F862
:103B000004A0D8F80400062819D2D8F80400022826
:103B100006D012D3042809D005D3052809D00CE01B
:103B20000C2082460BE01220824608E018208246D4
:103B300005E04FF48070824601E006208246D8F806
:103B4000002051463868FFF744FE3868FFF7A1FEB1
:103B500005003868FFF7A2FE060056EA05000028B7
:103B600040F0C980D8F80820D8F800103868FFF76E
:103B700047FED8F814003968C968C1F3C10149008B
:103B800088400190D8F81000042808D0019BD8F88C
:103B90000020D8F810103868FFF7F4FDABE00021E2
:103BA0003868FFF701FE400306D100213868FFF7AF
:103BB000FBFDC0F3846007E000213868FFF7F4FDE7
:103BC00090FAA0F0B0FA80F0D8F80010490304D1C0
:103BD000D8F80010C1F3846105E0D8F8001091FA1C
:103BE000A1F1B1FA81F1884204D1002200213868A4
:103BF000FFF7E3FD01213868FFF7D6FD400306D14A
:103C000001213868FFF7D0FDC0F3846007E001218F
:103C10003868FFF7C9FD90FAA0F0B0FA80F0D8F844
:103C20000010490304D1D8F80010C1F3846105E005
:103C3000D8F8001091FAA1F1B1FA81F1884204D1CB
:103C4000002201213868FFF7B8FD02213868FFF72C
:103C5000ABFD400306D102213868FFF7A5FDC0F394
:103C6000846007E002213868FFF79EFD90FAA0F01B
:103C7000B0FA80F0D8F80010490304D1D8F8001049
:103C8000C1F3846105E0D8F8001091FAA1F1B1FA0E
:103C900081F1884204D1002202213868FFF78DFDAE
:103CA00003213868FFF780FD400306D103213868FF
:103CB000FFF77AFDC0F3846007E003213868FFF75F
:103CC00073FD90FAA0F0B0FA80F0D8F80010490324
:103CD00004D1D8F80010C1F3846105E0D8F80010D1
:103CE00091FAA1F1B1FA81F1884204D100220321B5
:103CF0003868FFF762FD3868FFF7C7FD002840F01D
:103D0000A780D8F80C20D8F800103868FFF792FD8B
:103D1000D8F80C00584540F09B80D8F800004003CC
:103D200004D1D8F80000C0F3846005E0D8F80000A2
:103D300090FAA0F0B0FA80F0401C10F01F000A28A2
:103D40003FD2D8F80000400304D1D8F80000C0F3F7
:103D5000846105E0D8F8000090FAA0F0B0FA80F194
:103D6000D8F80000400304D1D8F80000C0F3846004
:103D700005E0D8F8000090FAA0F0B0FA80F0D8F88A
:103D80000020520304D1D8F80020C2F3846205E079
:103D9000D8F8002092FAA2F2B2FA82F2491C8906FF
:103DA00011F0F8410123401C10F01F0013FA00F03D
:103DB0000143521C12F01F020320424351EA0251F8
:103DC00041E0D8F80000400304D1D8F80000C0F367
:103DD000846105E0D8F8000090FAA0F0B0FA80F114
:103DE000D8F80000400304D1D8F80000C0F3846084
:103DF00005E0D8F8000090FAA0F0B0FA80F0D8F80A
:103E00000020520304D1D8F80020C2F3846205E0F8
:103E1000D8F8002092FAA2F2B2FA82F2491C89067E
:103E200011F0F8410123401C10F01F0013FA00F0BC
:103E30000143521C12F01F020A3A0320424351EA86
:103E4000025151F00071D8F808203868FFF7D8FC0B
:103E5000D8F80000DFF8E01008425FD0DFF8CCB0FF
:103E60005846FFF78BFC0400D8F80000DFF8CC10B0
:103E7000884222D1200220D43868DFF8B41088426A
:103E800004D03868DFF8B810884247D154F40001F4
:103E90005846FFF76DFCDFF8AC000068DFF8A810AB
:103EA000B0FBF1F1491C0C2041430091009800281F
:103EB00034D00098401E0090F8E7D8F80000DFF8F2
:103EC0008C10884211D1E0010FD43868DFF86010FF
:103ED000884204D03868DFF8681088421ED154F058
:103EE00080715846FFF744FC18E0D8F80000DFF86E
:103EF0006010884212D1600210D43868DFF83010A8
:103F000088420BD154F480015846FFF731FC05E09C
:103F1000786D50F02000786501208146002087F8F8
:103F200050004846C0B2BDE8FE8F000000030450B8
:103F30000000045000007F4000000880000052C7CD
:103F40000002045004000020400D0300000084CB58
:103F500001000080806810F00100704780688008D0
:103F600010F0010070472DE9F04399B006000F00F2
:103F70005FF000083868002896F85000012801D149
:103F800002206EE0012086F85000002015900020ED
:103F90001690364C3068A04202D13648009001E0BD
:103FA000002000900098002808D1706D50F020008B
:103FB0007065002086F85000012052E00098FFF75D
:103FC000CDFF81463068FFF7C9FF59EA000000289D
:103FD0003CD1274805003868002820D0A96831F472
:103FE00060417868014396F8300051EA4031A96099
:103FF0002000FFF7AFFF04001E48FFF7ABFF0443AC
:104000001D48FFF7A7FF0443002C25D1A9681B48D2
:10401000014038680143B8680143A9601CE0A86802
:1040200030F46040A8602000FFF794FF04001148BE
:10403000FFF790FF04431048FFF78CFF0443002C68
:104040000AD1A9680D480140A96005E0706D50F0E3
:104050002000706501208046002086F85000404610
:10406000C0B219B0BDE8F0830000000000000450A9
:10407000000304500001045000020450E0F0FFFF70
:10408000020092F8410020282AD192F8400001282D
:1040900001D1022025E0012082F84000242082F88E
:1040A00041001068006840084000136818601068FC
:1040B000006830F480501368186010680068084386
:1040C000136818601068006850F0010013681860E9
:1040D000202082F84100002082F84000002000E00B
:1040E0000220704710B4020092F84100202827D126
:1040F00092F84000012801D1022022E0012082F83C
:104100004000242082F84100106800684008400008
:10411000136818601068036833F4706353EA01236E
:10412000106803601068006850F001001468206097
:10413000202082F84100002082F84000002000E0AA
:10414000022010BC704781B007490A6852F0010292
:104150000A60096811F001010091009903490A6899
:1041600002430A6001B07047601002400400014041
:1041700010B50400002C01D1012074E0606A002811
:1041800006D16068B0F5827F06D00020E06103E0D0
:1041900000202061002060610020A06294F85D0092
:1041A000002805D1002084F85C002000FCF71FFEE9
:1041B000022084F85D002068006830F0400021682B
:1041C0000860E06840F20171884201D3002101E0FB
:1041D0004FF48051E068B0F5706F05D0E068B0F53D
:1041E000E06F01D00020A062606810F48270A268C5
:1041F00012F404421043227C12F002021043227D8A
:1042000012F001021043A26912F400721043227FDF
:1042100012F03802104394F8202012F0800210436C
:10422000A26A12F40052104322681060A269120CB4
:1042300012F0040294F8240010F01000024394F8E5
:10424000340010F008000243E06810F4706002438C
:1042500011F4805002432068426000202066012053
:1042600084F85D00002010BD10B50400002C01D1C1
:10427000012035E094F83D00002805D1002084F8A5
:104280003C002000FCF7E3FD022084F83D00211DE6
:10429000206800F0FAFA012084F84800012084F830
:1042A0003E00012084F83F00012084F840000120F6
:1042B00084F84100012084F84200012084F8430082
:1042C000012084F84400012084F84500012084F88E
:1042D0004600012084F84700012084F83D000020BA
:1042E00010BD10B50400002C01D1012035E094F878
:1042F0003D00002805D1002084F83C00200001F09A
:10430000B6F9022084F83D00211D206800F0BDFAB6
:10431000012084F84800012084F83E00012084F840
:104320003F00012084F84000012084F84100012072
:1043300084F84200012084F84300012084F84400FE
:10434000012084F84500012084F84600012084F80B
:104350004700012084F83D00002010BD70B5050025
:104360000C00002C02D195F83E0015E0042C02D17F
:1043700095F83F0010E0082C02D195F840000BE0C2
:104380000C2C02D195F8410006E0102C02D195F8D2
:10439000420001E095F84300012801D0012089E0A6
:1043A000002C04D1022085F83E00C0B21FE0042C8E
:1043B00004D1022085F83F00C0B218E0082C04D1D7
:1043C000022085F84000C0B211E00C2C04D102207C
:1043D00085F84100C0B20AE0102C04D1022085F813
:1043E0004200C0B203E0022085F84300C0B20122BF
:1043F0002100286800F058FCDFF8BC0029688142E1
:1044000013D02968DFF8B42091420ED02968DFF874
:10441000B020914209D02968DFF8B820914204D039
:104420002968DFF8AC20914201D1012100E0002190
:10443000C9B2002905D02968496C51F400412A68A5
:104440005164296881421CD02868B0F1804F18D08F
:104450002868DFF87010884213D02868DFF86810E9
:1044600088420ED02868DFF86410884209D0286896
:10447000DFF84810884204D02868DFF844108842EA
:1044800011D128688168DFF8500001400E00062E27
:104490000FD0B6F5803F0CD02868006850F00100BE
:1044A0002968086005E02868006850F00100296864
:1044B0000860002070BD0000002C01400034014065
:1044C000004001400004004000080040000C004093
:1044D00000480140004401400700010070B504009D
:1044E0002068C56820680669B00718D5A80716D5E2
:1044F0007FF0020021680861012020772068806930
:1045000010F0030F03D0200001F0B2F805E0200006
:1045100001F0AFF8200001F0ADF80020207770071F
:1045200018D5680716D57FF00400216808610220BD
:1045300020772068806910F4407F03D0200001F0CC
:1045400097F805E0200001F094F8200001F092F8BF
:1045500000202077300718D5280716D57FF00800EF
:1045600021680861042020772068C06910F0030FDB
:1045700003D0200001F07CF805E0200001F079F87C
:10458000200001F077F800202077F00618D5E80623
:1045900016D57FF010002168086108202077206878
:1045A000C06910F4407F03D0200001F061F805E0FD
:1045B000200001F05EF8200001F05CF80020207778
:1045C000F00708D5E80706D57FF0010021680861EB
:1045D000200001F050F8300608D5280606D57FF0F7
:1045E000800021680861200001F046F8F00508D538
:1045F000280606D57FF4807021680861200001F04C
:104600003CF8700608D5680606D57FF040002168A2
:104610000861200001F032F8B00608D5A80606D5DA
:104620007FF0200021680861200001F028F870BDAB
:10463000F8B504000D001600002794F83C0001288E
:1046400001D10220A4E0012084F83C0030000028C1
:104650000AD004281FD0082835D00C284AD01028AA
:1046600060D0142875D08CE02900206800F070F923
:104670002068806950F0080021688861206880699E
:1046800030F004002168886120688169286901434D
:104690002068816177E02900206800F0A7F9206890
:1046A000806950F40060216888612068806930F476
:1046B00080602168886120688069296950EA01204A
:1046C000216888615FE02900206800F0D7F9206840
:1046D000C06950F008002168C8612068C06930F0E6
:1046E00004002168C8612068C16928690143206805
:1046F000C16148E02900206800F0FFF92068C06926
:1047000050F400602168C8612068C06930F480609E
:104710002168C8612068C069296950EA01202168C0
:10472000C86130E02900206800F016FA2068406D6A
:1047300050F00800216848652068406D30F00400A2
:10474000216848652068416D2869014320684165FA
:1047500019E02900206800F02BFA2068406D50F421
:104760000060216848652068406D30F480602168F1
:1047700048652068406D296950EA01202168486534
:1047800001E001200700002084F83C003800C0B29E
:10479000F2BDF8B504000D00002694F83C00012895
:1047A00001D102206FE0012084F83C00022084F84F
:1047B0003D0020688768DFF85404074037F47F47DE
:1047C00020688760286800284ED010284CD0202808
:1047D0004AD0302848D040283CD0502826D06028E5
:1047E0002ED0702807D0B0F5805F03D0B0F5005F01
:1047F0000FD03EE03FE0EB686A68A968206800F0EF
:1048000048FA2068806850F07700070020688760C9
:1048100031E0EB686A68A968206800F03AFA20681D
:10482000806850F480402168886024E0EA68696804
:10483000206800F001FA5021206800F022FA1AE006
:10484000EA686968206800F009FA6021206800F0D1
:1048500018FA10E0EA686968206800F0EDF9402174
:10486000206800F00EFA06E02968206800F009FAD6
:1048700001E001200600012084F83D00002084F8BA
:104880003C003000C0B2F2BD000010B40468DFF894
:104890008033984212D0B0F1804F0FD0DFF87423EC
:1048A00090420BD0DFF87023904207D0DFF86C23E2
:1048B000904203D0DFF86823904203D134F07004B3
:1048C0004A68144398421ED0B0F1804F1BD0DFF8E5
:1048D0004423904217D0DFF84023904213D0DFF8F2
:1048E0003C2390420FD0DFF8382390420BD0DFF802
:1048F0003423904207D0DFF83023904203D0DFF812
:104900002C23904203D134F44074CA68144334F029
:1049100080044A69144304608A68C2620A68826239
:1049200098420FD0DFF8F82290420BD0DFF8F42243
:10493000904207D0DFF8F022904203D0DFF8EC225B
:10494000904201D10A6902630122426110BC7047A2
:1049500070B4036A026A52085200026244688569B0
:10496000DFF8CC221540AD08AD000A68154333F0DE
:1049700002038A681343DFF89862B0420FD0DFF871
:10498000A02290420BD0DFF89C22904207D0DFF8A3
:104990009822904203D0DFF89422904205D133F060
:1049A0000803CA68134333F00403B0420FD0DFF8A2
:1049B000702290420BD0DFF86C22904207D0DFF8D3
:1049C0006822904203D0DFF86422904207D134F489
:1049D000807434F400744A6914438A69144344604F
:1049E00085614A684263036270BC704770B4036AB1
:1049F000026A32F01002026244688569DFF83422EC
:104A0000154035F440750A6855EA022533F0200355
:104A10008A6853EA0213DFF8F821904203D0DFF8E6
:104A20000062B04206D133F08003CE6853EA061329
:104A300033F0400390420FD0DFF8E42190420BD0D6
:104A4000DFF8E021904207D0DFF8DC21904203D06C
:104A5000DFF8D821904209D134F4806434F4006442
:104A60004A6954EA82048A6954EA8204446085618E
:104A70004A688263036270BC7047000070B4036AC6
:104A8000026A32F4807202624468C569684A15405D
:104A9000AD08AD000A68154333F400738A6853EA21
:104AA00002235B4A904202D05D4EB04206D133F4FD
:104AB0000063CE6853EA062333F4806390420BD040
:104AC000574A904208D0574A904205D0564A9042E1
:104AD00002D0564A904209D134F4805434F4005440
:104AE0004A6954EA02148A6954EA02144460C561AE
:104AF0004A68C263036270BC704730B4036A026ADA
:104B000032F4805202624468C5694A4A154035F45D
:104B100040750A6855EA022533F400538A6853EA5F
:104B200002333B4A90420BD03D4A904208D03D4A66
:104B3000904205D03C4A904202D03C4A904204D177
:104B400034F480444A6954EA82144460C5614A6876
:104B50000264036230BC704730B4036A026A32F404
:104B6000803202624468456D314A15400A68154337
:104B700033F400338A6853EA0243254A90420BD04B
:104B8000274A904208D0274A904205D0264A9042B0
:104B900002D0264A904204D134F480344A6954EA5F
:104BA0000224446045654A688265036230BC7047F0
:104BB00030B4036A026A32F4801202624468456DBE
:104BC0001C4A15400A6855EA022533F400138A6826
:104BD00053EA02530E4A90420BD0114A904208D039
:104BE000104A904205D0104A904202D00F4A90429B
:104BF00004D134F480244A6954EA8224446045652F
:104C00004A68C265036230BC7047000088FFFEFF3F
:104C1000002C01400004004000080040000C00404F
:104C20000034014000400140004401400048014080
:104C30008FFFFEFFFF8FFFFE10B4046A036A5B085C
:104C40005B000362836933F0F00353EA021334F02C
:104C50000A040C438361046210BC704710B4046AF8
:104C6000036A33F010030362836933F4704353EA39
:104C7000023334F0A00454EA01148361046210BCCE
:104C80007047826832F070020A4352F00702826075
:104C9000704710B4846834F47F440C43144354EADE
:104CA0000324846010BC704730B4012411F01F034A
:104CB00014FA03F3046A9C430462046A11F01F05AA
:104CC00012FA05F52C43046230BC704770B4020040
:104CD00092F83C00012801D1022043E0012082F833
:104CE0003C00022082F83D00106843681068846828
:104CF000434D1068A84203D01068454EB04203D11E
:104D000033F470034868034333F0700308680343C7
:104D1000106843601068A84217D01068B0F1804F47
:104D200013D01068374DA8420FD01068364DA842F6
:104D30000BD01068354DA84207D01068344DA842FA
:104D400003D01068334DA84205D134F08004886840
:104D5000044310688460012082F83D00002082F83E
:104D60003C00002070BC704710B40200002392F891
:104D70003C00012801D102203EE0012082F83C00E5
:104D80001B0A1B02C868034333F44073886803435B
:104D900033F480634868034333F4006308680343D3
:104DA00033F480530869034333F4005348690343E1
:104DB00033F48043886A034333F47023886953EAE9
:104DC000004310680E4CA04203D01068104CA04263
:104DD0000CD133F47003486A53EA005333F0807304
:104DE000C869034333F00073086A034310684364DF
:104DF000002082F83C00002010BC7047000000003A
:104E0000002C01400004004000080040000C00405D
:104E1000003401400040014081627047C162704728
:104E200001637047416951F0010141617047F8B574
:104E300004000D002668DFF8C870BC4212D0B4F13F
:104E4000804F0FD0DFF8BC0084420BD0DFF8B800F1
:104E5000844207D0DFF8B400844203D0DFF8B0000A
:104E6000844203D136F0700668680643BC421ED007
:104E7000B4F1804F1BD0DFF88C00844217D0DFF8EC
:104E80008800844213D0DFF8840084420FD0DFF81A
:104E9000800084420BD0DFF87C00844207D0DFF82A
:104EA0007800844203D0DFF87400844203D136F4E2
:104EB0004076E86806432660A9682000FFF7AEFF49
:104EC00029882000FFF7A8FFBC420FD0DFF8400080
:104ED00084420BD0DFF83C00844207D0DFF8380072
:104EE000844203D0DFF83400844203D129692000D2
:104EF000FFF796FF2000FFF795FF0020F2BD0000AE
:104F0000002C01400004004000080040000C00405C
:104F1000003401400040014000440140004801408D
:104F200010B50400002C01D1012035E0A069002853
:104F3000FFD1E06F002805D1002084F87800200020
:104F4000FBF7D4FF2420E067206800684008400099
:104F500021680860606A002802D0200000F0D2F9C1
:104F6000200000F01AF8012801D1012014E0206887
:104F7000406830F49040216848602068806830F0D4
:104F80002A00216888602068006850F001002168CC
:104F90000860200000F023FA10BD2DE9F04705005D
:104FA0000026DFF8001628688842FFD0AA68286922
:104FB000024368690243E869024328680368DFF82E
:104FC000E80503401343286803602868436833F406
:104FD0004053E868034328684360D5F81890286870
:104FE000884202D0286A50EA09092868806830F4AB
:104FF000306059EA00002A6890602868DFF8AC2524
:10500000904216D1DFF8A805006810F003000028D0
:1050100005D0022805D006D3032806D007E00127D3
:105020009DE002279BE0042799E0082797E01027DE
:1050300095E02868DFF87C25904217D1DFF87005ED
:10504000006810F00C00002806D0042808D00828BA
:1050500004D00C2806D007E0002780E002277EE07D
:1050600004277CE008277AE0102778E02868DFF83A
:105070004825904217D1DFF83805006810F030005D
:10508000002806D0102808D0202804D0302806D0C8
:1050900007E0002763E0022761E004275FE00827BC
:1050A0005DE010275BE02868DFF81025904217D1FB
:1050B000DFF8FC04006810F0C000002806D040288B
:1050C00008D0802804D0C02806D007E0002746E09A
:1050D000022744E0042742E0082740E010273EE092
:1050E0002868DFF8DC2490421AD1DFF8C404006895
:1050F00010F44070002809D0B0F5807F0AD0B0F5D8
:10510000007F05D0B0F5407F06D007E0002726E0FD
:10511000022724E0042722E0082720E010271EE0D1
:10512000286888421AD1DFF88804006810F44060CB
:10513000002809D0B0F5806F0AD0B0F5006F05D017
:10514000B0F5406F06D007E0002708E0022706E030
:10515000042704E0082702E0102700E01027286851
:10516000884247D13800C0B2002806D0022808D0B3
:10517000042809D008280BD00DE0FEF76FFA0400D0
:105180000CE0DFF8404409E0FEF7FBF9040005E01D
:105190004FF4004402E0002401200600002C00F03F
:1051A000A8806968032041438C4203D368680003E8
:1051B000A04202D2012006009BE0220000231B0235
:1051C00043EA12631202686840080021101859412E
:1051D0006A68002300F054FA8046B8F5407F06D391
:1051E000B8F5801F03D22868C0F80C8081E0012048
:1051F00006007EE0E869B0F5004F42D13800C0B249
:10520000002808D001280AD002280CD004280DD08C
:1052100008280FD011E0FEF721FA040010E0FEF795
:105220002AFA04000CE0DFF89C4309E0FEF7A9F934
:10523000040005E04FF4004402E0002401200600D1
:10524000002C56D06868400810EB44006968B0FB39
:10525000F1F08046B8F1100F10D3B8F5803F0DD2B1
:105260004FF6F07111EA08014046C0F342000143D5
:105270008A46504680B22968C8603AE0012006009C
:1052800037E03800C0B2002808D001280AD0022830
:105290000CD004280DD008280FD011E0FEF7DEF95D
:1052A000040010E0FEF7E7F904000CE0DFF8144317
:1052B00009E0FEF766F9040005E04FF4004402E05F
:1052C000002401200600002C13D0686814EB500065
:1052D0006968B0FBF1F08046B8F1100F07D3B8F55C
:1052E000803F04D2404680B22968C86001E00120B6
:1052F00006000020A8660020E8663000C0B2BDE8C5
:10530000F087000090F82410090707D501684A6863
:1053100032F40042416B0A4301684A6090F824105D
:10532000C90707D501684A6832F40032816A0A4326
:1053300001684A6090F82410890707D501684A6817
:1053400032F48032C16A0A4301684A6090F824103E
:10535000490707D501684A6832F48022016B0A4385
:1053600001684A6090F82410C90607D501688A6868
:1053700032F48052816B0A4301688A6090F82410ED
:10538000890607D501688A6832F40052C16B0A4366
:1053900001688A6090F82410490613D501684A68AC
:1053A00032F48012016C0A4301684A60016CB1F565
:1053B000801F07D101684A6832F4C002416C0A4379
:1053C00001684A6090F82410090607D501684A6808
:1053D00032F40022816C0A4301684A60704738B594
:1053E00004000020C4F88400FBF7DCFD0500206801
:1053F000006800071DD57FF07E4000902B00002242
:105400005FF40011200000F053F8002811D020684C
:1054100050E8000F30F080000100226842E80010E0
:105420000028F4D12020E067002084F878000320D1
:105430003DE02068006840072CD57FF07E4000905A
:105440002B0000225FF48001200000F031F80028DA
:1054500020D0206850E8000F30F4907001002268DE
:1054600042E800100028F4D12068083050E8000F0E
:10547000400840000100206810F1080242E80010D6
:105480000028F1D12020C4F88000002084F87800A2
:1054900003200CE02020E0672020C4F880000020DA
:1054A000206600206066002084F87800002032BD6D
:1054B0002DE9F04105000E0090461F00069C28686B
:1054C000C0693040B04201D1012000E000204146D7
:1054D000C9B2884234D114F1010FF0D0FBF762FD5C
:1054E000C01B844201D3002C01D1032029E028688D
:1054F00000684007E3D52868C06900070DD508207B
:1055000029680862280000F01EF80820C5F8840009
:10551000002085F87800012013E02868C0690005A4
:10552000CDD54FF4006029680862280000F00BF820
:105530002020C5F88400002085F87800032000E0D2
:105540000020BDE8F081016851E8001F31F490713E
:105550000A00036843E800210029F4D101680831FA
:1055600051E8001F490849000A00016811F10803C9
:1055700043E800210029F1D1016E01290AD1016817
:1055800051E8001F31F010010A00036843E80021D0
:105590000029F4D12021C0F88010002101660021EB
:1055A0008166704700800040F369FFEF00380140DA
:1055B000881002400044004000480040004C004079
:1055C000005000400024F40038B5040000251349C1
:1055D000087800281DD04FF47A700978B0FBF1F0FC
:1055E0000F490968B1FBF0F0FCF7F1FD00280DD17F
:1055F000102C08D2002221005FF0FF30FCF7CBFD19
:105600000848046007E00120050004E001200500CF
:1056100001E0012005002800C0B232BD08000020D2
:10562000040000200000002070B50400FBF7BAFC65
:105630000500260016F1010F02D004480078361844
:10564000FBF7B0FC401BB042FAD370BD080000204D
:10565000B5EEC00AF1EE10FA02D4B1EEC00A7047FE
:105660006FF0004C00EE10CAAFF300807047704737
:105670007047704770477047704770477047704772
:10568000BBBBE1B1B2F5803F80F07E80022A1ED91B
:105690008C46B1FBF2F102FB11C31B0443EA104339
:1056A000B3FBF2FC02FB1C3380B240EA0343B3FBC2
:1056B000F2F002FB103240EA0C4000237047022A4D
:1056C00005D98446B0FBF2F002FB10C270474AB124
:1056D00005D100F0010249085FEA3000704700225E
:1056E0000023704700F0E4B80B0002000021002006
:1056F0007047904271EB030CF6D3B3F5803F2FD285
:10570000F0B5B3FA83F7B1FA81F4A7F10F0E3D1BA0
:105710005340CEF1200602FA0EF2F3415340B5F1A8
:105720000F0746D80F3C2C444140C4F12006A0404E
:10573000F1414140B1FBF3F603FB1611A2FB064514
:10574000001BA94102D2761E8018594180EA01024D
:1057500021FA0EF362FA0EF200215A403046F0BDF3
:1057600030B4B1FBF3FC03FB1C11A2FB0C45001B86
:10577000A94103D2ACF1010C8018594130BC02465A
:105780000B46604600217047B2F1807F65D3F0B5CB
:10579000B2FA82F7B1FA81F4C7F10F063D1B22FA83
:1057A00006F307F1110EF24120355A40B5F10F070B
:1057B000B8D94140C4F12006A040F1414140B1FBBD
:1057C000F3FC03FB1C11A2FB0C45001BA94103D2F7
:1057D000BCF1010C801859410F2F12D30F3FC903A0
:1057E00041EA5041B1FBF3F603FB1611A2FB06455B
:1057F000D4EBC030A94102D2761E8018594146EA46
:10580000CC3C07B34140C7F12006B840F1414140CC
:10581000B1FBF3F603FB1611A2FB0645001BA941E1
:1058200002D2761E8018594180EA010221FA0EF355
:10583000C7F1200462FA0EF20CFA07F05A402CFA73
:1058400004F13043F0BD80EA010221FA0EF3002199
:1058500062FA0EF260465A40F0BD8C46B1FBF2F19E
:1058600002FB11C31B0243EA1063B3FBF2FC02FB11
:105870001C331B024CEA002043EA1063B3FBF2FC2A
:1058800002FB1C331B024CEA002043EA1063B3FB0B
:10589000F2FC02FB1C331B024CEA002043EA1063BB
:1058A000B3FBF2FC02FB1C324CEA002000237047E1
:1058B000704730B4002512E050F8042BD30744BFE2
:1058C0004A44521E091F042942F8045BFAD21346C7
:1058D0008C0744BF15809B1CC90748BF1D7050F83A
:1058E000041B0029E8D130BC70470000A0860100ED
:1058F000400D0300801A060000350C0040420F00E6
:1059000080841E0000093D0000127A000024F4008B
:1059100000366E010048E801006CDC02FEE7FEE79D
:10592000FEE7FEE7FEE770477047704780B500F07E
:1059300009F801BD80B50248FEF7D0FD01BD0000A9
:105940001004002003480168034A12788918016096
:10595000704700BF640400200800002010B507490C
:1059600079441831064C7C44163404E00A68081D5A
:10597000114488470146A142F8D110BD2C00000017
:105980004C0000004EF68851CEF20001086840F449
:1059900070000860BFF34F8FBFF36F8F4FF001703F
:1059A000E1EE100A704700000BFFFFFF5C040000EF
:1059B0000C00002000000000ABC8FFFF0C0000003E
:1059C000A0000000000000200000000000F00DF822
:1059D000002801D0FFF7C2FFAFF300800020AFF333
:1059E0000080FBF7B3FE00F002F80120704700F0E2
:1059F00001B800000746384600F002F8FBE7000057
:105A000080B5AFF30080024A11001820ABBEFBE75F
:105A1000260002000548014603B4684680F3098861
:105A2000AFF30080FFF7AEFFFFF7D0FFA5EDF5FE67
:105A3000000000000000000001020304060708093E
:105A40000148804701480047515A0008155A00088C
:105A50000248016851F470010160704788ED00E070
:105A60001000000000093D0001000000F124F224B4
:105A7000F3240000008712870C870000000000005C
:105A800001020304FFF7FEBFFFF7FEBFFFF7FEBFF3
:105A9000FFF7FEBFFFF7FEBFFFF7FEBFFFF7FEBF3A
:105AA000FFF7FEBFFFF7FEBFFFF7FEBFFFF7FEBF2A
:105AB000FFF7FEBFFFF7FEBFFFF7FEBFFFF7FEBF1A
:105AC000FFF7FEBFFFF7FEBFFFF7FEBFFFF7FEBF0A
:105AD000FFF7FEBFFFF7FEBFFFF7FEBFFFF7FEBFFA
